{"abi":[{"inputs":[],"stateMutability":"nonpayable","type":"constructor"},{"inputs":[{"internalType":"uint256","name":"index","type":"uint256"}],"name":"bookRoom","outputs":[{"internalType":"uint256","name":"roomNumber","type":"uint256"},{"internalType":"uint256","name":"roomKey","type":"uint256"}],"stateMutability":"nonpayable","type":"function"},{"inputs":[{"internalType":"uint256","name":"index","type":"uint256"}],"name":"checkout","outputs":[],"stateMutability":"nonpayable","type":"function"},{"inputs":[{"internalType":"uint256","name":"index","type":"uint256"}],"name":"getRoom","outputs":[{"internalType":"uint256","name":"price","type":"uint256"},{"internalType":"enum Hotel.RoomType","name":"typeOfRoom","type":"uint8"},{"internalType":"uint256","name":"roomNumber","type":"uint256"},{"internalType":"bool","name":"occupied","type":"bool"},{"internalType":"uint256","name":"start","type":"uint256"},{"internalType":"uint256","name":"end","type":"uint256"},{"internalType":"uint256","name":"owing","type":"uint256"}],"stateMutability":"view","type":"function"},{"inputs":[],"name":"numberOfDoubleRooms","outputs":[{"internalType":"uint256","name":"","type":"uint256"}],"stateMutability":"view","type":"function"},{"inputs":[],"name":"numberOfSingleRooms","outputs":[{"internalType":"uint256","name":"","type":"uint256"}],"stateMutability":"view","type":"function"},{"inputs":[],"name":"numberOfSuiteRooms","outputs":[{"internalType":"uint256","name":"","type":"uint256"}],"stateMutability":"view","type":"function"},{"inputs":[{"internalType":"uint256","name":"index","type":"uint256"}],"name":"pay","outputs":[],"stateMutability":"payable","type":"function"},{"inputs":[{"internalType":"uint256","name":"","type":"uint256"}],"name":"rooms","outputs":[{"internalType":"uint256","name":"price","type":"uint256"},{"internalType":"enum Hotel.RoomType","name":"typeOfRoom","type":"uint8"},{"internalType":"uint256","name":"roomNumber","type":"uint256"},{"internalType":"bool","name":"occupied","type":"bool"},{"internalType":"uint256","name":"start","type":"uint256"},{"internalType":"uint256","name":"end","type":"uint256"},{"internalType":"uint256","name":"owing","type":"uint256"}],"stateMutability":"view","type":"function"}],"devdoc":{"kind":"dev","methods":{},"version":1},"evm":{"assembly":"    /* \"Hotel.sol\":57:3513  contract Hotel {... */\n  mstore(0x40, 0x80)\n    /* \"Hotel.sol\":540:1888  constructor () {... */\n  callvalue\n  dup1\n  iszero\n  tag_1\n  jumpi\n  0x00\n  dup1\n  revert\ntag_1:\n  pop\n    /* \"Hotel.sol\":587:589  15 */\n  0x0f\n    /* \"Hotel.sol\":565:584  numberOfSingleRooms */\n  0x00\n    /* \"Hotel.sol\":565:589  numberOfSingleRooms = 15 */\n  dup2\n  swap1\n  sstore\n  pop\n    /* \"Hotel.sol\":621:623  10 */\n  0x0a\n    /* \"Hotel.sol\":599:618  numberOfDoubleRooms */\n  0x01\n    /* \"Hotel.sol\":599:623  numberOfDoubleRooms = 10 */\n  dup2\n  swap1\n  sstore\n  pop\n    /* \"Hotel.sol\":654:655  5 */\n  0x05\n    /* \"Hotel.sol\":633:651  numberOfSuiteRooms */\n  0x02\n    /* \"Hotel.sol\":633:655  numberOfSuiteRooms = 5 */\n  dup2\n  swap1\n  sstore\n  pop\n    /* \"Hotel.sol\":671:677  uint i */\n  0x00\n    /* \"Hotel.sol\":666:1882  for (uint i=0; i<30; i++) {... */\ntag_4:\n    /* \"Hotel.sol\":683:685  30 */\n  0x1e\n    /* \"Hotel.sol\":681:682  i */\n  dup2\n    /* \"Hotel.sol\":681:685  i<30 */\n  lt\n    /* \"Hotel.sol\":666:1882  for (uint i=0; i<30; i++) {... */\n  iszero\n  tag_5\n  jumpi\n    /* \"Hotel.sol\":715:716  i */\n  dup1\n    /* \"Hotel.sol\":710:711  0 */\n  0x00\n    /* \"Hotel.sol\":710:716  0 <= i */\n  gt\n  iszero\n    /* \"Hotel.sol\":710:726  0 <= i && i < 15 */\n  dup1\n  iszero\n  tag_7\n  jumpi\n  pop\n    /* \"Hotel.sol\":724:726  15 */\n  0x0f\n    /* \"Hotel.sol\":720:721  i */\n  dup2\n    /* \"Hotel.sol\":720:726  i < 15 */\n  lt\n    /* \"Hotel.sol\":710:726  0 <= i && i < 15 */\ntag_7:\n    /* \"Hotel.sol\":706:1872  if (0 <= i && i < 15) {... */\n  iszero\n  tag_8\n  jumpi\n    /* \"Hotel.sol\":746:762  Room memory room */\n  0x00\n    /* \"Hotel.sol\":765:1048  Room({... */\n  mload(0x40)\n  dup1\n  0xe0\n  add\n  0x40\n  mstore\n  dup1\n    /* \"Hotel.sol\":799:816  20000000000000000 */\n  0x470de4df820000\n    /* \"Hotel.sol\":765:1048  Room({... */\n  dup2\n  mstore\n  0x20\n  add\n    /* \"Hotel.sol\":850:865  RoomType.SINGLE */\n  0x00\n    /* \"Hotel.sol\":765:1048  Room({... */\n  0x02\n  dup2\n  gt\n  iszero\n  tag_9\n  jumpi\n  tag_10\n  tag_11\n  jump\t// in\ntag_10:\ntag_9:\n  dup2\n  mstore\n  0x20\n  add\n    /* \"Hotel.sol\":903:904  1 */\n  0x01\n    /* \"Hotel.sol\":899:900  i */\n  dup5\n    /* \"Hotel.sol\":899:904  i + 1 */\n  tag_12\n  swap2\n  swap1\n  tag_13\n  jump\t// in\ntag_12:\n    /* \"Hotel.sol\":765:1048  Room({... */\n  dup2\n  mstore\n  0x20\n  add\n    /* \"Hotel.sol\":936:941  false */\n  0x00\n    /* \"Hotel.sol\":765:1048  Room({... */\n  iszero\n  iszero\n  dup2\n  mstore\n  0x20\n  add\n    /* \"Hotel.sol\":970:971  0 */\n  0x00\n    /* \"Hotel.sol\":765:1048  Room({... */\n  dup2\n  mstore\n  0x20\n  add\n    /* \"Hotel.sol\":998:999  0 */\n  0x00\n    /* \"Hotel.sol\":765:1048  Room({... */\n  dup2\n  mstore\n  0x20\n  add\n    /* \"Hotel.sol\":1028:1029  0 */\n  0x00\n    /* \"Hotel.sol\":765:1048  Room({... */\n  dup2\n  mstore\n  pop\n    /* \"Hotel.sol\":746:1048  Room memory room = Room({... */\n  swap1\n  pop\n    /* \"Hotel.sol\":1067:1072  rooms */\n  0x03\n    /* \"Hotel.sol\":1078:1082  room */\n  dup2\n    /* \"Hotel.sol\":1067:1083  rooms.push(room) */\n  swap1\n  dup1\n  0x01\n  dup2\n  sload\n  add\n  dup1\n  dup3\n  sstore\n  dup1\n  swap2\n  pop\n  pop\n  0x01\n  swap1\n  sub\n  swap1\n  0x00\n  mstore\n  keccak256(0x00, 0x20)\n  swap1\n  0x07\n  mul\n  add\n  0x00\n  swap1\n  swap2\n  swap1\n  swap2\n  swap1\n  swap2\n  pop\n  0x00\n  dup3\n  add\n  mload\n  dup2\n  0x00\n  add\n  sstore\n  0x20\n  dup3\n  add\n  mload\n  dup2\n  0x01\n  add\n  exp(0x0100, 0x00)\n  dup2\n  sload\n  dup2\n  0xff\n  mul\n  not\n  and\n  swap1\n  dup4\n  0x02\n  dup2\n  gt\n  iszero\n  tag_15\n  jumpi\n  tag_16\n  tag_11\n  jump\t// in\ntag_16:\ntag_15:\n  mul\n  or\n  swap1\n  sstore\n  pop\n  0x40\n  dup3\n  add\n  mload\n  dup2\n  0x02\n  add\n  sstore\n  0x60\n  dup3\n  add\n  mload\n  dup2\n  0x03\n  add\n  exp(0x0100, 0x00)\n  dup2\n  sload\n  dup2\n  0xff\n  mul\n  not\n  and\n  swap1\n  dup4\n  iszero\n  iszero\n  mul\n  or\n  swap1\n  sstore\n  pop\n  0x80\n  dup3\n  add\n  mload\n  dup2\n  0x04\n  add\n  sstore\n  0xa0\n  dup3\n  add\n  mload\n  dup2\n  0x05\n  add\n  sstore\n  0xc0\n  dup3\n  add\n  mload\n  dup2\n  0x06\n  add\n  sstore\n  pop\n  pop\n    /* \"Hotel.sol\":728:1098  {... */\n  pop\n    /* \"Hotel.sol\":706:1872  if (0 <= i && i < 15) {... */\n  jump(tag_17)\ntag_8:\n    /* \"Hotel.sol\":1114:1115  i */\n  dup1\n    /* \"Hotel.sol\":1108:1110  15 */\n  0x0f\n    /* \"Hotel.sol\":1108:1115  15 <= i */\n  gt\n  iszero\n    /* \"Hotel.sol\":1108:1125  15 <= i && i < 25 */\n  dup1\n  iszero\n  tag_18\n  jumpi\n  pop\n    /* \"Hotel.sol\":1123:1125  25 */\n  0x19\n    /* \"Hotel.sol\":1119:1120  i */\n  dup2\n    /* \"Hotel.sol\":1119:1125  i < 25 */\n  lt\n    /* \"Hotel.sol\":1108:1125  15 <= i && i < 25 */\ntag_18:\n    /* \"Hotel.sol\":1104:1872  if (15 <= i && i < 25) {... */\n  iszero\n  tag_19\n  jumpi\n    /* \"Hotel.sol\":1145:1161  Room memory room */\n  0x00\n    /* \"Hotel.sol\":1164:1447  Room({... */\n  mload(0x40)\n  dup1\n  0xe0\n  add\n  0x40\n  mstore\n  dup1\n    /* \"Hotel.sol\":1198:1215  40000000000000000 */\n  0x8e1bc9bf040000\n    /* \"Hotel.sol\":1164:1447  Room({... */\n  dup2\n  mstore\n  0x20\n  add\n    /* \"Hotel.sol\":1249:1264  RoomType.DOUBLE */\n  0x01\n    /* \"Hotel.sol\":1164:1447  Room({... */\n  0x02\n  dup2\n  gt\n  iszero\n  tag_20\n  jumpi\n  tag_21\n  tag_11\n  jump\t// in\ntag_21:\ntag_20:\n  dup2\n  mstore\n  0x20\n  add\n    /* \"Hotel.sol\":1302:1303  1 */\n  0x01\n    /* \"Hotel.sol\":1298:1299  i */\n  dup5\n    /* \"Hotel.sol\":1298:1303  i + 1 */\n  tag_22\n  swap2\n  swap1\n  tag_13\n  jump\t// in\ntag_22:\n    /* \"Hotel.sol\":1164:1447  Room({... */\n  dup2\n  mstore\n  0x20\n  add\n    /* \"Hotel.sol\":1335:1340  false */\n  0x00\n    /* \"Hotel.sol\":1164:1447  Room({... */\n  iszero\n  iszero\n  dup2\n  mstore\n  0x20\n  add\n    /* \"Hotel.sol\":1369:1370  0 */\n  0x00\n    /* \"Hotel.sol\":1164:1447  Room({... */\n  dup2\n  mstore\n  0x20\n  add\n    /* \"Hotel.sol\":1397:1398  0 */\n  0x00\n    /* \"Hotel.sol\":1164:1447  Room({... */\n  dup2\n  mstore\n  0x20\n  add\n    /* \"Hotel.sol\":1427:1428  0 */\n  0x00\n    /* \"Hotel.sol\":1164:1447  Room({... */\n  dup2\n  mstore\n  pop\n    /* \"Hotel.sol\":1145:1447  Room memory room = Room({... */\n  swap1\n  pop\n    /* \"Hotel.sol\":1466:1471  rooms */\n  0x03\n    /* \"Hotel.sol\":1477:1481  room */\n  dup2\n    /* \"Hotel.sol\":1466:1482  rooms.push(room) */\n  swap1\n  dup1\n  0x01\n  dup2\n  sload\n  add\n  dup1\n  dup3\n  sstore\n  dup1\n  swap2\n  pop\n  pop\n  0x01\n  swap1\n  sub\n  swap1\n  0x00\n  mstore\n  keccak256(0x00, 0x20)\n  swap1\n  0x07\n  mul\n  add\n  0x00\n  swap1\n  swap2\n  swap1\n  swap2\n  swap1\n  swap2\n  pop\n  0x00\n  dup3\n  add\n  mload\n  dup2\n  0x00\n  add\n  sstore\n  0x20\n  dup3\n  add\n  mload\n  dup2\n  0x01\n  add\n  exp(0x0100, 0x00)\n  dup2\n  sload\n  dup2\n  0xff\n  mul\n  not\n  and\n  swap1\n  dup4\n  0x02\n  dup2\n  gt\n  iszero\n  tag_24\n  jumpi\n  tag_25\n  tag_11\n  jump\t// in\ntag_25:\ntag_24:\n  mul\n  or\n  swap1\n  sstore\n  pop\n  0x40\n  dup3\n  add\n  mload\n  dup2\n  0x02\n  add\n  sstore\n  0x60\n  dup3\n  add\n  mload\n  dup2\n  0x03\n  add\n  exp(0x0100, 0x00)\n  dup2\n  sload\n  dup2\n  0xff\n  mul\n  not\n  and\n  swap1\n  dup4\n  iszero\n  iszero\n  mul\n  or\n  swap1\n  sstore\n  pop\n  0x80\n  dup3\n  add\n  mload\n  dup2\n  0x04\n  add\n  sstore\n  0xa0\n  dup3\n  add\n  mload\n  dup2\n  0x05\n  add\n  sstore\n  0xc0\n  dup3\n  add\n  mload\n  dup2\n  0x06\n  add\n  sstore\n  pop\n  pop\n    /* \"Hotel.sol\":1127:1497  {... */\n  pop\n    /* \"Hotel.sol\":1104:1872  if (15 <= i && i < 25) {... */\n  jump(tag_26)\ntag_19:\n    /* \"Hotel.sol\":1521:1537  Room memory room */\n  0x00\n    /* \"Hotel.sol\":1540:1822  Room({... */\n  mload(0x40)\n  dup1\n  0xe0\n  add\n  0x40\n  mstore\n  dup1\n    /* \"Hotel.sol\":1574:1591  60000000000000000 */\n  0xd529ae9e860000\n    /* \"Hotel.sol\":1540:1822  Room({... */\n  dup2\n  mstore\n  0x20\n  add\n    /* \"Hotel.sol\":1625:1639  RoomType.SUITE */\n  0x02\n    /* \"Hotel.sol\":1540:1822  Room({... */\n  dup1\n  dup2\n  gt\n  iszero\n  tag_27\n  jumpi\n  tag_28\n  tag_11\n  jump\t// in\ntag_28:\ntag_27:\n  dup2\n  mstore\n  0x20\n  add\n    /* \"Hotel.sol\":1677:1678  1 */\n  0x01\n    /* \"Hotel.sol\":1673:1674  i */\n  dup5\n    /* \"Hotel.sol\":1673:1678  i + 1 */\n  tag_29\n  swap2\n  swap1\n  tag_13\n  jump\t// in\ntag_29:\n    /* \"Hotel.sol\":1540:1822  Room({... */\n  dup2\n  mstore\n  0x20\n  add\n    /* \"Hotel.sol\":1710:1715  false */\n  0x00\n    /* \"Hotel.sol\":1540:1822  Room({... */\n  iszero\n  iszero\n  dup2\n  mstore\n  0x20\n  add\n    /* \"Hotel.sol\":1744:1745  0 */\n  0x00\n    /* \"Hotel.sol\":1540:1822  Room({... */\n  dup2\n  mstore\n  0x20\n  add\n    /* \"Hotel.sol\":1772:1773  0 */\n  0x00\n    /* \"Hotel.sol\":1540:1822  Room({... */\n  dup2\n  mstore\n  0x20\n  add\n    /* \"Hotel.sol\":1802:1803  0 */\n  0x00\n    /* \"Hotel.sol\":1540:1822  Room({... */\n  dup2\n  mstore\n  pop\n    /* \"Hotel.sol\":1521:1822  Room memory room = Room({... */\n  swap1\n  pop\n    /* \"Hotel.sol\":1841:1846  rooms */\n  0x03\n    /* \"Hotel.sol\":1852:1856  room */\n  dup2\n    /* \"Hotel.sol\":1841:1857  rooms.push(room) */\n  swap1\n  dup1\n  0x01\n  dup2\n  sload\n  add\n  dup1\n  dup3\n  sstore\n  dup1\n  swap2\n  pop\n  pop\n  0x01\n  swap1\n  sub\n  swap1\n  0x00\n  mstore\n  keccak256(0x00, 0x20)\n  swap1\n  0x07\n  mul\n  add\n  0x00\n  swap1\n  swap2\n  swap1\n  swap2\n  swap1\n  swap2\n  pop\n  0x00\n  dup3\n  add\n  mload\n  dup2\n  0x00\n  add\n  sstore\n  0x20\n  dup3\n  add\n  mload\n  dup2\n  0x01\n  add\n  exp(0x0100, 0x00)\n  dup2\n  sload\n  dup2\n  0xff\n  mul\n  not\n  and\n  swap1\n  dup4\n  0x02\n  dup2\n  gt\n  iszero\n  tag_31\n  jumpi\n  tag_32\n  tag_11\n  jump\t// in\ntag_32:\ntag_31:\n  mul\n  or\n  swap1\n  sstore\n  pop\n  0x40\n  dup3\n  add\n  mload\n  dup2\n  0x02\n  add\n  sstore\n  0x60\n  dup3\n  add\n  mload\n  dup2\n  0x03\n  add\n  exp(0x0100, 0x00)\n  dup2\n  sload\n  dup2\n  0xff\n  mul\n  not\n  and\n  swap1\n  dup4\n  iszero\n  iszero\n  mul\n  or\n  swap1\n  sstore\n  pop\n  0x80\n  dup3\n  add\n  mload\n  dup2\n  0x04\n  add\n  sstore\n  0xa0\n  dup3\n  add\n  mload\n  dup2\n  0x05\n  add\n  sstore\n  0xc0\n  dup3\n  add\n  mload\n  dup2\n  0x06\n  add\n  sstore\n  pop\n  pop\n    /* \"Hotel.sol\":1503:1872  {... */\n  pop\n    /* \"Hotel.sol\":1104:1872  if (15 <= i && i < 25) {... */\ntag_26:\n    /* \"Hotel.sol\":706:1872  if (0 <= i && i < 15) {... */\ntag_17:\n    /* \"Hotel.sol\":687:690  i++ */\n  dup1\n  dup1\n  tag_33\n  swap1\n  tag_34\n  jump\t// in\ntag_33:\n  swap2\n  pop\n  pop\n    /* \"Hotel.sol\":666:1882  for (uint i=0; i<30; i++) {... */\n  jump(tag_4)\ntag_5:\n  pop\n    /* \"Hotel.sol\":57:3513  contract Hotel {... */\n  jump(tag_35)\n    /* \"#utility.yul\":7:187   */\ntag_11:\n    /* \"#utility.yul\":55:132   */\n  0x4e487b7100000000000000000000000000000000000000000000000000000000\n    /* \"#utility.yul\":52:53   */\n  0x00\n    /* \"#utility.yul\":45:133   */\n  mstore\n    /* \"#utility.yul\":152:156   */\n  0x21\n    /* \"#utility.yul\":149:150   */\n  0x04\n    /* \"#utility.yul\":142:157   */\n  mstore\n    /* \"#utility.yul\":176:180   */\n  0x24\n    /* \"#utility.yul\":173:174   */\n  0x00\n    /* \"#utility.yul\":166:181   */\n  revert\n    /* \"#utility.yul\":193:270   */\ntag_36:\n    /* \"#utility.yul\":230:237   */\n  0x00\n    /* \"#utility.yul\":259:264   */\n  dup2\n    /* \"#utility.yul\":248:264   */\n  swap1\n  pop\n    /* \"#utility.yul\":193:270   */\n  swap2\n  swap1\n  pop\n  jump\t// out\n    /* \"#utility.yul\":276:456   */\ntag_37:\n    /* \"#utility.yul\":324:401   */\n  0x4e487b7100000000000000000000000000000000000000000000000000000000\n    /* \"#utility.yul\":321:322   */\n  0x00\n    /* \"#utility.yul\":314:402   */\n  mstore\n    /* \"#utility.yul\":421:425   */\n  0x11\n    /* \"#utility.yul\":418:419   */\n  0x04\n    /* \"#utility.yul\":411:426   */\n  mstore\n    /* \"#utility.yul\":445:449   */\n  0x24\n    /* \"#utility.yul\":442:443   */\n  0x00\n    /* \"#utility.yul\":435:450   */\n  revert\n    /* \"#utility.yul\":462:767   */\ntag_13:\n    /* \"#utility.yul\":502:505   */\n  0x00\n    /* \"#utility.yul\":521:541   */\n  tag_43\n    /* \"#utility.yul\":539:540   */\n  dup3\n    /* \"#utility.yul\":521:541   */\n  tag_36\n  jump\t// in\ntag_43:\n    /* \"#utility.yul\":516:541   */\n  swap2\n  pop\n    /* \"#utility.yul\":555:575   */\n  tag_44\n    /* \"#utility.yul\":573:574   */\n  dup4\n    /* \"#utility.yul\":555:575   */\n  tag_36\n  jump\t// in\ntag_44:\n    /* \"#utility.yul\":550:575   */\n  swap3\n  pop\n    /* \"#utility.yul\":709:710   */\n  dup3\n    /* \"#utility.yul\":641:707   */\n  0xffffffffffffffffffffffffffffffffffffffffffffffffffffffffffffffff\n    /* \"#utility.yul\":637:711   */\n  sub\n    /* \"#utility.yul\":634:635   */\n  dup3\n    /* \"#utility.yul\":631:712   */\n  gt\n    /* \"#utility.yul\":628:735   */\n  iszero\n  tag_45\n  jumpi\n    /* \"#utility.yul\":715:733   */\n  tag_46\n  tag_37\n  jump\t// in\ntag_46:\n    /* \"#utility.yul\":628:735   */\ntag_45:\n    /* \"#utility.yul\":759:760   */\n  dup3\n    /* \"#utility.yul\":756:757   */\n  dup3\n    /* \"#utility.yul\":752:761   */\n  add\n    /* \"#utility.yul\":745:761   */\n  swap1\n  pop\n    /* \"#utility.yul\":462:767   */\n  swap3\n  swap2\n  pop\n  pop\n  jump\t// out\n    /* \"#utility.yul\":773:1006   */\ntag_34:\n    /* \"#utility.yul\":812:815   */\n  0x00\n    /* \"#utility.yul\":835:859   */\n  tag_48\n    /* \"#utility.yul\":853:858   */\n  dup3\n    /* \"#utility.yul\":835:859   */\n  tag_36\n  jump\t// in\ntag_48:\n    /* \"#utility.yul\":826:859   */\n  swap2\n  pop\n    /* \"#utility.yul\":881:947   */\n  0xffffffffffffffffffffffffffffffffffffffffffffffffffffffffffffffff\n    /* \"#utility.yul\":874:879   */\n  dup3\n    /* \"#utility.yul\":871:948   */\n  eq\n    /* \"#utility.yul\":868:971   */\n  iszero\n  tag_49\n  jumpi\n    /* \"#utility.yul\":951:969   */\n  tag_50\n  tag_37\n  jump\t// in\ntag_50:\n    /* \"#utility.yul\":868:971   */\ntag_49:\n    /* \"#utility.yul\":998:999   */\n  0x01\n    /* \"#utility.yul\":991:996   */\n  dup3\n    /* \"#utility.yul\":987:1000   */\n  add\n    /* \"#utility.yul\":980:1000   */\n  swap1\n  pop\n    /* \"#utility.yul\":773:1006   */\n  swap2\n  swap1\n  pop\n  jump\t// out\n    /* \"Hotel.sol\":57:3513  contract Hotel {... */\ntag_35:\n  dataSize(sub_0)\n  dup1\n  dataOffset(sub_0)\n  0x00\n  codecopy\n  0x00\n  return\nstop\n\nsub_0: assembly {\n        /* \"Hotel.sol\":57:3513  contract Hotel {... */\n      mstore(0x40, 0x80)\n      jumpi(tag_1, lt(calldatasize, 0x04))\n      shr(0xe0, calldataload(0x00))\n      dup1\n      0xc290d691\n      gt\n      tag_10\n      jumpi\n      dup1\n      0xc290d691\n      eq\n      tag_6\n      jumpi\n      dup1\n      0xccfb0182\n      eq\n      tag_7\n      jumpi\n      dup1\n      0xdab3a89f\n      eq\n      tag_8\n      jumpi\n      dup1\n      0xe8597493\n      eq\n      tag_9\n      jumpi\n      jump(tag_1)\n    tag_10:\n      dup1\n      0x1bae0ac8\n      eq\n      tag_2\n      jumpi\n      dup1\n      0x4c9ba852\n      eq\n      tag_3\n      jumpi\n      dup1\n      0x5f49d3d8\n      eq\n      tag_4\n      jumpi\n      dup1\n      0x6d8a74cb\n      eq\n      tag_5\n      jumpi\n    tag_1:\n      0x00\n      dup1\n      revert\n        /* \"Hotel.sol\":514:533  Room[] public rooms */\n    tag_2:\n      callvalue\n      dup1\n      iszero\n      tag_11\n      jumpi\n      0x00\n      dup1\n      revert\n    tag_11:\n      pop\n      tag_12\n      0x04\n      dup1\n      calldatasize\n      sub\n      dup2\n      add\n      swap1\n      tag_13\n      swap2\n      swap1\n      tag_14\n      jump\t// in\n    tag_13:\n      tag_15\n      jump\t// in\n    tag_12:\n      mload(0x40)\n      tag_16\n      swap8\n      swap7\n      swap6\n      swap5\n      swap4\n      swap3\n      swap2\n      swap1\n      tag_17\n      jump\t// in\n    tag_16:\n      mload(0x40)\n      dup1\n      swap2\n      sub\n      swap1\n      return\n        /* \"Hotel.sol\":2961:3235  function checkout(uint index) external {... */\n    tag_3:\n      callvalue\n      dup1\n      iszero\n      tag_18\n      jumpi\n      0x00\n      dup1\n      revert\n    tag_18:\n      pop\n      tag_19\n      0x04\n      dup1\n      calldatasize\n      sub\n      dup2\n      add\n      swap1\n      tag_20\n      swap2\n      swap1\n      tag_14\n      jump\t// in\n    tag_20:\n      tag_21\n      jump\t// in\n    tag_19:\n      stop\n        /* \"Hotel.sol\":2635:2955  function bookRoom(uint index) external returns (uint roomNumber, uint roomKey) {... */\n    tag_4:\n      callvalue\n      dup1\n      iszero\n      tag_22\n      jumpi\n      0x00\n      dup1\n      revert\n    tag_22:\n      pop\n      tag_23\n      0x04\n      dup1\n      calldatasize\n      sub\n      dup2\n      add\n      swap1\n      tag_24\n      swap2\n      swap1\n      tag_14\n      jump\t// in\n    tag_24:\n      tag_25\n      jump\t// in\n    tag_23:\n      mload(0x40)\n      tag_26\n      swap3\n      swap2\n      swap1\n      tag_27\n      jump\t// in\n    tag_26:\n      mload(0x40)\n      dup1\n      swap2\n      sub\n      swap1\n      return\n        /* \"Hotel.sol\":2115:2535  function getRoom(uint index) external view returns (uint price, RoomType typeOfRoom, uint roomNumber, bool occupied, uint start, uint end, uint owing) {... */\n    tag_5:\n      callvalue\n      dup1\n      iszero\n      tag_28\n      jumpi\n      0x00\n      dup1\n      revert\n    tag_28:\n      pop\n      tag_29\n      0x04\n      dup1\n      calldatasize\n      sub\n      dup2\n      add\n      swap1\n      tag_30\n      swap2\n      swap1\n      tag_14\n      jump\t// in\n    tag_30:\n      tag_31\n      jump\t// in\n    tag_29:\n      mload(0x40)\n      tag_32\n      swap8\n      swap7\n      swap6\n      swap5\n      swap4\n      swap3\n      swap2\n      swap1\n      tag_17\n      jump\t// in\n    tag_32:\n      mload(0x40)\n      dup1\n      swap2\n      sub\n      swap1\n      return\n        /* \"Hotel.sol\":3241:3511  function pay(uint index) external payable {... */\n    tag_6:\n      tag_33\n      0x04\n      dup1\n      calldatasize\n      sub\n      dup2\n      add\n      swap1\n      tag_34\n      swap2\n      swap1\n      tag_14\n      jump\t// in\n    tag_34:\n      tag_35\n      jump\t// in\n    tag_33:\n      stop\n        /* \"Hotel.sol\":407:438  uint public numberOfDoubleRooms */\n    tag_7:\n      callvalue\n      dup1\n      iszero\n      tag_36\n      jumpi\n      0x00\n      dup1\n      revert\n    tag_36:\n      pop\n      tag_37\n      tag_38\n      jump\t// in\n    tag_37:\n      mload(0x40)\n      tag_39\n      swap2\n      swap1\n      tag_40\n      jump\t// in\n    tag_39:\n      mload(0x40)\n      dup1\n      swap2\n      sub\n      swap1\n      return\n        /* \"Hotel.sol\":335:366  uint public numberOfSingleRooms */\n    tag_8:\n      callvalue\n      dup1\n      iszero\n      tag_41\n      jumpi\n      0x00\n      dup1\n      revert\n    tag_41:\n      pop\n      tag_42\n      tag_43\n      jump\t// in\n    tag_42:\n      mload(0x40)\n      tag_44\n      swap2\n      swap1\n      tag_40\n      jump\t// in\n    tag_44:\n      mload(0x40)\n      dup1\n      swap2\n      sub\n      swap1\n      return\n        /* \"Hotel.sol\":478:508  uint public numberOfSuiteRooms */\n    tag_9:\n      callvalue\n      dup1\n      iszero\n      tag_45\n      jumpi\n      0x00\n      dup1\n      revert\n    tag_45:\n      pop\n      tag_46\n      tag_47\n      jump\t// in\n    tag_46:\n      mload(0x40)\n      tag_48\n      swap2\n      swap1\n      tag_40\n      jump\t// in\n    tag_48:\n      mload(0x40)\n      dup1\n      swap2\n      sub\n      swap1\n      return\n        /* \"Hotel.sol\":514:533  Room[] public rooms */\n    tag_15:\n      0x03\n      dup2\n      dup2\n      sload\n      dup2\n      lt\n      tag_49\n      jumpi\n      0x00\n      dup1\n      revert\n    tag_49:\n      swap1\n      0x00\n      mstore\n      keccak256(0x00, 0x20)\n      swap1\n      0x07\n      mul\n      add\n      0x00\n      swap2\n      pop\n      swap1\n      pop\n      dup1\n      0x00\n      add\n      sload\n      swap1\n      dup1\n      0x01\n      add\n      0x00\n      swap1\n      sload\n      swap1\n      0x0100\n      exp\n      swap1\n      div\n      0xff\n      and\n      swap1\n      dup1\n      0x02\n      add\n      sload\n      swap1\n      dup1\n      0x03\n      add\n      0x00\n      swap1\n      sload\n      swap1\n      0x0100\n      exp\n      swap1\n      div\n      0xff\n      and\n      swap1\n      dup1\n      0x04\n      add\n      sload\n      swap1\n      dup1\n      0x05\n      add\n      sload\n      swap1\n      dup1\n      0x06\n      add\n      sload\n      swap1\n      pop\n      dup8\n      jump\t// out\n        /* \"Hotel.sol\":2961:3235  function checkout(uint index) external {... */\n    tag_21:\n        /* \"Hotel.sol\":3029:3044  block.timestamp */\n      timestamp\n        /* \"Hotel.sol\":3010:3015  rooms */\n      0x03\n        /* \"Hotel.sol\":3016:3021  index */\n      dup3\n        /* \"Hotel.sol\":3010:3022  rooms[index] */\n      dup2\n      sload\n      dup2\n      lt\n      tag_52\n      jumpi\n      tag_53\n      tag_54\n      jump\t// in\n    tag_53:\n    tag_52:\n      swap1\n      0x00\n      mstore\n      keccak256(0x00, 0x20)\n      swap1\n      0x07\n      mul\n      add\n        /* \"Hotel.sol\":3010:3026  rooms[index].end */\n      0x05\n      add\n        /* \"Hotel.sol\":3010:3044  rooms[index].end = block.timestamp */\n      dup2\n      swap1\n      sstore\n      pop\n        /* \"Hotel.sol\":3055:3078  uint numberOfDaysStayed */\n      0x00\n        /* \"Hotel.sol\":3123:3129  1 days */\n      0x015180\n        /* \"Hotel.sol\":3101:3106  rooms */\n      0x03\n        /* \"Hotel.sol\":3107:3112  index */\n      dup4\n        /* \"Hotel.sol\":3101:3113  rooms[index] */\n      dup2\n      sload\n      dup2\n      lt\n      tag_56\n      jumpi\n      tag_57\n      tag_54\n      jump\t// in\n    tag_57:\n    tag_56:\n      swap1\n      0x00\n      mstore\n      keccak256(0x00, 0x20)\n      swap1\n      0x07\n      mul\n      add\n        /* \"Hotel.sol\":3101:3119  rooms[index].start */\n      0x04\n      add\n      sload\n        /* \"Hotel.sol\":3082:3087  rooms */\n      0x03\n        /* \"Hotel.sol\":3088:3093  index */\n      dup5\n        /* \"Hotel.sol\":3082:3094  rooms[index] */\n      dup2\n      sload\n      dup2\n      lt\n      tag_59\n      jumpi\n      tag_60\n      tag_54\n      jump\t// in\n    tag_60:\n    tag_59:\n      swap1\n      0x00\n      mstore\n      keccak256(0x00, 0x20)\n      swap1\n      0x07\n      mul\n      add\n        /* \"Hotel.sol\":3082:3098  rooms[index].end */\n      0x05\n      add\n      sload\n        /* \"Hotel.sol\":3082:3119  rooms[index].end - rooms[index].start */\n      tag_62\n      swap2\n      swap1\n      tag_63\n      jump\t// in\n    tag_62:\n        /* \"Hotel.sol\":3081:3129  (rooms[index].end - rooms[index].start) / 1 days */\n      tag_64\n      swap2\n      swap1\n      tag_65\n      jump\t// in\n    tag_64:\n        /* \"Hotel.sol\":3055:3129  uint numberOfDaysStayed = (rooms[index].end - rooms[index].start) / 1 days */\n      swap1\n      pop\n        /* \"Hotel.sol\":3139:3149  uint total */\n      0x00\n        /* \"Hotel.sol\":3173:3191  numberOfDaysStayed */\n      dup2\n        /* \"Hotel.sol\":3152:3157  rooms */\n      0x03\n        /* \"Hotel.sol\":3158:3163  index */\n      dup5\n        /* \"Hotel.sol\":3152:3164  rooms[index] */\n      dup2\n      sload\n      dup2\n      lt\n      tag_66\n      jumpi\n      tag_67\n      tag_54\n      jump\t// in\n    tag_67:\n    tag_66:\n      swap1\n      0x00\n      mstore\n      keccak256(0x00, 0x20)\n      swap1\n      0x07\n      mul\n      add\n        /* \"Hotel.sol\":3152:3170  rooms[index].price */\n      0x00\n      add\n      sload\n        /* \"Hotel.sol\":3152:3191  rooms[index].price * numberOfDaysStayed */\n      tag_69\n      swap2\n      swap1\n      tag_70\n      jump\t// in\n    tag_69:\n        /* \"Hotel.sol\":3139:3191  uint total = rooms[index].price * numberOfDaysStayed */\n      swap1\n      pop\n        /* \"Hotel.sol\":3223:3228  total */\n      dup1\n        /* \"Hotel.sol\":3202:3207  rooms */\n      0x03\n        /* \"Hotel.sol\":3208:3213  index */\n      dup5\n        /* \"Hotel.sol\":3202:3214  rooms[index] */\n      dup2\n      sload\n      dup2\n      lt\n      tag_71\n      jumpi\n      tag_72\n      tag_54\n      jump\t// in\n    tag_72:\n    tag_71:\n      swap1\n      0x00\n      mstore\n      keccak256(0x00, 0x20)\n      swap1\n      0x07\n      mul\n      add\n        /* \"Hotel.sol\":3202:3220  rooms[index].owing */\n      0x06\n      add\n        /* \"Hotel.sol\":3202:3228  rooms[index].owing = total */\n      dup2\n      swap1\n      sstore\n      pop\n        /* \"Hotel.sol\":3000:3235  {... */\n      pop\n      pop\n        /* \"Hotel.sol\":2961:3235  function checkout(uint index) external {... */\n      pop\n      jump\t// out\n        /* \"Hotel.sol\":2635:2955  function bookRoom(uint index) external returns (uint roomNumber, uint roomKey) {... */\n    tag_25:\n        /* \"Hotel.sol\":2683:2698  uint roomNumber */\n      0x00\n        /* \"Hotel.sol\":2700:2712  uint roomKey */\n      dup1\n        /* \"Hotel.sol\":2748:2752  true */\n      0x01\n        /* \"Hotel.sol\":2724:2729  rooms */\n      0x03\n        /* \"Hotel.sol\":2730:2735  index */\n      dup5\n        /* \"Hotel.sol\":2724:2736  rooms[index] */\n      dup2\n      sload\n      dup2\n      lt\n      tag_75\n      jumpi\n      tag_76\n      tag_54\n      jump\t// in\n    tag_76:\n    tag_75:\n      swap1\n      0x00\n      mstore\n      keccak256(0x00, 0x20)\n      swap1\n      0x07\n      mul\n      add\n        /* \"Hotel.sol\":2724:2745  rooms[index].occupied */\n      0x03\n      add\n      0x00\n        /* \"Hotel.sol\":2724:2752  rooms[index].occupied = true */\n      0x0100\n      exp\n      dup2\n      sload\n      dup2\n      0xff\n      mul\n      not\n      and\n      swap1\n      dup4\n      iszero\n      iszero\n      mul\n      or\n      swap1\n      sstore\n      pop\n        /* \"Hotel.sol\":2783:2798  block.timestamp */\n      timestamp\n        /* \"Hotel.sol\":2762:2767  rooms */\n      0x03\n        /* \"Hotel.sol\":2768:2773  index */\n      dup5\n        /* \"Hotel.sol\":2762:2774  rooms[index] */\n      dup2\n      sload\n      dup2\n      lt\n      tag_78\n      jumpi\n      tag_79\n      tag_54\n      jump\t// in\n    tag_79:\n    tag_78:\n      swap1\n      0x00\n      mstore\n      keccak256(0x00, 0x20)\n      swap1\n      0x07\n      mul\n      add\n        /* \"Hotel.sol\":2762:2780  rooms[index].start */\n      0x04\n      add\n        /* \"Hotel.sol\":2762:2798  rooms[index].start = block.timestamp */\n      dup2\n      swap1\n      sstore\n      pop\n        /* \"Hotel.sol\":2830:2831  1 */\n      0x01\n        /* \"Hotel.sol\":2822:2827  index */\n      dup4\n        /* \"Hotel.sol\":2822:2831  index + 1 */\n      tag_81\n      swap2\n      swap1\n      tag_82\n      jump\t// in\n    tag_81:\n        /* \"Hotel.sol\":2809:2831  roomNumber = index + 1 */\n      swap2\n      pop\n        /* \"Hotel.sol\":2883:2888  rooms */\n      0x03\n        /* \"Hotel.sol\":2889:2894  index */\n      dup4\n        /* \"Hotel.sol\":2883:2895  rooms[index] */\n      dup2\n      sload\n      dup2\n      lt\n      tag_83\n      jumpi\n      tag_84\n      tag_54\n      jump\t// in\n    tag_84:\n    tag_83:\n      swap1\n      0x00\n      mstore\n      keccak256(0x00, 0x20)\n      swap1\n      0x07\n      mul\n      add\n        /* \"Hotel.sol\":2883:2906  rooms[index].roomNumber */\n      0x02\n      add\n      sload\n        /* \"Hotel.sol\":2866:2907  abi.encodePacked(rooms[index].roomNumber) */\n      add(0x20, mload(0x40))\n      tag_86\n      swap2\n      swap1\n      tag_87\n      jump\t// in\n    tag_86:\n      mload(0x40)\n      0x20\n      dup2\n      dup4\n      sub\n      sub\n      dup2\n      mstore\n      swap1\n      0x40\n      mstore\n        /* \"Hotel.sol\":2856:2908  keccak256(abi.encodePacked(rooms[index].roomNumber)) */\n      dup1\n      mload\n      swap1\n      0x20\n      add\n      keccak256\n        /* \"Hotel.sol\":2851:2909  uint(keccak256(abi.encodePacked(rooms[index].roomNumber))) */\n      0x00\n      shr\n        /* \"Hotel.sol\":2841:2909  roomKey = uint(keccak256(abi.encodePacked(rooms[index].roomNumber))) */\n      swap1\n      pop\n        /* \"Hotel.sol\":2635:2955  function bookRoom(uint index) external returns (uint roomNumber, uint roomKey) {... */\n      swap2\n      pop\n      swap2\n      jump\t// out\n        /* \"Hotel.sol\":2115:2535  function getRoom(uint index) external view returns (uint price, RoomType typeOfRoom, uint roomNumber, bool occupied, uint start, uint end, uint owing) {... */\n    tag_31:\n        /* \"Hotel.sol\":2167:2177  uint price */\n      0x00\n        /* \"Hotel.sol\":2179:2198  RoomType typeOfRoom */\n      dup1\n        /* \"Hotel.sol\":2200:2215  uint roomNumber */\n      0x00\n        /* \"Hotel.sol\":2217:2230  bool occupied */\n      dup1\n        /* \"Hotel.sol\":2232:2242  uint start */\n      0x00\n        /* \"Hotel.sol\":2244:2252  uint end */\n      dup1\n        /* \"Hotel.sol\":2254:2264  uint owing */\n      0x00\n        /* \"Hotel.sol\":2297:2302  rooms */\n      0x03\n        /* \"Hotel.sol\":2303:2308  index */\n      dup9\n        /* \"Hotel.sol\":2297:2309  rooms[index] */\n      dup2\n      sload\n      dup2\n      lt\n      tag_89\n      jumpi\n      tag_90\n      tag_54\n      jump\t// in\n    tag_90:\n    tag_89:\n      swap1\n      0x00\n      mstore\n      keccak256(0x00, 0x20)\n      swap1\n      0x07\n      mul\n      add\n        /* \"Hotel.sol\":2297:2315  rooms[index].price */\n      0x00\n      add\n      sload\n        /* \"Hotel.sol\":2329:2334  rooms */\n      0x03\n        /* \"Hotel.sol\":2335:2340  index */\n      dup10\n        /* \"Hotel.sol\":2329:2341  rooms[index] */\n      dup2\n      sload\n      dup2\n      lt\n      tag_92\n      jumpi\n      tag_93\n      tag_54\n      jump\t// in\n    tag_93:\n    tag_92:\n      swap1\n      0x00\n      mstore\n      keccak256(0x00, 0x20)\n      swap1\n      0x07\n      mul\n      add\n        /* \"Hotel.sol\":2329:2352  rooms[index].typeOfRoom */\n      0x01\n      add\n      0x00\n      swap1\n      sload\n      swap1\n      0x0100\n      exp\n      swap1\n      div\n      0xff\n      and\n        /* \"Hotel.sol\":2366:2371  rooms */\n      0x03\n        /* \"Hotel.sol\":2372:2377  index */\n      dup11\n        /* \"Hotel.sol\":2366:2378  rooms[index] */\n      dup2\n      sload\n      dup2\n      lt\n      tag_95\n      jumpi\n      tag_96\n      tag_54\n      jump\t// in\n    tag_96:\n    tag_95:\n      swap1\n      0x00\n      mstore\n      keccak256(0x00, 0x20)\n      swap1\n      0x07\n      mul\n      add\n        /* \"Hotel.sol\":2366:2389  rooms[index].roomNumber */\n      0x02\n      add\n      sload\n        /* \"Hotel.sol\":2403:2408  rooms */\n      0x03\n        /* \"Hotel.sol\":2409:2414  index */\n      dup12\n        /* \"Hotel.sol\":2403:2415  rooms[index] */\n      dup2\n      sload\n      dup2\n      lt\n      tag_98\n      jumpi\n      tag_99\n      tag_54\n      jump\t// in\n    tag_99:\n    tag_98:\n      swap1\n      0x00\n      mstore\n      keccak256(0x00, 0x20)\n      swap1\n      0x07\n      mul\n      add\n        /* \"Hotel.sol\":2403:2424  rooms[index].occupied */\n      0x03\n      add\n      0x00\n      swap1\n      sload\n      swap1\n      0x0100\n      exp\n      swap1\n      div\n      0xff\n      and\n        /* \"Hotel.sol\":2438:2443  rooms */\n      0x03\n        /* \"Hotel.sol\":2444:2449  index */\n      dup13\n        /* \"Hotel.sol\":2438:2450  rooms[index] */\n      dup2\n      sload\n      dup2\n      lt\n      tag_101\n      jumpi\n      tag_102\n      tag_54\n      jump\t// in\n    tag_102:\n    tag_101:\n      swap1\n      0x00\n      mstore\n      keccak256(0x00, 0x20)\n      swap1\n      0x07\n      mul\n      add\n        /* \"Hotel.sol\":2438:2456  rooms[index].start */\n      0x04\n      add\n      sload\n        /* \"Hotel.sol\":2470:2475  rooms */\n      0x03\n        /* \"Hotel.sol\":2476:2481  index */\n      dup14\n        /* \"Hotel.sol\":2470:2482  rooms[index] */\n      dup2\n      sload\n      dup2\n      lt\n      tag_104\n      jumpi\n      tag_105\n      tag_54\n      jump\t// in\n    tag_105:\n    tag_104:\n      swap1\n      0x00\n      mstore\n      keccak256(0x00, 0x20)\n      swap1\n      0x07\n      mul\n      add\n        /* \"Hotel.sol\":2470:2486  rooms[index].end */\n      0x05\n      add\n      sload\n        /* \"Hotel.sol\":2500:2505  rooms */\n      0x03\n        /* \"Hotel.sol\":2506:2511  index */\n      dup15\n        /* \"Hotel.sol\":2500:2512  rooms[index] */\n      dup2\n      sload\n      dup2\n      lt\n      tag_107\n      jumpi\n      tag_108\n      tag_54\n      jump\t// in\n    tag_108:\n    tag_107:\n      swap1\n      0x00\n      mstore\n      keccak256(0x00, 0x20)\n      swap1\n      0x07\n      mul\n      add\n        /* \"Hotel.sol\":2500:2518  rooms[index].owing */\n      0x06\n      add\n      sload\n        /* \"Hotel.sol\":2276:2528  return (... */\n      swap7\n      pop\n      swap7\n      pop\n      swap7\n      pop\n      swap7\n      pop\n      swap7\n      pop\n      swap7\n      pop\n      swap7\n      pop\n        /* \"Hotel.sol\":2115:2535  function getRoom(uint index) external view returns (uint price, RoomType typeOfRoom, uint roomNumber, bool occupied, uint start, uint end, uint owing) {... */\n      swap2\n      swap4\n      swap6\n      swap8\n      swap1\n      swap3\n      swap5\n      swap7\n      pop\n      jump\t// out\n        /* \"Hotel.sol\":3241:3511  function pay(uint index) external payable {... */\n    tag_35:\n        /* \"Hotel.sol\":3314:3319  rooms */\n      0x03\n        /* \"Hotel.sol\":3320:3325  index */\n      dup2\n        /* \"Hotel.sol\":3314:3326  rooms[index] */\n      dup2\n      sload\n      dup2\n      lt\n      tag_111\n      jumpi\n      tag_112\n      tag_54\n      jump\t// in\n    tag_112:\n    tag_111:\n      swap1\n      0x00\n      mstore\n      keccak256(0x00, 0x20)\n      swap1\n      0x07\n      mul\n      add\n        /* \"Hotel.sol\":3314:3332  rooms[index].owing */\n      0x06\n      add\n      sload\n        /* \"Hotel.sol\":3301:3310  msg.value */\n      callvalue\n        /* \"Hotel.sol\":3301:3332  msg.value == rooms[index].owing */\n      eq\n        /* \"Hotel.sol\":3293:3371  require(msg.value == rooms[index].owing, \"You did not pay the correct amount\") */\n      tag_114\n      jumpi\n      mload(0x40)\n      0x08c379a000000000000000000000000000000000000000000000000000000000\n      dup2\n      mstore\n      0x04\n      add\n      tag_115\n      swap1\n      tag_116\n      jump\t// in\n    tag_115:\n      mload(0x40)\n      dup1\n      swap2\n      sub\n      swap1\n      revert\n    tag_114:\n        /* \"Hotel.sol\":3405:3410  false */\n      0x00\n        /* \"Hotel.sol\":3381:3386  rooms */\n      0x03\n        /* \"Hotel.sol\":3387:3392  index */\n      dup3\n        /* \"Hotel.sol\":3381:3393  rooms[index] */\n      dup2\n      sload\n      dup2\n      lt\n      tag_117\n      jumpi\n      tag_118\n      tag_54\n      jump\t// in\n    tag_118:\n    tag_117:\n      swap1\n      0x00\n      mstore\n      keccak256(0x00, 0x20)\n      swap1\n      0x07\n      mul\n      add\n        /* \"Hotel.sol\":3381:3402  rooms[index].occupied */\n      0x03\n      add\n      0x00\n        /* \"Hotel.sol\":3381:3410  rooms[index].occupied = false */\n      0x0100\n      exp\n      dup2\n      sload\n      dup2\n      0xff\n      mul\n      not\n      and\n      swap1\n      dup4\n      iszero\n      iszero\n      mul\n      or\n      swap1\n      sstore\n      pop\n        /* \"Hotel.sol\":3441:3442  0 */\n      0x00\n        /* \"Hotel.sol\":3420:3425  rooms */\n      0x03\n        /* \"Hotel.sol\":3426:3431  index */\n      dup3\n        /* \"Hotel.sol\":3420:3432  rooms[index] */\n      dup2\n      sload\n      dup2\n      lt\n      tag_120\n      jumpi\n      tag_121\n      tag_54\n      jump\t// in\n    tag_121:\n    tag_120:\n      swap1\n      0x00\n      mstore\n      keccak256(0x00, 0x20)\n      swap1\n      0x07\n      mul\n      add\n        /* \"Hotel.sol\":3420:3438  rooms[index].start */\n      0x04\n      add\n        /* \"Hotel.sol\":3420:3442  rooms[index].start = 0 */\n      dup2\n      swap1\n      sstore\n      pop\n        /* \"Hotel.sol\":3471:3472  0 */\n      0x00\n        /* \"Hotel.sol\":3452:3457  rooms */\n      0x03\n        /* \"Hotel.sol\":3458:3463  index */\n      dup3\n        /* \"Hotel.sol\":3452:3464  rooms[index] */\n      dup2\n      sload\n      dup2\n      lt\n      tag_123\n      jumpi\n      tag_124\n      tag_54\n      jump\t// in\n    tag_124:\n    tag_123:\n      swap1\n      0x00\n      mstore\n      keccak256(0x00, 0x20)\n      swap1\n      0x07\n      mul\n      add\n        /* \"Hotel.sol\":3452:3468  rooms[index].end */\n      0x05\n      add\n        /* \"Hotel.sol\":3452:3472  rooms[index].end = 0 */\n      dup2\n      swap1\n      sstore\n      pop\n        /* \"Hotel.sol\":3503:3504  0 */\n      0x00\n        /* \"Hotel.sol\":3482:3487  rooms */\n      0x03\n        /* \"Hotel.sol\":3488:3493  index */\n      dup3\n        /* \"Hotel.sol\":3482:3494  rooms[index] */\n      dup2\n      sload\n      dup2\n      lt\n      tag_126\n      jumpi\n      tag_127\n      tag_54\n      jump\t// in\n    tag_127:\n    tag_126:\n      swap1\n      0x00\n      mstore\n      keccak256(0x00, 0x20)\n      swap1\n      0x07\n      mul\n      add\n        /* \"Hotel.sol\":3482:3500  rooms[index].owing */\n      0x06\n      add\n        /* \"Hotel.sol\":3482:3504  rooms[index].owing = 0 */\n      dup2\n      swap1\n      sstore\n      pop\n        /* \"Hotel.sol\":3241:3511  function pay(uint index) external payable {... */\n      pop\n      jump\t// out\n        /* \"Hotel.sol\":407:438  uint public numberOfDoubleRooms */\n    tag_38:\n      sload(0x01)\n      dup2\n      jump\t// out\n        /* \"Hotel.sol\":335:366  uint public numberOfSingleRooms */\n    tag_43:\n      sload(0x00)\n      dup2\n      jump\t// out\n        /* \"Hotel.sol\":478:508  uint public numberOfSuiteRooms */\n    tag_47:\n      sload(0x02)\n      dup2\n      jump\t// out\n        /* \"#utility.yul\":88:205   */\n    tag_130:\n        /* \"#utility.yul\":197:198   */\n      0x00\n        /* \"#utility.yul\":194:195   */\n      dup1\n        /* \"#utility.yul\":187:199   */\n      revert\n        /* \"#utility.yul\":334:411   */\n    tag_132:\n        /* \"#utility.yul\":371:378   */\n      0x00\n        /* \"#utility.yul\":400:405   */\n      dup2\n        /* \"#utility.yul\":389:405   */\n      swap1\n      pop\n        /* \"#utility.yul\":334:411   */\n      swap2\n      swap1\n      pop\n      jump\t// out\n        /* \"#utility.yul\":417:539   */\n    tag_133:\n        /* \"#utility.yul\":490:514   */\n      tag_156\n        /* \"#utility.yul\":508:513   */\n      dup2\n        /* \"#utility.yul\":490:514   */\n      tag_132\n      jump\t// in\n    tag_156:\n        /* \"#utility.yul\":483:488   */\n      dup2\n        /* \"#utility.yul\":480:515   */\n      eq\n        /* \"#utility.yul\":470:533   */\n      tag_157\n      jumpi\n        /* \"#utility.yul\":529:530   */\n      0x00\n        /* \"#utility.yul\":526:527   */\n      dup1\n        /* \"#utility.yul\":519:531   */\n      revert\n        /* \"#utility.yul\":470:533   */\n    tag_157:\n        /* \"#utility.yul\":417:539   */\n      pop\n      jump\t// out\n        /* \"#utility.yul\":545:684   */\n    tag_134:\n        /* \"#utility.yul\":591:596   */\n      0x00\n        /* \"#utility.yul\":629:635   */\n      dup2\n        /* \"#utility.yul\":616:636   */\n      calldataload\n        /* \"#utility.yul\":607:636   */\n      swap1\n      pop\n        /* \"#utility.yul\":645:678   */\n      tag_159\n        /* \"#utility.yul\":672:677   */\n      dup2\n        /* \"#utility.yul\":645:678   */\n      tag_133\n      jump\t// in\n    tag_159:\n        /* \"#utility.yul\":545:684   */\n      swap3\n      swap2\n      pop\n      pop\n      jump\t// out\n        /* \"#utility.yul\":690:1019   */\n    tag_14:\n        /* \"#utility.yul\":749:755   */\n      0x00\n        /* \"#utility.yul\":798:800   */\n      0x20\n        /* \"#utility.yul\":786:795   */\n      dup3\n        /* \"#utility.yul\":777:784   */\n      dup5\n        /* \"#utility.yul\":773:796   */\n      sub\n        /* \"#utility.yul\":769:801   */\n      slt\n        /* \"#utility.yul\":766:885   */\n      iszero\n      tag_161\n      jumpi\n        /* \"#utility.yul\":804:883   */\n      tag_162\n      tag_130\n      jump\t// in\n    tag_162:\n        /* \"#utility.yul\":766:885   */\n    tag_161:\n        /* \"#utility.yul\":924:925   */\n      0x00\n        /* \"#utility.yul\":949:1002   */\n      tag_163\n        /* \"#utility.yul\":994:1001   */\n      dup5\n        /* \"#utility.yul\":985:991   */\n      dup3\n        /* \"#utility.yul\":974:983   */\n      dup6\n        /* \"#utility.yul\":970:992   */\n      add\n        /* \"#utility.yul\":949:1002   */\n      tag_134\n      jump\t// in\n    tag_163:\n        /* \"#utility.yul\":939:1002   */\n      swap2\n      pop\n        /* \"#utility.yul\":895:1012   */\n      pop\n        /* \"#utility.yul\":690:1019   */\n      swap3\n      swap2\n      pop\n      pop\n      jump\t// out\n        /* \"#utility.yul\":1025:1143   */\n    tag_135:\n        /* \"#utility.yul\":1112:1136   */\n      tag_165\n        /* \"#utility.yul\":1130:1135   */\n      dup2\n        /* \"#utility.yul\":1112:1136   */\n      tag_132\n      jump\t// in\n    tag_165:\n        /* \"#utility.yul\":1107:1110   */\n      dup3\n        /* \"#utility.yul\":1100:1137   */\n      mstore\n        /* \"#utility.yul\":1025:1143   */\n      pop\n      pop\n      jump\t// out\n        /* \"#utility.yul\":1149:1329   */\n    tag_136:\n        /* \"#utility.yul\":1197:1274   */\n      0x4e487b7100000000000000000000000000000000000000000000000000000000\n        /* \"#utility.yul\":1194:1195   */\n      0x00\n        /* \"#utility.yul\":1187:1275   */\n      mstore\n        /* \"#utility.yul\":1294:1298   */\n      0x21\n        /* \"#utility.yul\":1291:1292   */\n      0x04\n        /* \"#utility.yul\":1284:1299   */\n      mstore\n        /* \"#utility.yul\":1318:1322   */\n      0x24\n        /* \"#utility.yul\":1315:1316   */\n      0x00\n        /* \"#utility.yul\":1308:1323   */\n      revert\n        /* \"#utility.yul\":1335:1450   */\n    tag_137:\n        /* \"#utility.yul\":1418:1419   */\n      0x03\n        /* \"#utility.yul\":1411:1416   */\n      dup2\n        /* \"#utility.yul\":1408:1420   */\n      lt\n        /* \"#utility.yul\":1398:1444   */\n      tag_168\n      jumpi\n        /* \"#utility.yul\":1424:1442   */\n      tag_169\n      tag_136\n      jump\t// in\n    tag_169:\n        /* \"#utility.yul\":1398:1444   */\n    tag_168:\n        /* \"#utility.yul\":1335:1450   */\n      pop\n      jump\t// out\n        /* \"#utility.yul\":1456:1587   */\n    tag_138:\n        /* \"#utility.yul\":1503:1510   */\n      0x00\n        /* \"#utility.yul\":1532:1537   */\n      dup2\n        /* \"#utility.yul\":1521:1537   */\n      swap1\n      pop\n        /* \"#utility.yul\":1538:1581   */\n      tag_171\n        /* \"#utility.yul\":1575:1580   */\n      dup3\n        /* \"#utility.yul\":1538:1581   */\n      tag_137\n      jump\t// in\n    tag_171:\n        /* \"#utility.yul\":1456:1587   */\n      swap2\n      swap1\n      pop\n      jump\t// out\n        /* \"#utility.yul\":1593:1724   */\n    tag_139:\n        /* \"#utility.yul\":1651:1660   */\n      0x00\n        /* \"#utility.yul\":1684:1718   */\n      tag_173\n        /* \"#utility.yul\":1712:1717   */\n      dup3\n        /* \"#utility.yul\":1684:1718   */\n      tag_138\n      jump\t// in\n    tag_173:\n        /* \"#utility.yul\":1671:1718   */\n      swap1\n      pop\n        /* \"#utility.yul\":1593:1724   */\n      swap2\n      swap1\n      pop\n      jump\t// out\n        /* \"#utility.yul\":1730:1877   */\n    tag_140:\n        /* \"#utility.yul\":1825:1870   */\n      tag_175\n        /* \"#utility.yul\":1864:1869   */\n      dup2\n        /* \"#utility.yul\":1825:1870   */\n      tag_139\n      jump\t// in\n    tag_175:\n        /* \"#utility.yul\":1820:1823   */\n      dup3\n        /* \"#utility.yul\":1813:1871   */\n      mstore\n        /* \"#utility.yul\":1730:1877   */\n      pop\n      pop\n      jump\t// out\n        /* \"#utility.yul\":1883:1973   */\n    tag_141:\n        /* \"#utility.yul\":1917:1924   */\n      0x00\n        /* \"#utility.yul\":1960:1965   */\n      dup2\n        /* \"#utility.yul\":1953:1966   */\n      iszero\n        /* \"#utility.yul\":1946:1967   */\n      iszero\n        /* \"#utility.yul\":1935:1967   */\n      swap1\n      pop\n        /* \"#utility.yul\":1883:1973   */\n      swap2\n      swap1\n      pop\n      jump\t// out\n        /* \"#utility.yul\":1979:2088   */\n    tag_142:\n        /* \"#utility.yul\":2060:2081   */\n      tag_178\n        /* \"#utility.yul\":2075:2080   */\n      dup2\n        /* \"#utility.yul\":2060:2081   */\n      tag_141\n      jump\t// in\n    tag_178:\n        /* \"#utility.yul\":2055:2058   */\n      dup3\n        /* \"#utility.yul\":2048:2082   */\n      mstore\n        /* \"#utility.yul\":1979:2088   */\n      pop\n      pop\n      jump\t// out\n        /* \"#utility.yul\":2094:2984   */\n    tag_17:\n        /* \"#utility.yul\":2357:2361   */\n      0x00\n        /* \"#utility.yul\":2395:2398   */\n      0xe0\n        /* \"#utility.yul\":2384:2393   */\n      dup3\n        /* \"#utility.yul\":2380:2399   */\n      add\n        /* \"#utility.yul\":2372:2399   */\n      swap1\n      pop\n        /* \"#utility.yul\":2409:2480   */\n      tag_180\n        /* \"#utility.yul\":2477:2478   */\n      0x00\n        /* \"#utility.yul\":2466:2475   */\n      dup4\n        /* \"#utility.yul\":2462:2479   */\n      add\n        /* \"#utility.yul\":2453:2459   */\n      dup11\n        /* \"#utility.yul\":2409:2480   */\n      tag_135\n      jump\t// in\n    tag_180:\n        /* \"#utility.yul\":2490:2570   */\n      tag_181\n        /* \"#utility.yul\":2566:2568   */\n      0x20\n        /* \"#utility.yul\":2555:2564   */\n      dup4\n        /* \"#utility.yul\":2551:2569   */\n      add\n        /* \"#utility.yul\":2542:2548   */\n      dup10\n        /* \"#utility.yul\":2490:2570   */\n      tag_140\n      jump\t// in\n    tag_181:\n        /* \"#utility.yul\":2580:2652   */\n      tag_182\n        /* \"#utility.yul\":2648:2650   */\n      0x40\n        /* \"#utility.yul\":2637:2646   */\n      dup4\n        /* \"#utility.yul\":2633:2651   */\n      add\n        /* \"#utility.yul\":2624:2630   */\n      dup9\n        /* \"#utility.yul\":2580:2652   */\n      tag_135\n      jump\t// in\n    tag_182:\n        /* \"#utility.yul\":2662:2728   */\n      tag_183\n        /* \"#utility.yul\":2724:2726   */\n      0x60\n        /* \"#utility.yul\":2713:2722   */\n      dup4\n        /* \"#utility.yul\":2709:2727   */\n      add\n        /* \"#utility.yul\":2700:2706   */\n      dup8\n        /* \"#utility.yul\":2662:2728   */\n      tag_142\n      jump\t// in\n    tag_183:\n        /* \"#utility.yul\":2738:2811   */\n      tag_184\n        /* \"#utility.yul\":2806:2809   */\n      0x80\n        /* \"#utility.yul\":2795:2804   */\n      dup4\n        /* \"#utility.yul\":2791:2810   */\n      add\n        /* \"#utility.yul\":2782:2788   */\n      dup7\n        /* \"#utility.yul\":2738:2811   */\n      tag_135\n      jump\t// in\n    tag_184:\n        /* \"#utility.yul\":2821:2894   */\n      tag_185\n        /* \"#utility.yul\":2889:2892   */\n      0xa0\n        /* \"#utility.yul\":2878:2887   */\n      dup4\n        /* \"#utility.yul\":2874:2893   */\n      add\n        /* \"#utility.yul\":2865:2871   */\n      dup6\n        /* \"#utility.yul\":2821:2894   */\n      tag_135\n      jump\t// in\n    tag_185:\n        /* \"#utility.yul\":2904:2977   */\n      tag_186\n        /* \"#utility.yul\":2972:2975   */\n      0xc0\n        /* \"#utility.yul\":2961:2970   */\n      dup4\n        /* \"#utility.yul\":2957:2976   */\n      add\n        /* \"#utility.yul\":2948:2954   */\n      dup5\n        /* \"#utility.yul\":2904:2977   */\n      tag_135\n      jump\t// in\n    tag_186:\n        /* \"#utility.yul\":2094:2984   */\n      swap9\n      swap8\n      pop\n      pop\n      pop\n      pop\n      pop\n      pop\n      pop\n      pop\n      jump\t// out\n        /* \"#utility.yul\":2990:3322   */\n    tag_27:\n        /* \"#utility.yul\":3111:3115   */\n      0x00\n        /* \"#utility.yul\":3149:3151   */\n      0x40\n        /* \"#utility.yul\":3138:3147   */\n      dup3\n        /* \"#utility.yul\":3134:3152   */\n      add\n        /* \"#utility.yul\":3126:3152   */\n      swap1\n      pop\n        /* \"#utility.yul\":3162:3233   */\n      tag_188\n        /* \"#utility.yul\":3230:3231   */\n      0x00\n        /* \"#utility.yul\":3219:3228   */\n      dup4\n        /* \"#utility.yul\":3215:3232   */\n      add\n        /* \"#utility.yul\":3206:3212   */\n      dup6\n        /* \"#utility.yul\":3162:3233   */\n      tag_135\n      jump\t// in\n    tag_188:\n        /* \"#utility.yul\":3243:3315   */\n      tag_189\n        /* \"#utility.yul\":3311:3313   */\n      0x20\n        /* \"#utility.yul\":3300:3309   */\n      dup4\n        /* \"#utility.yul\":3296:3314   */\n      add\n        /* \"#utility.yul\":3287:3293   */\n      dup5\n        /* \"#utility.yul\":3243:3315   */\n      tag_135\n      jump\t// in\n    tag_189:\n        /* \"#utility.yul\":2990:3322   */\n      swap4\n      swap3\n      pop\n      pop\n      pop\n      jump\t// out\n        /* \"#utility.yul\":3328:3550   */\n    tag_40:\n        /* \"#utility.yul\":3421:3425   */\n      0x00\n        /* \"#utility.yul\":3459:3461   */\n      0x20\n        /* \"#utility.yul\":3448:3457   */\n      dup3\n        /* \"#utility.yul\":3444:3462   */\n      add\n        /* \"#utility.yul\":3436:3462   */\n      swap1\n      pop\n        /* \"#utility.yul\":3472:3543   */\n      tag_191\n        /* \"#utility.yul\":3540:3541   */\n      0x00\n        /* \"#utility.yul\":3529:3538   */\n      dup4\n        /* \"#utility.yul\":3525:3542   */\n      add\n        /* \"#utility.yul\":3516:3522   */\n      dup5\n        /* \"#utility.yul\":3472:3543   */\n      tag_135\n      jump\t// in\n    tag_191:\n        /* \"#utility.yul\":3328:3550   */\n      swap3\n      swap2\n      pop\n      pop\n      jump\t// out\n        /* \"#utility.yul\":3556:3736   */\n    tag_54:\n        /* \"#utility.yul\":3604:3681   */\n      0x4e487b7100000000000000000000000000000000000000000000000000000000\n        /* \"#utility.yul\":3601:3602   */\n      0x00\n        /* \"#utility.yul\":3594:3682   */\n      mstore\n        /* \"#utility.yul\":3701:3705   */\n      0x32\n        /* \"#utility.yul\":3698:3699   */\n      0x04\n        /* \"#utility.yul\":3691:3706   */\n      mstore\n        /* \"#utility.yul\":3725:3729   */\n      0x24\n        /* \"#utility.yul\":3722:3723   */\n      0x00\n        /* \"#utility.yul\":3715:3730   */\n      revert\n        /* \"#utility.yul\":3742:3922   */\n    tag_143:\n        /* \"#utility.yul\":3790:3867   */\n      0x4e487b7100000000000000000000000000000000000000000000000000000000\n        /* \"#utility.yul\":3787:3788   */\n      0x00\n        /* \"#utility.yul\":3780:3868   */\n      mstore\n        /* \"#utility.yul\":3887:3891   */\n      0x11\n        /* \"#utility.yul\":3884:3885   */\n      0x04\n        /* \"#utility.yul\":3877:3892   */\n      mstore\n        /* \"#utility.yul\":3911:3915   */\n      0x24\n        /* \"#utility.yul\":3908:3909   */\n      0x00\n        /* \"#utility.yul\":3901:3916   */\n      revert\n        /* \"#utility.yul\":3928:4119   */\n    tag_63:\n        /* \"#utility.yul\":3968:3972   */\n      0x00\n        /* \"#utility.yul\":3988:4008   */\n      tag_195\n        /* \"#utility.yul\":4006:4007   */\n      dup3\n        /* \"#utility.yul\":3988:4008   */\n      tag_132\n      jump\t// in\n    tag_195:\n        /* \"#utility.yul\":3983:4008   */\n      swap2\n      pop\n        /* \"#utility.yul\":4022:4042   */\n      tag_196\n        /* \"#utility.yul\":4040:4041   */\n      dup4\n        /* \"#utility.yul\":4022:4042   */\n      tag_132\n      jump\t// in\n    tag_196:\n        /* \"#utility.yul\":4017:4042   */\n      swap3\n      pop\n        /* \"#utility.yul\":4061:4062   */\n      dup3\n        /* \"#utility.yul\":4058:4059   */\n      dup3\n        /* \"#utility.yul\":4055:4063   */\n      lt\n        /* \"#utility.yul\":4052:4086   */\n      iszero\n      tag_197\n      jumpi\n        /* \"#utility.yul\":4066:4084   */\n      tag_198\n      tag_143\n      jump\t// in\n    tag_198:\n        /* \"#utility.yul\":4052:4086   */\n    tag_197:\n        /* \"#utility.yul\":4111:4112   */\n      dup3\n        /* \"#utility.yul\":4108:4109   */\n      dup3\n        /* \"#utility.yul\":4104:4113   */\n      sub\n        /* \"#utility.yul\":4096:4113   */\n      swap1\n      pop\n        /* \"#utility.yul\":3928:4119   */\n      swap3\n      swap2\n      pop\n      pop\n      jump\t// out\n        /* \"#utility.yul\":4125:4305   */\n    tag_144:\n        /* \"#utility.yul\":4173:4250   */\n      0x4e487b7100000000000000000000000000000000000000000000000000000000\n        /* \"#utility.yul\":4170:4171   */\n      0x00\n        /* \"#utility.yul\":4163:4251   */\n      mstore\n        /* \"#utility.yul\":4270:4274   */\n      0x12\n        /* \"#utility.yul\":4267:4268   */\n      0x04\n        /* \"#utility.yul\":4260:4275   */\n      mstore\n        /* \"#utility.yul\":4294:4298   */\n      0x24\n        /* \"#utility.yul\":4291:4292   */\n      0x00\n        /* \"#utility.yul\":4284:4299   */\n      revert\n        /* \"#utility.yul\":4311:4496   */\n    tag_65:\n        /* \"#utility.yul\":4351:4352   */\n      0x00\n        /* \"#utility.yul\":4368:4388   */\n      tag_201\n        /* \"#utility.yul\":4386:4387   */\n      dup3\n        /* \"#utility.yul\":4368:4388   */\n      tag_132\n      jump\t// in\n    tag_201:\n        /* \"#utility.yul\":4363:4388   */\n      swap2\n      pop\n        /* \"#utility.yul\":4402:4422   */\n      tag_202\n        /* \"#utility.yul\":4420:4421   */\n      dup4\n        /* \"#utility.yul\":4402:4422   */\n      tag_132\n      jump\t// in\n    tag_202:\n        /* \"#utility.yul\":4397:4422   */\n      swap3\n      pop\n        /* \"#utility.yul\":4441:4442   */\n      dup3\n        /* \"#utility.yul\":4431:4466   */\n      tag_203\n      jumpi\n        /* \"#utility.yul\":4446:4464   */\n      tag_204\n      tag_144\n      jump\t// in\n    tag_204:\n        /* \"#utility.yul\":4431:4466   */\n    tag_203:\n        /* \"#utility.yul\":4488:4489   */\n      dup3\n        /* \"#utility.yul\":4485:4486   */\n      dup3\n        /* \"#utility.yul\":4481:4490   */\n      div\n        /* \"#utility.yul\":4476:4490   */\n      swap1\n      pop\n        /* \"#utility.yul\":4311:4496   */\n      swap3\n      swap2\n      pop\n      pop\n      jump\t// out\n        /* \"#utility.yul\":4502:4850   */\n    tag_70:\n        /* \"#utility.yul\":4542:4549   */\n      0x00\n        /* \"#utility.yul\":4565:4585   */\n      tag_206\n        /* \"#utility.yul\":4583:4584   */\n      dup3\n        /* \"#utility.yul\":4565:4585   */\n      tag_132\n      jump\t// in\n    tag_206:\n        /* \"#utility.yul\":4560:4585   */\n      swap2\n      pop\n        /* \"#utility.yul\":4599:4619   */\n      tag_207\n        /* \"#utility.yul\":4617:4618   */\n      dup4\n        /* \"#utility.yul\":4599:4619   */\n      tag_132\n      jump\t// in\n    tag_207:\n        /* \"#utility.yul\":4594:4619   */\n      swap3\n      pop\n        /* \"#utility.yul\":4787:4788   */\n      dup2\n        /* \"#utility.yul\":4719:4785   */\n      0xffffffffffffffffffffffffffffffffffffffffffffffffffffffffffffffff\n        /* \"#utility.yul\":4715:4789   */\n      div\n        /* \"#utility.yul\":4712:4713   */\n      dup4\n        /* \"#utility.yul\":4709:4790   */\n      gt\n        /* \"#utility.yul\":4704:4705   */\n      dup3\n        /* \"#utility.yul\":4697:4706   */\n      iszero\n        /* \"#utility.yul\":4690:4707   */\n      iszero\n        /* \"#utility.yul\":4686:4791   */\n      and\n        /* \"#utility.yul\":4683:4814   */\n      iszero\n      tag_208\n      jumpi\n        /* \"#utility.yul\":4794:4812   */\n      tag_209\n      tag_143\n      jump\t// in\n    tag_209:\n        /* \"#utility.yul\":4683:4814   */\n    tag_208:\n        /* \"#utility.yul\":4842:4843   */\n      dup3\n        /* \"#utility.yul\":4839:4840   */\n      dup3\n        /* \"#utility.yul\":4835:4844   */\n      mul\n        /* \"#utility.yul\":4824:4844   */\n      swap1\n      pop\n        /* \"#utility.yul\":4502:4850   */\n      swap3\n      swap2\n      pop\n      pop\n      jump\t// out\n        /* \"#utility.yul\":4856:5161   */\n    tag_82:\n        /* \"#utility.yul\":4896:4899   */\n      0x00\n        /* \"#utility.yul\":4915:4935   */\n      tag_211\n        /* \"#utility.yul\":4933:4934   */\n      dup3\n        /* \"#utility.yul\":4915:4935   */\n      tag_132\n      jump\t// in\n    tag_211:\n        /* \"#utility.yul\":4910:4935   */\n      swap2\n      pop\n        /* \"#utility.yul\":4949:4969   */\n      tag_212\n        /* \"#utility.yul\":4967:4968   */\n      dup4\n        /* \"#utility.yul\":4949:4969   */\n      tag_132\n      jump\t// in\n    tag_212:\n        /* \"#utility.yul\":4944:4969   */\n      swap3\n      pop\n        /* \"#utility.yul\":5103:5104   */\n      dup3\n        /* \"#utility.yul\":5035:5101   */\n      0xffffffffffffffffffffffffffffffffffffffffffffffffffffffffffffffff\n        /* \"#utility.yul\":5031:5105   */\n      sub\n        /* \"#utility.yul\":5028:5029   */\n      dup3\n        /* \"#utility.yul\":5025:5106   */\n      gt\n        /* \"#utility.yul\":5022:5129   */\n      iszero\n      tag_213\n      jumpi\n        /* \"#utility.yul\":5109:5127   */\n      tag_214\n      tag_143\n      jump\t// in\n    tag_214:\n        /* \"#utility.yul\":5022:5129   */\n    tag_213:\n        /* \"#utility.yul\":5153:5154   */\n      dup3\n        /* \"#utility.yul\":5150:5151   */\n      dup3\n        /* \"#utility.yul\":5146:5155   */\n      add\n        /* \"#utility.yul\":5139:5155   */\n      swap1\n      pop\n        /* \"#utility.yul\":4856:5161   */\n      swap3\n      swap2\n      pop\n      pop\n      jump\t// out\n        /* \"#utility.yul\":5167:5246   */\n    tag_145:\n        /* \"#utility.yul\":5206:5213   */\n      0x00\n        /* \"#utility.yul\":5235:5240   */\n      dup2\n        /* \"#utility.yul\":5224:5240   */\n      swap1\n      pop\n        /* \"#utility.yul\":5167:5246   */\n      swap2\n      swap1\n      pop\n      jump\t// out\n        /* \"#utility.yul\":5252:5409   */\n    tag_146:\n        /* \"#utility.yul\":5357:5402   */\n      tag_217\n        /* \"#utility.yul\":5377:5401   */\n      tag_218\n        /* \"#utility.yul\":5395:5400   */\n      dup3\n        /* \"#utility.yul\":5377:5401   */\n      tag_132\n      jump\t// in\n    tag_218:\n        /* \"#utility.yul\":5357:5402   */\n      tag_145\n      jump\t// in\n    tag_217:\n        /* \"#utility.yul\":5352:5355   */\n      dup3\n        /* \"#utility.yul\":5345:5403   */\n      mstore\n        /* \"#utility.yul\":5252:5409   */\n      pop\n      pop\n      jump\t// out\n        /* \"#utility.yul\":5415:5671   */\n    tag_87:\n        /* \"#utility.yul\":5527:5530   */\n      0x00\n        /* \"#utility.yul\":5542:5617   */\n      tag_220\n        /* \"#utility.yul\":5613:5616   */\n      dup3\n        /* \"#utility.yul\":5604:5610   */\n      dup5\n        /* \"#utility.yul\":5542:5617   */\n      tag_146\n      jump\t// in\n    tag_220:\n        /* \"#utility.yul\":5642:5644   */\n      0x20\n        /* \"#utility.yul\":5637:5640   */\n      dup3\n        /* \"#utility.yul\":5633:5645   */\n      add\n        /* \"#utility.yul\":5626:5645   */\n      swap2\n      pop\n        /* \"#utility.yul\":5662:5665   */\n      dup2\n        /* \"#utility.yul\":5655:5665   */\n      swap1\n      pop\n        /* \"#utility.yul\":5415:5671   */\n      swap3\n      swap2\n      pop\n      pop\n      jump\t// out\n        /* \"#utility.yul\":5677:5846   */\n    tag_147:\n        /* \"#utility.yul\":5761:5772   */\n      0x00\n        /* \"#utility.yul\":5795:5801   */\n      dup3\n        /* \"#utility.yul\":5790:5793   */\n      dup3\n        /* \"#utility.yul\":5783:5802   */\n      mstore\n        /* \"#utility.yul\":5835:5839   */\n      0x20\n        /* \"#utility.yul\":5830:5833   */\n      dup3\n        /* \"#utility.yul\":5826:5840   */\n      add\n        /* \"#utility.yul\":5811:5840   */\n      swap1\n      pop\n        /* \"#utility.yul\":5677:5846   */\n      swap3\n      swap2\n      pop\n      pop\n      jump\t// out\n        /* \"#utility.yul\":5852:6073   */\n    tag_148:\n        /* \"#utility.yul\":5992:6026   */\n      0x596f7520646964206e6f74207061792074686520636f727265637420616d6f75\n        /* \"#utility.yul\":5988:5989   */\n      0x00\n        /* \"#utility.yul\":5980:5986   */\n      dup3\n        /* \"#utility.yul\":5976:5990   */\n      add\n        /* \"#utility.yul\":5969:6027   */\n      mstore\n        /* \"#utility.yul\":6061:6065   */\n      0x6e74000000000000000000000000000000000000000000000000000000000000\n        /* \"#utility.yul\":6056:6058   */\n      0x20\n        /* \"#utility.yul\":6048:6054   */\n      dup3\n        /* \"#utility.yul\":6044:6059   */\n      add\n        /* \"#utility.yul\":6037:6066   */\n      mstore\n        /* \"#utility.yul\":5852:6073   */\n      pop\n      jump\t// out\n        /* \"#utility.yul\":6079:6445   */\n    tag_149:\n        /* \"#utility.yul\":6221:6224   */\n      0x00\n        /* \"#utility.yul\":6242:6309   */\n      tag_224\n        /* \"#utility.yul\":6306:6308   */\n      0x22\n        /* \"#utility.yul\":6301:6304   */\n      dup4\n        /* \"#utility.yul\":6242:6309   */\n      tag_147\n      jump\t// in\n    tag_224:\n        /* \"#utility.yul\":6235:6309   */\n      swap2\n      pop\n        /* \"#utility.yul\":6318:6411   */\n      tag_225\n        /* \"#utility.yul\":6407:6410   */\n      dup3\n        /* \"#utility.yul\":6318:6411   */\n      tag_148\n      jump\t// in\n    tag_225:\n        /* \"#utility.yul\":6436:6438   */\n      0x40\n        /* \"#utility.yul\":6431:6434   */\n      dup3\n        /* \"#utility.yul\":6427:6439   */\n      add\n        /* \"#utility.yul\":6420:6439   */\n      swap1\n      pop\n        /* \"#utility.yul\":6079:6445   */\n      swap2\n      swap1\n      pop\n      jump\t// out\n        /* \"#utility.yul\":6451:6870   */\n    tag_116:\n        /* \"#utility.yul\":6617:6621   */\n      0x00\n        /* \"#utility.yul\":6655:6657   */\n      0x20\n        /* \"#utility.yul\":6644:6653   */\n      dup3\n        /* \"#utility.yul\":6640:6658   */\n      add\n        /* \"#utility.yul\":6632:6658   */\n      swap1\n      pop\n        /* \"#utility.yul\":6704:6713   */\n      dup2\n        /* \"#utility.yul\":6698:6702   */\n      dup2\n        /* \"#utility.yul\":6694:6714   */\n      sub\n        /* \"#utility.yul\":6690:6691   */\n      0x00\n        /* \"#utility.yul\":6679:6688   */\n      dup4\n        /* \"#utility.yul\":6675:6692   */\n      add\n        /* \"#utility.yul\":6668:6715   */\n      mstore\n        /* \"#utility.yul\":6732:6863   */\n      tag_227\n        /* \"#utility.yul\":6858:6862   */\n      dup2\n        /* \"#utility.yul\":6732:6863   */\n      tag_149\n      jump\t// in\n    tag_227:\n        /* \"#utility.yul\":6724:6863   */\n      swap1\n      pop\n        /* \"#utility.yul\":6451:6870   */\n      swap2\n      swap1\n      pop\n      jump\t// out\n\n    auxdata: 0xa264697066735822122082450c48e77f8511f44a6920dbf0b6eac9d959aba0b51f6db5230455097b9ff064736f6c634300080a0033\n}\n","bytecode":{"linkReferences":{},"object":"60806040523480156200001157600080fd5b50600f600081905550600a600181905550600560028190555060005b601e811015620003de5780600011158015620000495750600f81105b15620001715760006040518060e0016040528066470de4df82000081526020016000600281111562000080576200007f620003e5565b5b81526020016001846200009491906200044d565b815260200160001515815260200160008152602001600081526020016000815250905060038190806001815401808255809150506001900390600052602060002090600702016000909190919091506000820151816000015560208201518160010160006101000a81548160ff021916908360028111156200011b576200011a620003e5565b5b02179055506040820151816002015560608201518160030160006101000a81548160ff0219169083151502179055506080820151816004015560a0820151816005015560c08201518160060155505050620003c8565b80600f11158015620001835750601981105b15620002ab5760006040518060e00160405280668e1bc9bf040000815260200160016002811115620001ba57620001b9620003e5565b5b8152602001600184620001ce91906200044d565b815260200160001515815260200160008152602001600081526020016000815250905060038190806001815401808255809150506001900390600052602060002090600702016000909190919091506000820151816000015560208201518160010160006101000a81548160ff02191690836002811115620002555762000254620003e5565b5b02179055506040820151816002015560608201518160030160006101000a81548160ff0219169083151502179055506080820151816004015560a0820151816005015560c08201518160060155505050620003c7565b60006040518060e0016040528066d529ae9e8600008152602001600280811115620002db57620002da620003e5565b5b8152602001600184620002ef91906200044d565b815260200160001515815260200160008152602001600081526020016000815250905060038190806001815401808255809150506001900390600052602060002090600702016000909190919091506000820151816000015560208201518160010160006101000a81548160ff02191690836002811115620003765762000375620003e5565b5b02179055506040820151816002015560608201518160030160006101000a81548160ff0219169083151502179055506080820151816004015560a0820151816005015560c082015181600601555050505b5b8080620003d590620004aa565b9150506200002d565b50620004f8565b7f4e487b7100000000000000000000000000000000000000000000000000000000600052602160045260246000fd5b6000819050919050565b7f4e487b7100000000000000000000000000000000000000000000000000000000600052601160045260246000fd5b60006200045a8262000414565b9150620004678362000414565b9250827fffffffffffffffffffffffffffffffffffffffffffffffffffffffffffffffff038211156200049f576200049e6200041e565b5b828201905092915050565b6000620004b78262000414565b91507fffffffffffffffffffffffffffffffffffffffffffffffffffffffffffffffff821415620004ed57620004ec6200041e565b5b600182019050919050565b610b3280620005086000396000f3fe60806040526004361061007b5760003560e01c8063c290d6911161004e578063c290d6911461016d578063ccfb018214610189578063dab3a89f146101b4578063e8597493146101df5761007b565b80631bae0ac8146100805780634c9ba852146100c35780635f49d3d8146100ec5780636d8a74cb1461012a575b600080fd5b34801561008c57600080fd5b506100a760048036038101906100a291906106fa565b61020a565b6040516100ba97969594939291906107c8565b60405180910390f35b3480156100cf57600080fd5b506100ea60048036038101906100e591906106fa565b610276565b005b3480156100f857600080fd5b50610113600480360381019061010e91906106fa565b61036c565b604051610121929190610837565b60405180910390f35b34801561013657600080fd5b50610151600480360381019061014c91906106fa565b61043c565b60405161016497969594939291906107c8565b60405180910390f35b610187600480360381019061018291906106fa565b610584565b005b34801561019557600080fd5b5061019e6106ad565b6040516101ab9190610860565b60405180910390f35b3480156101c057600080fd5b506101c96106b3565b6040516101d69190610860565b60405180910390f35b3480156101eb57600080fd5b506101f46106b9565b6040516102019190610860565b60405180910390f35b6003818154811061021a57600080fd5b90600052602060002090600702016000915090508060000154908060010160009054906101000a900460ff16908060020154908060030160009054906101000a900460ff16908060040154908060050154908060060154905087565b426003828154811061028b5761028a61087b565b5b906000526020600020906007020160050181905550600062015180600383815481106102ba576102b961087b565b5b906000526020600020906007020160040154600384815481106102e0576102df61087b565b5b9060005260206000209060070201600501546102fc91906108d9565b610306919061093c565b90506000816003848154811061031f5761031e61087b565b5b90600052602060002090600702016000015461033b919061096d565b905080600384815481106103525761035161087b565b5b906000526020600020906007020160060181905550505050565b6000806001600384815481106103855761038461087b565b5b906000526020600020906007020160030160006101000a81548160ff02191690831515021790555042600384815481106103c2576103c161087b565b5b9060005260206000209060070201600401819055506001836103e491906109c7565b9150600383815481106103fa576103f961087b565b5b90600052602060002090600702016002015460405160200161041c9190610a3e565b6040516020818303038152906040528051906020012060001c9050915091565b60008060008060008060006003888154811061045b5761045a61087b565b5b906000526020600020906007020160000154600389815481106104815761048061087b565b5b906000526020600020906007020160010160009054906101000a900460ff1660038a815481106104b4576104b361087b565b5b90600052602060002090600702016002015460038b815481106104da576104d961087b565b5b906000526020600020906007020160030160009054906101000a900460ff1660038c8154811061050d5761050c61087b565b5b90600052602060002090600702016004015460038d815481106105335761053261087b565b5b90600052602060002090600702016005015460038e815481106105595761055861087b565b5b9060005260206000209060070201600601549650965096509650965096509650919395979092949650565b600381815481106105985761059761087b565b5b90600052602060002090600702016006015434146105eb576040517f08c379a00000000000000000000000000000000000000000000000000000000081526004016105e290610adc565b60405180910390fd5b6000600382815481106106015761060061087b565b5b906000526020600020906007020160030160006101000a81548160ff02191690831515021790555060006003828154811061063f5761063e61087b565b5b90600052602060002090600702016004018190555060006003828154811061066a5761066961087b565b5b9060005260206000209060070201600501819055506000600382815481106106955761069461087b565b5b90600052602060002090600702016006018190555050565b60015481565b60005481565b60025481565b600080fd5b6000819050919050565b6106d7816106c4565b81146106e257600080fd5b50565b6000813590506106f4816106ce565b92915050565b6000602082840312156107105761070f6106bf565b5b600061071e848285016106e5565b91505092915050565b610730816106c4565b82525050565b7f4e487b7100000000000000000000000000000000000000000000000000000000600052602160045260246000fd5b6003811061077657610775610736565b5b50565b600081905061078782610765565b919050565b600061079782610779565b9050919050565b6107a78161078c565b82525050565b60008115159050919050565b6107c2816107ad565b82525050565b600060e0820190506107dd600083018a610727565b6107ea602083018961079e565b6107f76040830188610727565b61080460608301876107b9565b6108116080830186610727565b61081e60a0830185610727565b61082b60c0830184610727565b98975050505050505050565b600060408201905061084c6000830185610727565b6108596020830184610727565b9392505050565b60006020820190506108756000830184610727565b92915050565b7f4e487b7100000000000000000000000000000000000000000000000000000000600052603260045260246000fd5b7f4e487b7100000000000000000000000000000000000000000000000000000000600052601160045260246000fd5b60006108e4826106c4565b91506108ef836106c4565b925082821015610902576109016108aa565b5b828203905092915050565b7f4e487b7100000000000000000000000000000000000000000000000000000000600052601260045260246000fd5b6000610947826106c4565b9150610952836106c4565b9250826109625761096161090d565b5b828204905092915050565b6000610978826106c4565b9150610983836106c4565b9250817fffffffffffffffffffffffffffffffffffffffffffffffffffffffffffffffff04831182151516156109bc576109bb6108aa565b5b828202905092915050565b60006109d2826106c4565b91506109dd836106c4565b9250827fffffffffffffffffffffffffffffffffffffffffffffffffffffffffffffffff03821115610a1257610a116108aa565b5b828201905092915050565b6000819050919050565b610a38610a33826106c4565b610a1d565b82525050565b6000610a4a8284610a27565b60208201915081905092915050565b600082825260208201905092915050565b7f596f7520646964206e6f74207061792074686520636f727265637420616d6f7560008201527f6e74000000000000000000000000000000000000000000000000000000000000602082015250565b6000610ac6602283610a59565b9150610ad182610a6a565b604082019050919050565b60006020820190508181036000830152610af581610ab9565b905091905056fea264697066735822122082450c48e77f8511f44a6920dbf0b6eac9d959aba0b51f6db5230455097b9ff064736f6c634300080a0033","opcodes":"PUSH1 0x80 PUSH1 0x40 MSTORE CALLVALUE DUP1 ISZERO PUSH3 0x11 JUMPI PUSH1 0x0 DUP1 REVERT JUMPDEST POP PUSH1 0xF PUSH1 0x0 DUP2 SWAP1 SSTORE POP PUSH1 0xA PUSH1 0x1 DUP2 SWAP1 SSTORE POP PUSH1 0x5 PUSH1 0x2 DUP2 SWAP1 SSTORE POP PUSH1 0x0 JUMPDEST PUSH1 0x1E DUP2 LT ISZERO PUSH3 0x3DE JUMPI DUP1 PUSH1 0x0 GT ISZERO DUP1 ISZERO PUSH3 0x49 JUMPI POP PUSH1 0xF DUP2 LT JUMPDEST ISZERO PUSH3 0x171 JUMPI PUSH1 0x0 PUSH1 0x40 MLOAD DUP1 PUSH1 0xE0 ADD PUSH1 0x40 MSTORE DUP1 PUSH7 0x470DE4DF820000 DUP2 MSTORE PUSH1 0x20 ADD PUSH1 0x0 PUSH1 0x2 DUP2 GT ISZERO PUSH3 0x80 JUMPI PUSH3 0x7F PUSH3 0x3E5 JUMP JUMPDEST JUMPDEST DUP2 MSTORE PUSH1 0x20 ADD PUSH1 0x1 DUP5 PUSH3 0x94 SWAP2 SWAP1 PUSH3 0x44D JUMP JUMPDEST DUP2 MSTORE PUSH1 0x20 ADD PUSH1 0x0 ISZERO ISZERO DUP2 MSTORE PUSH1 0x20 ADD PUSH1 0x0 DUP2 MSTORE PUSH1 0x20 ADD PUSH1 0x0 DUP2 MSTORE PUSH1 0x20 ADD PUSH1 0x0 DUP2 MSTORE POP SWAP1 POP PUSH1 0x3 DUP2 SWAP1 DUP1 PUSH1 0x1 DUP2 SLOAD ADD DUP1 DUP3 SSTORE DUP1 SWAP2 POP POP PUSH1 0x1 SWAP1 SUB SWAP1 PUSH1 0x0 MSTORE PUSH1 0x20 PUSH1 0x0 KECCAK256 SWAP1 PUSH1 0x7 MUL ADD PUSH1 0x0 SWAP1 SWAP2 SWAP1 SWAP2 SWAP1 SWAP2 POP PUSH1 0x0 DUP3 ADD MLOAD DUP2 PUSH1 0x0 ADD SSTORE PUSH1 0x20 DUP3 ADD MLOAD DUP2 PUSH1 0x1 ADD PUSH1 0x0 PUSH2 0x100 EXP DUP2 SLOAD DUP2 PUSH1 0xFF MUL NOT AND SWAP1 DUP4 PUSH1 0x2 DUP2 GT ISZERO PUSH3 0x11B JUMPI PUSH3 0x11A PUSH3 0x3E5 JUMP JUMPDEST JUMPDEST MUL OR SWAP1 SSTORE POP PUSH1 0x40 DUP3 ADD MLOAD DUP2 PUSH1 0x2 ADD SSTORE PUSH1 0x60 DUP3 ADD MLOAD DUP2 PUSH1 0x3 ADD PUSH1 0x0 PUSH2 0x100 EXP DUP2 SLOAD DUP2 PUSH1 0xFF MUL NOT AND SWAP1 DUP4 ISZERO ISZERO MUL OR SWAP1 SSTORE POP PUSH1 0x80 DUP3 ADD MLOAD DUP2 PUSH1 0x4 ADD SSTORE PUSH1 0xA0 DUP3 ADD MLOAD DUP2 PUSH1 0x5 ADD SSTORE PUSH1 0xC0 DUP3 ADD MLOAD DUP2 PUSH1 0x6 ADD SSTORE POP POP POP PUSH3 0x3C8 JUMP JUMPDEST DUP1 PUSH1 0xF GT ISZERO DUP1 ISZERO PUSH3 0x183 JUMPI POP PUSH1 0x19 DUP2 LT JUMPDEST ISZERO PUSH3 0x2AB JUMPI PUSH1 0x0 PUSH1 0x40 MLOAD DUP1 PUSH1 0xE0 ADD PUSH1 0x40 MSTORE DUP1 PUSH7 0x8E1BC9BF040000 DUP2 MSTORE PUSH1 0x20 ADD PUSH1 0x1 PUSH1 0x2 DUP2 GT ISZERO PUSH3 0x1BA JUMPI PUSH3 0x1B9 PUSH3 0x3E5 JUMP JUMPDEST JUMPDEST DUP2 MSTORE PUSH1 0x20 ADD PUSH1 0x1 DUP5 PUSH3 0x1CE SWAP2 SWAP1 PUSH3 0x44D JUMP JUMPDEST DUP2 MSTORE PUSH1 0x20 ADD PUSH1 0x0 ISZERO ISZERO DUP2 MSTORE PUSH1 0x20 ADD PUSH1 0x0 DUP2 MSTORE PUSH1 0x20 ADD PUSH1 0x0 DUP2 MSTORE PUSH1 0x20 ADD PUSH1 0x0 DUP2 MSTORE POP SWAP1 POP PUSH1 0x3 DUP2 SWAP1 DUP1 PUSH1 0x1 DUP2 SLOAD ADD DUP1 DUP3 SSTORE DUP1 SWAP2 POP POP PUSH1 0x1 SWAP1 SUB SWAP1 PUSH1 0x0 MSTORE PUSH1 0x20 PUSH1 0x0 KECCAK256 SWAP1 PUSH1 0x7 MUL ADD PUSH1 0x0 SWAP1 SWAP2 SWAP1 SWAP2 SWAP1 SWAP2 POP PUSH1 0x0 DUP3 ADD MLOAD DUP2 PUSH1 0x0 ADD SSTORE PUSH1 0x20 DUP3 ADD MLOAD DUP2 PUSH1 0x1 ADD PUSH1 0x0 PUSH2 0x100 EXP DUP2 SLOAD DUP2 PUSH1 0xFF MUL NOT AND SWAP1 DUP4 PUSH1 0x2 DUP2 GT ISZERO PUSH3 0x255 JUMPI PUSH3 0x254 PUSH3 0x3E5 JUMP JUMPDEST JUMPDEST MUL OR SWAP1 SSTORE POP PUSH1 0x40 DUP3 ADD MLOAD DUP2 PUSH1 0x2 ADD SSTORE PUSH1 0x60 DUP3 ADD MLOAD DUP2 PUSH1 0x3 ADD PUSH1 0x0 PUSH2 0x100 EXP DUP2 SLOAD DUP2 PUSH1 0xFF MUL NOT AND SWAP1 DUP4 ISZERO ISZERO MUL OR SWAP1 SSTORE POP PUSH1 0x80 DUP3 ADD MLOAD DUP2 PUSH1 0x4 ADD SSTORE PUSH1 0xA0 DUP3 ADD MLOAD DUP2 PUSH1 0x5 ADD SSTORE PUSH1 0xC0 DUP3 ADD MLOAD DUP2 PUSH1 0x6 ADD SSTORE POP POP POP PUSH3 0x3C7 JUMP JUMPDEST PUSH1 0x0 PUSH1 0x40 MLOAD DUP1 PUSH1 0xE0 ADD PUSH1 0x40 MSTORE DUP1 PUSH7 0xD529AE9E860000 DUP2 MSTORE PUSH1 0x20 ADD PUSH1 0x2 DUP1 DUP2 GT ISZERO PUSH3 0x2DB JUMPI PUSH3 0x2DA PUSH3 0x3E5 JUMP JUMPDEST JUMPDEST DUP2 MSTORE PUSH1 0x20 ADD PUSH1 0x1 DUP5 PUSH3 0x2EF SWAP2 SWAP1 PUSH3 0x44D JUMP JUMPDEST DUP2 MSTORE PUSH1 0x20 ADD PUSH1 0x0 ISZERO ISZERO DUP2 MSTORE PUSH1 0x20 ADD PUSH1 0x0 DUP2 MSTORE PUSH1 0x20 ADD PUSH1 0x0 DUP2 MSTORE PUSH1 0x20 ADD PUSH1 0x0 DUP2 MSTORE POP SWAP1 POP PUSH1 0x3 DUP2 SWAP1 DUP1 PUSH1 0x1 DUP2 SLOAD ADD DUP1 DUP3 SSTORE DUP1 SWAP2 POP POP PUSH1 0x1 SWAP1 SUB SWAP1 PUSH1 0x0 MSTORE PUSH1 0x20 PUSH1 0x0 KECCAK256 SWAP1 PUSH1 0x7 MUL ADD PUSH1 0x0 SWAP1 SWAP2 SWAP1 SWAP2 SWAP1 SWAP2 POP PUSH1 0x0 DUP3 ADD MLOAD DUP2 PUSH1 0x0 ADD SSTORE PUSH1 0x20 DUP3 ADD MLOAD DUP2 PUSH1 0x1 ADD PUSH1 0x0 PUSH2 0x100 EXP DUP2 SLOAD DUP2 PUSH1 0xFF MUL NOT AND SWAP1 DUP4 PUSH1 0x2 DUP2 GT ISZERO PUSH3 0x376 JUMPI PUSH3 0x375 PUSH3 0x3E5 JUMP JUMPDEST JUMPDEST MUL OR SWAP1 SSTORE POP PUSH1 0x40 DUP3 ADD MLOAD DUP2 PUSH1 0x2 ADD SSTORE PUSH1 0x60 DUP3 ADD MLOAD DUP2 PUSH1 0x3 ADD PUSH1 0x0 PUSH2 0x100 EXP DUP2 SLOAD DUP2 PUSH1 0xFF MUL NOT AND SWAP1 DUP4 ISZERO ISZERO MUL OR SWAP1 SSTORE POP PUSH1 0x80 DUP3 ADD MLOAD DUP2 PUSH1 0x4 ADD SSTORE PUSH1 0xA0 DUP3 ADD MLOAD DUP2 PUSH1 0x5 ADD SSTORE PUSH1 0xC0 DUP3 ADD MLOAD DUP2 PUSH1 0x6 ADD SSTORE POP POP POP JUMPDEST JUMPDEST DUP1 DUP1 PUSH3 0x3D5 SWAP1 PUSH3 0x4AA JUMP JUMPDEST SWAP2 POP POP PUSH3 0x2D JUMP JUMPDEST POP PUSH3 0x4F8 JUMP JUMPDEST PUSH32 0x4E487B7100000000000000000000000000000000000000000000000000000000 PUSH1 0x0 MSTORE PUSH1 0x21 PUSH1 0x4 MSTORE PUSH1 0x24 PUSH1 0x0 REVERT JUMPDEST PUSH1 0x0 DUP2 SWAP1 POP SWAP2 SWAP1 POP JUMP JUMPDEST PUSH32 0x4E487B7100000000000000000000000000000000000000000000000000000000 PUSH1 0x0 MSTORE PUSH1 0x11 PUSH1 0x4 MSTORE PUSH1 0x24 PUSH1 0x0 REVERT JUMPDEST PUSH1 0x0 PUSH3 0x45A DUP3 PUSH3 0x414 JUMP JUMPDEST SWAP2 POP PUSH3 0x467 DUP4 PUSH3 0x414 JUMP JUMPDEST SWAP3 POP DUP3 PUSH32 0xFFFFFFFFFFFFFFFFFFFFFFFFFFFFFFFFFFFFFFFFFFFFFFFFFFFFFFFFFFFFFFFF SUB DUP3 GT ISZERO PUSH3 0x49F JUMPI PUSH3 0x49E PUSH3 0x41E JUMP JUMPDEST JUMPDEST DUP3 DUP3 ADD SWAP1 POP SWAP3 SWAP2 POP POP JUMP JUMPDEST PUSH1 0x0 PUSH3 0x4B7 DUP3 PUSH3 0x414 JUMP JUMPDEST SWAP2 POP PUSH32 0xFFFFFFFFFFFFFFFFFFFFFFFFFFFFFFFFFFFFFFFFFFFFFFFFFFFFFFFFFFFFFFFF DUP3 EQ ISZERO PUSH3 0x4ED JUMPI PUSH3 0x4EC PUSH3 0x41E JUMP JUMPDEST JUMPDEST PUSH1 0x1 DUP3 ADD SWAP1 POP SWAP2 SWAP1 POP JUMP JUMPDEST PUSH2 0xB32 DUP1 PUSH3 0x508 PUSH1 0x0 CODECOPY PUSH1 0x0 RETURN INVALID PUSH1 0x80 PUSH1 0x40 MSTORE PUSH1 0x4 CALLDATASIZE LT PUSH2 0x7B JUMPI PUSH1 0x0 CALLDATALOAD PUSH1 0xE0 SHR DUP1 PUSH4 0xC290D691 GT PUSH2 0x4E JUMPI DUP1 PUSH4 0xC290D691 EQ PUSH2 0x16D JUMPI DUP1 PUSH4 0xCCFB0182 EQ PUSH2 0x189 JUMPI DUP1 PUSH4 0xDAB3A89F EQ PUSH2 0x1B4 JUMPI DUP1 PUSH4 0xE8597493 EQ PUSH2 0x1DF JUMPI PUSH2 0x7B JUMP JUMPDEST DUP1 PUSH4 0x1BAE0AC8 EQ PUSH2 0x80 JUMPI DUP1 PUSH4 0x4C9BA852 EQ PUSH2 0xC3 JUMPI DUP1 PUSH4 0x5F49D3D8 EQ PUSH2 0xEC JUMPI DUP1 PUSH4 0x6D8A74CB EQ PUSH2 0x12A JUMPI JUMPDEST PUSH1 0x0 DUP1 REVERT JUMPDEST CALLVALUE DUP1 ISZERO PUSH2 0x8C JUMPI PUSH1 0x0 DUP1 REVERT JUMPDEST POP PUSH2 0xA7 PUSH1 0x4 DUP1 CALLDATASIZE SUB DUP2 ADD SWAP1 PUSH2 0xA2 SWAP2 SWAP1 PUSH2 0x6FA JUMP JUMPDEST PUSH2 0x20A JUMP JUMPDEST PUSH1 0x40 MLOAD PUSH2 0xBA SWAP8 SWAP7 SWAP6 SWAP5 SWAP4 SWAP3 SWAP2 SWAP1 PUSH2 0x7C8 JUMP JUMPDEST PUSH1 0x40 MLOAD DUP1 SWAP2 SUB SWAP1 RETURN JUMPDEST CALLVALUE DUP1 ISZERO PUSH2 0xCF JUMPI PUSH1 0x0 DUP1 REVERT JUMPDEST POP PUSH2 0xEA PUSH1 0x4 DUP1 CALLDATASIZE SUB DUP2 ADD SWAP1 PUSH2 0xE5 SWAP2 SWAP1 PUSH2 0x6FA JUMP JUMPDEST PUSH2 0x276 JUMP JUMPDEST STOP JUMPDEST CALLVALUE DUP1 ISZERO PUSH2 0xF8 JUMPI PUSH1 0x0 DUP1 REVERT JUMPDEST POP PUSH2 0x113 PUSH1 0x4 DUP1 CALLDATASIZE SUB DUP2 ADD SWAP1 PUSH2 0x10E SWAP2 SWAP1 PUSH2 0x6FA JUMP JUMPDEST PUSH2 0x36C JUMP JUMPDEST PUSH1 0x40 MLOAD PUSH2 0x121 SWAP3 SWAP2 SWAP1 PUSH2 0x837 JUMP JUMPDEST PUSH1 0x40 MLOAD DUP1 SWAP2 SUB SWAP1 RETURN JUMPDEST CALLVALUE DUP1 ISZERO PUSH2 0x136 JUMPI PUSH1 0x0 DUP1 REVERT JUMPDEST POP PUSH2 0x151 PUSH1 0x4 DUP1 CALLDATASIZE SUB DUP2 ADD SWAP1 PUSH2 0x14C SWAP2 SWAP1 PUSH2 0x6FA JUMP JUMPDEST PUSH2 0x43C JUMP JUMPDEST PUSH1 0x40 MLOAD PUSH2 0x164 SWAP8 SWAP7 SWAP6 SWAP5 SWAP4 SWAP3 SWAP2 SWAP1 PUSH2 0x7C8 JUMP JUMPDEST PUSH1 0x40 MLOAD DUP1 SWAP2 SUB SWAP1 RETURN JUMPDEST PUSH2 0x187 PUSH1 0x4 DUP1 CALLDATASIZE SUB DUP2 ADD SWAP1 PUSH2 0x182 SWAP2 SWAP1 PUSH2 0x6FA JUMP JUMPDEST PUSH2 0x584 JUMP JUMPDEST STOP JUMPDEST CALLVALUE DUP1 ISZERO PUSH2 0x195 JUMPI PUSH1 0x0 DUP1 REVERT JUMPDEST POP PUSH2 0x19E PUSH2 0x6AD JUMP JUMPDEST PUSH1 0x40 MLOAD PUSH2 0x1AB SWAP2 SWAP1 PUSH2 0x860 JUMP JUMPDEST PUSH1 0x40 MLOAD DUP1 SWAP2 SUB SWAP1 RETURN JUMPDEST CALLVALUE DUP1 ISZERO PUSH2 0x1C0 JUMPI PUSH1 0x0 DUP1 REVERT JUMPDEST POP PUSH2 0x1C9 PUSH2 0x6B3 JUMP JUMPDEST PUSH1 0x40 MLOAD PUSH2 0x1D6 SWAP2 SWAP1 PUSH2 0x860 JUMP JUMPDEST PUSH1 0x40 MLOAD DUP1 SWAP2 SUB SWAP1 RETURN JUMPDEST CALLVALUE DUP1 ISZERO PUSH2 0x1EB JUMPI PUSH1 0x0 DUP1 REVERT JUMPDEST POP PUSH2 0x1F4 PUSH2 0x6B9 JUMP JUMPDEST PUSH1 0x40 MLOAD PUSH2 0x201 SWAP2 SWAP1 PUSH2 0x860 JUMP JUMPDEST PUSH1 0x40 MLOAD DUP1 SWAP2 SUB SWAP1 RETURN JUMPDEST PUSH1 0x3 DUP2 DUP2 SLOAD DUP2 LT PUSH2 0x21A JUMPI PUSH1 0x0 DUP1 REVERT JUMPDEST SWAP1 PUSH1 0x0 MSTORE PUSH1 0x20 PUSH1 0x0 KECCAK256 SWAP1 PUSH1 0x7 MUL ADD PUSH1 0x0 SWAP2 POP SWAP1 POP DUP1 PUSH1 0x0 ADD SLOAD SWAP1 DUP1 PUSH1 0x1 ADD PUSH1 0x0 SWAP1 SLOAD SWAP1 PUSH2 0x100 EXP SWAP1 DIV PUSH1 0xFF AND SWAP1 DUP1 PUSH1 0x2 ADD SLOAD SWAP1 DUP1 PUSH1 0x3 ADD PUSH1 0x0 SWAP1 SLOAD SWAP1 PUSH2 0x100 EXP SWAP1 DIV PUSH1 0xFF AND SWAP1 DUP1 PUSH1 0x4 ADD SLOAD SWAP1 DUP1 PUSH1 0x5 ADD SLOAD SWAP1 DUP1 PUSH1 0x6 ADD SLOAD SWAP1 POP DUP8 JUMP JUMPDEST TIMESTAMP PUSH1 0x3 DUP3 DUP2 SLOAD DUP2 LT PUSH2 0x28B JUMPI PUSH2 0x28A PUSH2 0x87B JUMP JUMPDEST JUMPDEST SWAP1 PUSH1 0x0 MSTORE PUSH1 0x20 PUSH1 0x0 KECCAK256 SWAP1 PUSH1 0x7 MUL ADD PUSH1 0x5 ADD DUP2 SWAP1 SSTORE POP PUSH1 0x0 PUSH3 0x15180 PUSH1 0x3 DUP4 DUP2 SLOAD DUP2 LT PUSH2 0x2BA JUMPI PUSH2 0x2B9 PUSH2 0x87B JUMP JUMPDEST JUMPDEST SWAP1 PUSH1 0x0 MSTORE PUSH1 0x20 PUSH1 0x0 KECCAK256 SWAP1 PUSH1 0x7 MUL ADD PUSH1 0x4 ADD SLOAD PUSH1 0x3 DUP5 DUP2 SLOAD DUP2 LT PUSH2 0x2E0 JUMPI PUSH2 0x2DF PUSH2 0x87B JUMP JUMPDEST JUMPDEST SWAP1 PUSH1 0x0 MSTORE PUSH1 0x20 PUSH1 0x0 KECCAK256 SWAP1 PUSH1 0x7 MUL ADD PUSH1 0x5 ADD SLOAD PUSH2 0x2FC SWAP2 SWAP1 PUSH2 0x8D9 JUMP JUMPDEST PUSH2 0x306 SWAP2 SWAP1 PUSH2 0x93C JUMP JUMPDEST SWAP1 POP PUSH1 0x0 DUP2 PUSH1 0x3 DUP5 DUP2 SLOAD DUP2 LT PUSH2 0x31F JUMPI PUSH2 0x31E PUSH2 0x87B JUMP JUMPDEST JUMPDEST SWAP1 PUSH1 0x0 MSTORE PUSH1 0x20 PUSH1 0x0 KECCAK256 SWAP1 PUSH1 0x7 MUL ADD PUSH1 0x0 ADD SLOAD PUSH2 0x33B SWAP2 SWAP1 PUSH2 0x96D JUMP JUMPDEST SWAP1 POP DUP1 PUSH1 0x3 DUP5 DUP2 SLOAD DUP2 LT PUSH2 0x352 JUMPI PUSH2 0x351 PUSH2 0x87B JUMP JUMPDEST JUMPDEST SWAP1 PUSH1 0x0 MSTORE PUSH1 0x20 PUSH1 0x0 KECCAK256 SWAP1 PUSH1 0x7 MUL ADD PUSH1 0x6 ADD DUP2 SWAP1 SSTORE POP POP POP POP JUMP JUMPDEST PUSH1 0x0 DUP1 PUSH1 0x1 PUSH1 0x3 DUP5 DUP2 SLOAD DUP2 LT PUSH2 0x385 JUMPI PUSH2 0x384 PUSH2 0x87B JUMP JUMPDEST JUMPDEST SWAP1 PUSH1 0x0 MSTORE PUSH1 0x20 PUSH1 0x0 KECCAK256 SWAP1 PUSH1 0x7 MUL ADD PUSH1 0x3 ADD PUSH1 0x0 PUSH2 0x100 EXP DUP2 SLOAD DUP2 PUSH1 0xFF MUL NOT AND SWAP1 DUP4 ISZERO ISZERO MUL OR SWAP1 SSTORE POP TIMESTAMP PUSH1 0x3 DUP5 DUP2 SLOAD DUP2 LT PUSH2 0x3C2 JUMPI PUSH2 0x3C1 PUSH2 0x87B JUMP JUMPDEST JUMPDEST SWAP1 PUSH1 0x0 MSTORE PUSH1 0x20 PUSH1 0x0 KECCAK256 SWAP1 PUSH1 0x7 MUL ADD PUSH1 0x4 ADD DUP2 SWAP1 SSTORE POP PUSH1 0x1 DUP4 PUSH2 0x3E4 SWAP2 SWAP1 PUSH2 0x9C7 JUMP JUMPDEST SWAP2 POP PUSH1 0x3 DUP4 DUP2 SLOAD DUP2 LT PUSH2 0x3FA JUMPI PUSH2 0x3F9 PUSH2 0x87B JUMP JUMPDEST JUMPDEST SWAP1 PUSH1 0x0 MSTORE PUSH1 0x20 PUSH1 0x0 KECCAK256 SWAP1 PUSH1 0x7 MUL ADD PUSH1 0x2 ADD SLOAD PUSH1 0x40 MLOAD PUSH1 0x20 ADD PUSH2 0x41C SWAP2 SWAP1 PUSH2 0xA3E JUMP JUMPDEST PUSH1 0x40 MLOAD PUSH1 0x20 DUP2 DUP4 SUB SUB DUP2 MSTORE SWAP1 PUSH1 0x40 MSTORE DUP1 MLOAD SWAP1 PUSH1 0x20 ADD KECCAK256 PUSH1 0x0 SHR SWAP1 POP SWAP2 POP SWAP2 JUMP JUMPDEST PUSH1 0x0 DUP1 PUSH1 0x0 DUP1 PUSH1 0x0 DUP1 PUSH1 0x0 PUSH1 0x3 DUP9 DUP2 SLOAD DUP2 LT PUSH2 0x45B JUMPI PUSH2 0x45A PUSH2 0x87B JUMP JUMPDEST JUMPDEST SWAP1 PUSH1 0x0 MSTORE PUSH1 0x20 PUSH1 0x0 KECCAK256 SWAP1 PUSH1 0x7 MUL ADD PUSH1 0x0 ADD SLOAD PUSH1 0x3 DUP10 DUP2 SLOAD DUP2 LT PUSH2 0x481 JUMPI PUSH2 0x480 PUSH2 0x87B JUMP JUMPDEST JUMPDEST SWAP1 PUSH1 0x0 MSTORE PUSH1 0x20 PUSH1 0x0 KECCAK256 SWAP1 PUSH1 0x7 MUL ADD PUSH1 0x1 ADD PUSH1 0x0 SWAP1 SLOAD SWAP1 PUSH2 0x100 EXP SWAP1 DIV PUSH1 0xFF AND PUSH1 0x3 DUP11 DUP2 SLOAD DUP2 LT PUSH2 0x4B4 JUMPI PUSH2 0x4B3 PUSH2 0x87B JUMP JUMPDEST JUMPDEST SWAP1 PUSH1 0x0 MSTORE PUSH1 0x20 PUSH1 0x0 KECCAK256 SWAP1 PUSH1 0x7 MUL ADD PUSH1 0x2 ADD SLOAD PUSH1 0x3 DUP12 DUP2 SLOAD DUP2 LT PUSH2 0x4DA JUMPI PUSH2 0x4D9 PUSH2 0x87B JUMP JUMPDEST JUMPDEST SWAP1 PUSH1 0x0 MSTORE PUSH1 0x20 PUSH1 0x0 KECCAK256 SWAP1 PUSH1 0x7 MUL ADD PUSH1 0x3 ADD PUSH1 0x0 SWAP1 SLOAD SWAP1 PUSH2 0x100 EXP SWAP1 DIV PUSH1 0xFF AND PUSH1 0x3 DUP13 DUP2 SLOAD DUP2 LT PUSH2 0x50D JUMPI PUSH2 0x50C PUSH2 0x87B JUMP JUMPDEST JUMPDEST SWAP1 PUSH1 0x0 MSTORE PUSH1 0x20 PUSH1 0x0 KECCAK256 SWAP1 PUSH1 0x7 MUL ADD PUSH1 0x4 ADD SLOAD PUSH1 0x3 DUP14 DUP2 SLOAD DUP2 LT PUSH2 0x533 JUMPI PUSH2 0x532 PUSH2 0x87B JUMP JUMPDEST JUMPDEST SWAP1 PUSH1 0x0 MSTORE PUSH1 0x20 PUSH1 0x0 KECCAK256 SWAP1 PUSH1 0x7 MUL ADD PUSH1 0x5 ADD SLOAD PUSH1 0x3 DUP15 DUP2 SLOAD DUP2 LT PUSH2 0x559 JUMPI PUSH2 0x558 PUSH2 0x87B JUMP JUMPDEST JUMPDEST SWAP1 PUSH1 0x0 MSTORE PUSH1 0x20 PUSH1 0x0 KECCAK256 SWAP1 PUSH1 0x7 MUL ADD PUSH1 0x6 ADD SLOAD SWAP7 POP SWAP7 POP SWAP7 POP SWAP7 POP SWAP7 POP SWAP7 POP SWAP7 POP SWAP2 SWAP4 SWAP6 SWAP8 SWAP1 SWAP3 SWAP5 SWAP7 POP JUMP JUMPDEST PUSH1 0x3 DUP2 DUP2 SLOAD DUP2 LT PUSH2 0x598 JUMPI PUSH2 0x597 PUSH2 0x87B JUMP JUMPDEST JUMPDEST SWAP1 PUSH1 0x0 MSTORE PUSH1 0x20 PUSH1 0x0 KECCAK256 SWAP1 PUSH1 0x7 MUL ADD PUSH1 0x6 ADD SLOAD CALLVALUE EQ PUSH2 0x5EB JUMPI PUSH1 0x40 MLOAD PUSH32 0x8C379A000000000000000000000000000000000000000000000000000000000 DUP2 MSTORE PUSH1 0x4 ADD PUSH2 0x5E2 SWAP1 PUSH2 0xADC JUMP JUMPDEST PUSH1 0x40 MLOAD DUP1 SWAP2 SUB SWAP1 REVERT JUMPDEST PUSH1 0x0 PUSH1 0x3 DUP3 DUP2 SLOAD DUP2 LT PUSH2 0x601 JUMPI PUSH2 0x600 PUSH2 0x87B JUMP JUMPDEST JUMPDEST SWAP1 PUSH1 0x0 MSTORE PUSH1 0x20 PUSH1 0x0 KECCAK256 SWAP1 PUSH1 0x7 MUL ADD PUSH1 0x3 ADD PUSH1 0x0 PUSH2 0x100 EXP DUP2 SLOAD DUP2 PUSH1 0xFF MUL NOT AND SWAP1 DUP4 ISZERO ISZERO MUL OR SWAP1 SSTORE POP PUSH1 0x0 PUSH1 0x3 DUP3 DUP2 SLOAD DUP2 LT PUSH2 0x63F JUMPI PUSH2 0x63E PUSH2 0x87B JUMP JUMPDEST JUMPDEST SWAP1 PUSH1 0x0 MSTORE PUSH1 0x20 PUSH1 0x0 KECCAK256 SWAP1 PUSH1 0x7 MUL ADD PUSH1 0x4 ADD DUP2 SWAP1 SSTORE POP PUSH1 0x0 PUSH1 0x3 DUP3 DUP2 SLOAD DUP2 LT PUSH2 0x66A JUMPI PUSH2 0x669 PUSH2 0x87B JUMP JUMPDEST JUMPDEST SWAP1 PUSH1 0x0 MSTORE PUSH1 0x20 PUSH1 0x0 KECCAK256 SWAP1 PUSH1 0x7 MUL ADD PUSH1 0x5 ADD DUP2 SWAP1 SSTORE POP PUSH1 0x0 PUSH1 0x3 DUP3 DUP2 SLOAD DUP2 LT PUSH2 0x695 JUMPI PUSH2 0x694 PUSH2 0x87B JUMP JUMPDEST JUMPDEST SWAP1 PUSH1 0x0 MSTORE PUSH1 0x20 PUSH1 0x0 KECCAK256 SWAP1 PUSH1 0x7 MUL ADD PUSH1 0x6 ADD DUP2 SWAP1 SSTORE POP POP JUMP JUMPDEST PUSH1 0x1 SLOAD DUP2 JUMP JUMPDEST PUSH1 0x0 SLOAD DUP2 JUMP JUMPDEST PUSH1 0x2 SLOAD DUP2 JUMP JUMPDEST PUSH1 0x0 DUP1 REVERT JUMPDEST PUSH1 0x0 DUP2 SWAP1 POP SWAP2 SWAP1 POP JUMP JUMPDEST PUSH2 0x6D7 DUP2 PUSH2 0x6C4 JUMP JUMPDEST DUP2 EQ PUSH2 0x6E2 JUMPI PUSH1 0x0 DUP1 REVERT JUMPDEST POP JUMP JUMPDEST PUSH1 0x0 DUP2 CALLDATALOAD SWAP1 POP PUSH2 0x6F4 DUP2 PUSH2 0x6CE JUMP JUMPDEST SWAP3 SWAP2 POP POP JUMP JUMPDEST PUSH1 0x0 PUSH1 0x20 DUP3 DUP5 SUB SLT ISZERO PUSH2 0x710 JUMPI PUSH2 0x70F PUSH2 0x6BF JUMP JUMPDEST JUMPDEST PUSH1 0x0 PUSH2 0x71E DUP5 DUP3 DUP6 ADD PUSH2 0x6E5 JUMP JUMPDEST SWAP2 POP POP SWAP3 SWAP2 POP POP JUMP JUMPDEST PUSH2 0x730 DUP2 PUSH2 0x6C4 JUMP JUMPDEST DUP3 MSTORE POP POP JUMP JUMPDEST PUSH32 0x4E487B7100000000000000000000000000000000000000000000000000000000 PUSH1 0x0 MSTORE PUSH1 0x21 PUSH1 0x4 MSTORE PUSH1 0x24 PUSH1 0x0 REVERT JUMPDEST PUSH1 0x3 DUP2 LT PUSH2 0x776 JUMPI PUSH2 0x775 PUSH2 0x736 JUMP JUMPDEST JUMPDEST POP JUMP JUMPDEST PUSH1 0x0 DUP2 SWAP1 POP PUSH2 0x787 DUP3 PUSH2 0x765 JUMP JUMPDEST SWAP2 SWAP1 POP JUMP JUMPDEST PUSH1 0x0 PUSH2 0x797 DUP3 PUSH2 0x779 JUMP JUMPDEST SWAP1 POP SWAP2 SWAP1 POP JUMP JUMPDEST PUSH2 0x7A7 DUP2 PUSH2 0x78C JUMP JUMPDEST DUP3 MSTORE POP POP JUMP JUMPDEST PUSH1 0x0 DUP2 ISZERO ISZERO SWAP1 POP SWAP2 SWAP1 POP JUMP JUMPDEST PUSH2 0x7C2 DUP2 PUSH2 0x7AD JUMP JUMPDEST DUP3 MSTORE POP POP JUMP JUMPDEST PUSH1 0x0 PUSH1 0xE0 DUP3 ADD SWAP1 POP PUSH2 0x7DD PUSH1 0x0 DUP4 ADD DUP11 PUSH2 0x727 JUMP JUMPDEST PUSH2 0x7EA PUSH1 0x20 DUP4 ADD DUP10 PUSH2 0x79E JUMP JUMPDEST PUSH2 0x7F7 PUSH1 0x40 DUP4 ADD DUP9 PUSH2 0x727 JUMP JUMPDEST PUSH2 0x804 PUSH1 0x60 DUP4 ADD DUP8 PUSH2 0x7B9 JUMP JUMPDEST PUSH2 0x811 PUSH1 0x80 DUP4 ADD DUP7 PUSH2 0x727 JUMP JUMPDEST PUSH2 0x81E PUSH1 0xA0 DUP4 ADD DUP6 PUSH2 0x727 JUMP JUMPDEST PUSH2 0x82B PUSH1 0xC0 DUP4 ADD DUP5 PUSH2 0x727 JUMP JUMPDEST SWAP9 SWAP8 POP POP POP POP POP POP POP POP JUMP JUMPDEST PUSH1 0x0 PUSH1 0x40 DUP3 ADD SWAP1 POP PUSH2 0x84C PUSH1 0x0 DUP4 ADD DUP6 PUSH2 0x727 JUMP JUMPDEST PUSH2 0x859 PUSH1 0x20 DUP4 ADD DUP5 PUSH2 0x727 JUMP JUMPDEST SWAP4 SWAP3 POP POP POP JUMP JUMPDEST PUSH1 0x0 PUSH1 0x20 DUP3 ADD SWAP1 POP PUSH2 0x875 PUSH1 0x0 DUP4 ADD DUP5 PUSH2 0x727 JUMP JUMPDEST SWAP3 SWAP2 POP POP JUMP JUMPDEST PUSH32 0x4E487B7100000000000000000000000000000000000000000000000000000000 PUSH1 0x0 MSTORE PUSH1 0x32 PUSH1 0x4 MSTORE PUSH1 0x24 PUSH1 0x0 REVERT JUMPDEST PUSH32 0x4E487B7100000000000000000000000000000000000000000000000000000000 PUSH1 0x0 MSTORE PUSH1 0x11 PUSH1 0x4 MSTORE PUSH1 0x24 PUSH1 0x0 REVERT JUMPDEST PUSH1 0x0 PUSH2 0x8E4 DUP3 PUSH2 0x6C4 JUMP JUMPDEST SWAP2 POP PUSH2 0x8EF DUP4 PUSH2 0x6C4 JUMP JUMPDEST SWAP3 POP DUP3 DUP3 LT ISZERO PUSH2 0x902 JUMPI PUSH2 0x901 PUSH2 0x8AA JUMP JUMPDEST JUMPDEST DUP3 DUP3 SUB SWAP1 POP SWAP3 SWAP2 POP POP JUMP JUMPDEST PUSH32 0x4E487B7100000000000000000000000000000000000000000000000000000000 PUSH1 0x0 MSTORE PUSH1 0x12 PUSH1 0x4 MSTORE PUSH1 0x24 PUSH1 0x0 REVERT JUMPDEST PUSH1 0x0 PUSH2 0x947 DUP3 PUSH2 0x6C4 JUMP JUMPDEST SWAP2 POP PUSH2 0x952 DUP4 PUSH2 0x6C4 JUMP JUMPDEST SWAP3 POP DUP3 PUSH2 0x962 JUMPI PUSH2 0x961 PUSH2 0x90D JUMP JUMPDEST JUMPDEST DUP3 DUP3 DIV SWAP1 POP SWAP3 SWAP2 POP POP JUMP JUMPDEST PUSH1 0x0 PUSH2 0x978 DUP3 PUSH2 0x6C4 JUMP JUMPDEST SWAP2 POP PUSH2 0x983 DUP4 PUSH2 0x6C4 JUMP JUMPDEST SWAP3 POP DUP2 PUSH32 0xFFFFFFFFFFFFFFFFFFFFFFFFFFFFFFFFFFFFFFFFFFFFFFFFFFFFFFFFFFFFFFFF DIV DUP4 GT DUP3 ISZERO ISZERO AND ISZERO PUSH2 0x9BC JUMPI PUSH2 0x9BB PUSH2 0x8AA JUMP JUMPDEST JUMPDEST DUP3 DUP3 MUL SWAP1 POP SWAP3 SWAP2 POP POP JUMP JUMPDEST PUSH1 0x0 PUSH2 0x9D2 DUP3 PUSH2 0x6C4 JUMP JUMPDEST SWAP2 POP PUSH2 0x9DD DUP4 PUSH2 0x6C4 JUMP JUMPDEST SWAP3 POP DUP3 PUSH32 0xFFFFFFFFFFFFFFFFFFFFFFFFFFFFFFFFFFFFFFFFFFFFFFFFFFFFFFFFFFFFFFFF SUB DUP3 GT ISZERO PUSH2 0xA12 JUMPI PUSH2 0xA11 PUSH2 0x8AA JUMP JUMPDEST JUMPDEST DUP3 DUP3 ADD SWAP1 POP SWAP3 SWAP2 POP POP JUMP JUMPDEST PUSH1 0x0 DUP2 SWAP1 POP SWAP2 SWAP1 POP JUMP JUMPDEST PUSH2 0xA38 PUSH2 0xA33 DUP3 PUSH2 0x6C4 JUMP JUMPDEST PUSH2 0xA1D JUMP JUMPDEST DUP3 MSTORE POP POP JUMP JUMPDEST PUSH1 0x0 PUSH2 0xA4A DUP3 DUP5 PUSH2 0xA27 JUMP JUMPDEST PUSH1 0x20 DUP3 ADD SWAP2 POP DUP2 SWAP1 POP SWAP3 SWAP2 POP POP JUMP JUMPDEST PUSH1 0x0 DUP3 DUP3 MSTORE PUSH1 0x20 DUP3 ADD SWAP1 POP SWAP3 SWAP2 POP POP JUMP JUMPDEST PUSH32 0x596F7520646964206E6F74207061792074686520636F727265637420616D6F75 PUSH1 0x0 DUP3 ADD MSTORE PUSH32 0x6E74000000000000000000000000000000000000000000000000000000000000 PUSH1 0x20 DUP3 ADD MSTORE POP JUMP JUMPDEST PUSH1 0x0 PUSH2 0xAC6 PUSH1 0x22 DUP4 PUSH2 0xA59 JUMP JUMPDEST SWAP2 POP PUSH2 0xAD1 DUP3 PUSH2 0xA6A JUMP JUMPDEST PUSH1 0x40 DUP3 ADD SWAP1 POP SWAP2 SWAP1 POP JUMP JUMPDEST PUSH1 0x0 PUSH1 0x20 DUP3 ADD SWAP1 POP DUP2 DUP2 SUB PUSH1 0x0 DUP4 ADD MSTORE PUSH2 0xAF5 DUP2 PUSH2 0xAB9 JUMP JUMPDEST SWAP1 POP SWAP2 SWAP1 POP JUMP INVALID LOG2 PUSH5 0x6970667358 0x22 SLT KECCAK256 DUP3 GASLIMIT 0xC BASEFEE 0xE7 PUSH32 0x8511F44A6920DBF0B6EAC9D959ABA0B51F6DB5230455097B9FF064736F6C6343 STOP ADDMOD EXP STOP CALLER "},"gasEstimates":{"creation":{"codeDepositCost":"573200","executionCost":"infinite","totalCost":"infinite"},"external":{"bookRoom(uint256)":"infinite","checkout(uint256)":"infinite","getRoom(uint256)":"infinite","numberOfDoubleRooms()":"2451","numberOfSingleRooms()":"2473","numberOfSuiteRooms()":"2495","pay(uint256)":"52798","rooms(uint256)":"infinite"}},"methodIdentifiers":{"bookRoom(uint256)":"5f49d3d8","checkout(uint256)":"4c9ba852","getRoom(uint256)":"6d8a74cb","numberOfDoubleRooms()":"ccfb0182","numberOfSingleRooms()":"dab3a89f","numberOfSuiteRooms()":"e8597493","pay(uint256)":"c290d691","rooms(uint256)":"1bae0ac8"}},"storageLayout":{"storage":[{"astId":23,"contract":"Hotel.sol:Hotel","label":"numberOfSingleRooms","offset":0,"slot":"0","type":"t_uint256"},{"astId":25,"contract":"Hotel.sol:Hotel","label":"numberOfDoubleRooms","offset":0,"slot":"1","type":"t_uint256"},{"astId":27,"contract":"Hotel.sol:Hotel","label":"numberOfSuiteRooms","offset":0,"slot":"2","type":"t_uint256"},{"astId":31,"contract":"Hotel.sol:Hotel","label":"rooms","offset":0,"slot":"3","type":"t_array(t_struct(Room)21_storage)dyn_storage"}],"types":{"t_array(t_struct(Room)21_storage)dyn_storage":{"base":"t_struct(Room)21_storage","encoding":"dynamic_array","label":"struct Hotel.Room[]","numberOfBytes":"32"},"t_bool":{"encoding":"inplace","label":"bool","numberOfBytes":"1"},"t_enum(RoomType)5":{"encoding":"inplace","label":"enum Hotel.RoomType","numberOfBytes":"1"},"t_struct(Room)21_storage":{"encoding":"inplace","label":"struct Hotel.Room","members":[{"astId":7,"contract":"Hotel.sol:Hotel","label":"price","offset":0,"slot":"0","type":"t_uint256"},{"astId":10,"contract":"Hotel.sol:Hotel","label":"typeOfRoom","offset":0,"slot":"1","type":"t_enum(RoomType)5"},{"astId":12,"contract":"Hotel.sol:Hotel","label":"roomNumber","offset":0,"slot":"2","type":"t_uint256"},{"astId":14,"contract":"Hotel.sol:Hotel","label":"occupied","offset":0,"slot":"3","type":"t_bool"},{"astId":16,"contract":"Hotel.sol:Hotel","label":"start","offset":0,"slot":"4","type":"t_uint256"},{"astId":18,"contract":"Hotel.sol:Hotel","label":"end","offset":0,"slot":"5","type":"t_uint256"},{"astId":20,"contract":"Hotel.sol:Hotel","label":"owing","offset":0,"slot":"6","type":"t_uint256"}],"numberOfBytes":"224"},"t_uint256":{"encoding":"inplace","label":"uint256","numberOfBytes":"32"}}},"userdoc":{"kind":"user","methods":{},"version":1}}