{"abi":[{"inputs":[],"stateMutability":"nonpayable","type":"constructor"},{"inputs":[{"internalType":"uint256","name":"index","type":"uint256"}],"name":"bookRoom","outputs":[{"internalType":"uint256","name":"roomNumber","type":"uint256"},{"internalType":"uint256","name":"roomKey","type":"uint256"}],"stateMutability":"nonpayable","type":"function"},{"inputs":[{"internalType":"uint256","name":"index","type":"uint256"}],"name":"checkout","outputs":[],"stateMutability":"nonpayable","type":"function"},{"inputs":[{"internalType":"uint256","name":"index","type":"uint256"}],"name":"getRoom","outputs":[{"internalType":"uint256","name":"price","type":"uint256"},{"internalType":"enum Hotel.RoomType","name":"typeOfRoom","type":"uint8"},{"internalType":"uint256","name":"roomNumber","type":"uint256"},{"internalType":"bool","name":"occupied","type":"bool"},{"internalType":"uint256","name":"start","type":"uint256"},{"internalType":"uint256","name":"end","type":"uint256"},{"internalType":"uint256","name":"owing","type":"uint256"}],"stateMutability":"view","type":"function"},{"inputs":[],"name":"numberOfDoubleRooms","outputs":[{"internalType":"uint256","name":"","type":"uint256"}],"stateMutability":"view","type":"function"},{"inputs":[],"name":"numberOfSingleRooms","outputs":[{"internalType":"uint256","name":"","type":"uint256"}],"stateMutability":"view","type":"function"},{"inputs":[],"name":"numberOfSuiteRooms","outputs":[{"internalType":"uint256","name":"","type":"uint256"}],"stateMutability":"view","type":"function"},{"inputs":[{"internalType":"uint256","name":"index","type":"uint256"}],"name":"pay","outputs":[],"stateMutability":"payable","type":"function"},{"inputs":[{"internalType":"uint256","name":"","type":"uint256"}],"name":"rooms","outputs":[{"internalType":"uint256","name":"price","type":"uint256"},{"internalType":"enum Hotel.RoomType","name":"typeOfRoom","type":"uint8"},{"internalType":"uint256","name":"roomNumber","type":"uint256"},{"internalType":"bool","name":"occupied","type":"bool"},{"internalType":"uint256","name":"start","type":"uint256"},{"internalType":"uint256","name":"end","type":"uint256"},{"internalType":"uint256","name":"owing","type":"uint256"}],"stateMutability":"view","type":"function"},{"inputs":[],"name":"withdraw","outputs":[],"stateMutability":"nonpayable","type":"function"}],"devdoc":{"kind":"dev","methods":{},"version":1},"evm":{"assembly":"    /* \"Hotel.sol\":57:3720  contract Hotel {... */\n  mstore(0x40, 0x80)\n    /* \"Hotel.sol\":559:1935  constructor () {... */\n  callvalue\n  dup1\n  iszero\n  tag_1\n  jumpi\n  0x00\n  dup1\n  revert\ntag_1:\n  pop\n    /* \"Hotel.sol\":592:602  msg.sender */\n  caller\n    /* \"Hotel.sol\":584:589  owner */\n  0x00\n  dup1\n    /* \"Hotel.sol\":584:602  owner = msg.sender */\n  0x0100\n  exp\n  dup2\n  sload\n  dup2\n  0xffffffffffffffffffffffffffffffffffffffff\n  mul\n  not\n  and\n  swap1\n  dup4\n  0xffffffffffffffffffffffffffffffffffffffff\n  and\n  mul\n  or\n  swap1\n  sstore\n  pop\n    /* \"Hotel.sol\":634:636  15 */\n  0x0f\n    /* \"Hotel.sol\":612:631  numberOfSingleRooms */\n  0x01\n    /* \"Hotel.sol\":612:636  numberOfSingleRooms = 15 */\n  dup2\n  swap1\n  sstore\n  pop\n    /* \"Hotel.sol\":668:670  10 */\n  0x0a\n    /* \"Hotel.sol\":646:665  numberOfDoubleRooms */\n  0x02\n    /* \"Hotel.sol\":646:670  numberOfDoubleRooms = 10 */\n  dup2\n  swap1\n  sstore\n  pop\n    /* \"Hotel.sol\":701:702  5 */\n  0x05\n    /* \"Hotel.sol\":680:698  numberOfSuiteRooms */\n  0x03\n    /* \"Hotel.sol\":680:702  numberOfSuiteRooms = 5 */\n  dup2\n  swap1\n  sstore\n  pop\n    /* \"Hotel.sol\":718:724  uint i */\n  0x00\n    /* \"Hotel.sol\":713:1929  for (uint i=0; i<30; i++) {... */\ntag_4:\n    /* \"Hotel.sol\":730:732  30 */\n  0x1e\n    /* \"Hotel.sol\":728:729  i */\n  dup2\n    /* \"Hotel.sol\":728:732  i<30 */\n  lt\n    /* \"Hotel.sol\":713:1929  for (uint i=0; i<30; i++) {... */\n  iszero\n  tag_5\n  jumpi\n    /* \"Hotel.sol\":762:763  i */\n  dup1\n    /* \"Hotel.sol\":757:758  0 */\n  0x00\n    /* \"Hotel.sol\":757:763  0 <= i */\n  gt\n  iszero\n    /* \"Hotel.sol\":757:773  0 <= i && i < 15 */\n  dup1\n  iszero\n  tag_7\n  jumpi\n  pop\n    /* \"Hotel.sol\":771:773  15 */\n  0x0f\n    /* \"Hotel.sol\":767:768  i */\n  dup2\n    /* \"Hotel.sol\":767:773  i < 15 */\n  lt\n    /* \"Hotel.sol\":757:773  0 <= i && i < 15 */\ntag_7:\n    /* \"Hotel.sol\":753:1919  if (0 <= i && i < 15) {... */\n  iszero\n  tag_8\n  jumpi\n    /* \"Hotel.sol\":793:809  Room memory room */\n  0x00\n    /* \"Hotel.sol\":812:1095  Room({... */\n  mload(0x40)\n  dup1\n  0xe0\n  add\n  0x40\n  mstore\n  dup1\n    /* \"Hotel.sol\":846:863  20000000000000000 */\n  0x470de4df820000\n    /* \"Hotel.sol\":812:1095  Room({... */\n  dup2\n  mstore\n  0x20\n  add\n    /* \"Hotel.sol\":897:912  RoomType.SINGLE */\n  0x00\n    /* \"Hotel.sol\":812:1095  Room({... */\n  0x02\n  dup2\n  gt\n  iszero\n  tag_9\n  jumpi\n  tag_10\n  tag_11\n  jump\t// in\ntag_10:\ntag_9:\n  dup2\n  mstore\n  0x20\n  add\n    /* \"Hotel.sol\":950:951  1 */\n  0x01\n    /* \"Hotel.sol\":946:947  i */\n  dup5\n    /* \"Hotel.sol\":946:951  i + 1 */\n  tag_12\n  swap2\n  swap1\n  tag_13\n  jump\t// in\ntag_12:\n    /* \"Hotel.sol\":812:1095  Room({... */\n  dup2\n  mstore\n  0x20\n  add\n    /* \"Hotel.sol\":983:988  false */\n  0x00\n    /* \"Hotel.sol\":812:1095  Room({... */\n  iszero\n  iszero\n  dup2\n  mstore\n  0x20\n  add\n    /* \"Hotel.sol\":1017:1018  0 */\n  0x00\n    /* \"Hotel.sol\":812:1095  Room({... */\n  dup2\n  mstore\n  0x20\n  add\n    /* \"Hotel.sol\":1045:1046  0 */\n  0x00\n    /* \"Hotel.sol\":812:1095  Room({... */\n  dup2\n  mstore\n  0x20\n  add\n    /* \"Hotel.sol\":1075:1076  0 */\n  0x00\n    /* \"Hotel.sol\":812:1095  Room({... */\n  dup2\n  mstore\n  pop\n    /* \"Hotel.sol\":793:1095  Room memory room = Room({... */\n  swap1\n  pop\n    /* \"Hotel.sol\":1114:1119  rooms */\n  0x04\n    /* \"Hotel.sol\":1125:1129  room */\n  dup2\n    /* \"Hotel.sol\":1114:1130  rooms.push(room) */\n  swap1\n  dup1\n  0x01\n  dup2\n  sload\n  add\n  dup1\n  dup3\n  sstore\n  dup1\n  swap2\n  pop\n  pop\n  0x01\n  swap1\n  sub\n  swap1\n  0x00\n  mstore\n  keccak256(0x00, 0x20)\n  swap1\n  0x07\n  mul\n  add\n  0x00\n  swap1\n  swap2\n  swap1\n  swap2\n  swap1\n  swap2\n  pop\n  0x00\n  dup3\n  add\n  mload\n  dup2\n  0x00\n  add\n  sstore\n  0x20\n  dup3\n  add\n  mload\n  dup2\n  0x01\n  add\n  exp(0x0100, 0x00)\n  dup2\n  sload\n  dup2\n  0xff\n  mul\n  not\n  and\n  swap1\n  dup4\n  0x02\n  dup2\n  gt\n  iszero\n  tag_15\n  jumpi\n  tag_16\n  tag_11\n  jump\t// in\ntag_16:\ntag_15:\n  mul\n  or\n  swap1\n  sstore\n  pop\n  0x40\n  dup3\n  add\n  mload\n  dup2\n  0x02\n  add\n  sstore\n  0x60\n  dup3\n  add\n  mload\n  dup2\n  0x03\n  add\n  exp(0x0100, 0x00)\n  dup2\n  sload\n  dup2\n  0xff\n  mul\n  not\n  and\n  swap1\n  dup4\n  iszero\n  iszero\n  mul\n  or\n  swap1\n  sstore\n  pop\n  0x80\n  dup3\n  add\n  mload\n  dup2\n  0x04\n  add\n  sstore\n  0xa0\n  dup3\n  add\n  mload\n  dup2\n  0x05\n  add\n  sstore\n  0xc0\n  dup3\n  add\n  mload\n  dup2\n  0x06\n  add\n  sstore\n  pop\n  pop\n    /* \"Hotel.sol\":775:1145  {... */\n  pop\n    /* \"Hotel.sol\":753:1919  if (0 <= i && i < 15) {... */\n  jump(tag_17)\ntag_8:\n    /* \"Hotel.sol\":1161:1162  i */\n  dup1\n    /* \"Hotel.sol\":1155:1157  15 */\n  0x0f\n    /* \"Hotel.sol\":1155:1162  15 <= i */\n  gt\n  iszero\n    /* \"Hotel.sol\":1155:1172  15 <= i && i < 25 */\n  dup1\n  iszero\n  tag_18\n  jumpi\n  pop\n    /* \"Hotel.sol\":1170:1172  25 */\n  0x19\n    /* \"Hotel.sol\":1166:1167  i */\n  dup2\n    /* \"Hotel.sol\":1166:1172  i < 25 */\n  lt\n    /* \"Hotel.sol\":1155:1172  15 <= i && i < 25 */\ntag_18:\n    /* \"Hotel.sol\":1151:1919  if (15 <= i && i < 25) {... */\n  iszero\n  tag_19\n  jumpi\n    /* \"Hotel.sol\":1192:1208  Room memory room */\n  0x00\n    /* \"Hotel.sol\":1211:1494  Room({... */\n  mload(0x40)\n  dup1\n  0xe0\n  add\n  0x40\n  mstore\n  dup1\n    /* \"Hotel.sol\":1245:1262  40000000000000000 */\n  0x8e1bc9bf040000\n    /* \"Hotel.sol\":1211:1494  Room({... */\n  dup2\n  mstore\n  0x20\n  add\n    /* \"Hotel.sol\":1296:1311  RoomType.DOUBLE */\n  0x01\n    /* \"Hotel.sol\":1211:1494  Room({... */\n  0x02\n  dup2\n  gt\n  iszero\n  tag_20\n  jumpi\n  tag_21\n  tag_11\n  jump\t// in\ntag_21:\ntag_20:\n  dup2\n  mstore\n  0x20\n  add\n    /* \"Hotel.sol\":1349:1350  1 */\n  0x01\n    /* \"Hotel.sol\":1345:1346  i */\n  dup5\n    /* \"Hotel.sol\":1345:1350  i + 1 */\n  tag_22\n  swap2\n  swap1\n  tag_13\n  jump\t// in\ntag_22:\n    /* \"Hotel.sol\":1211:1494  Room({... */\n  dup2\n  mstore\n  0x20\n  add\n    /* \"Hotel.sol\":1382:1387  false */\n  0x00\n    /* \"Hotel.sol\":1211:1494  Room({... */\n  iszero\n  iszero\n  dup2\n  mstore\n  0x20\n  add\n    /* \"Hotel.sol\":1416:1417  0 */\n  0x00\n    /* \"Hotel.sol\":1211:1494  Room({... */\n  dup2\n  mstore\n  0x20\n  add\n    /* \"Hotel.sol\":1444:1445  0 */\n  0x00\n    /* \"Hotel.sol\":1211:1494  Room({... */\n  dup2\n  mstore\n  0x20\n  add\n    /* \"Hotel.sol\":1474:1475  0 */\n  0x00\n    /* \"Hotel.sol\":1211:1494  Room({... */\n  dup2\n  mstore\n  pop\n    /* \"Hotel.sol\":1192:1494  Room memory room = Room({... */\n  swap1\n  pop\n    /* \"Hotel.sol\":1513:1518  rooms */\n  0x04\n    /* \"Hotel.sol\":1524:1528  room */\n  dup2\n    /* \"Hotel.sol\":1513:1529  rooms.push(room) */\n  swap1\n  dup1\n  0x01\n  dup2\n  sload\n  add\n  dup1\n  dup3\n  sstore\n  dup1\n  swap2\n  pop\n  pop\n  0x01\n  swap1\n  sub\n  swap1\n  0x00\n  mstore\n  keccak256(0x00, 0x20)\n  swap1\n  0x07\n  mul\n  add\n  0x00\n  swap1\n  swap2\n  swap1\n  swap2\n  swap1\n  swap2\n  pop\n  0x00\n  dup3\n  add\n  mload\n  dup2\n  0x00\n  add\n  sstore\n  0x20\n  dup3\n  add\n  mload\n  dup2\n  0x01\n  add\n  exp(0x0100, 0x00)\n  dup2\n  sload\n  dup2\n  0xff\n  mul\n  not\n  and\n  swap1\n  dup4\n  0x02\n  dup2\n  gt\n  iszero\n  tag_24\n  jumpi\n  tag_25\n  tag_11\n  jump\t// in\ntag_25:\ntag_24:\n  mul\n  or\n  swap1\n  sstore\n  pop\n  0x40\n  dup3\n  add\n  mload\n  dup2\n  0x02\n  add\n  sstore\n  0x60\n  dup3\n  add\n  mload\n  dup2\n  0x03\n  add\n  exp(0x0100, 0x00)\n  dup2\n  sload\n  dup2\n  0xff\n  mul\n  not\n  and\n  swap1\n  dup4\n  iszero\n  iszero\n  mul\n  or\n  swap1\n  sstore\n  pop\n  0x80\n  dup3\n  add\n  mload\n  dup2\n  0x04\n  add\n  sstore\n  0xa0\n  dup3\n  add\n  mload\n  dup2\n  0x05\n  add\n  sstore\n  0xc0\n  dup3\n  add\n  mload\n  dup2\n  0x06\n  add\n  sstore\n  pop\n  pop\n    /* \"Hotel.sol\":1174:1544  {... */\n  pop\n    /* \"Hotel.sol\":1151:1919  if (15 <= i && i < 25) {... */\n  jump(tag_26)\ntag_19:\n    /* \"Hotel.sol\":1568:1584  Room memory room */\n  0x00\n    /* \"Hotel.sol\":1587:1869  Room({... */\n  mload(0x40)\n  dup1\n  0xe0\n  add\n  0x40\n  mstore\n  dup1\n    /* \"Hotel.sol\":1621:1638  60000000000000000 */\n  0xd529ae9e860000\n    /* \"Hotel.sol\":1587:1869  Room({... */\n  dup2\n  mstore\n  0x20\n  add\n    /* \"Hotel.sol\":1672:1686  RoomType.SUITE */\n  0x02\n    /* \"Hotel.sol\":1587:1869  Room({... */\n  dup1\n  dup2\n  gt\n  iszero\n  tag_27\n  jumpi\n  tag_28\n  tag_11\n  jump\t// in\ntag_28:\ntag_27:\n  dup2\n  mstore\n  0x20\n  add\n    /* \"Hotel.sol\":1724:1725  1 */\n  0x01\n    /* \"Hotel.sol\":1720:1721  i */\n  dup5\n    /* \"Hotel.sol\":1720:1725  i + 1 */\n  tag_29\n  swap2\n  swap1\n  tag_13\n  jump\t// in\ntag_29:\n    /* \"Hotel.sol\":1587:1869  Room({... */\n  dup2\n  mstore\n  0x20\n  add\n    /* \"Hotel.sol\":1757:1762  false */\n  0x00\n    /* \"Hotel.sol\":1587:1869  Room({... */\n  iszero\n  iszero\n  dup2\n  mstore\n  0x20\n  add\n    /* \"Hotel.sol\":1791:1792  0 */\n  0x00\n    /* \"Hotel.sol\":1587:1869  Room({... */\n  dup2\n  mstore\n  0x20\n  add\n    /* \"Hotel.sol\":1819:1820  0 */\n  0x00\n    /* \"Hotel.sol\":1587:1869  Room({... */\n  dup2\n  mstore\n  0x20\n  add\n    /* \"Hotel.sol\":1849:1850  0 */\n  0x00\n    /* \"Hotel.sol\":1587:1869  Room({... */\n  dup2\n  mstore\n  pop\n    /* \"Hotel.sol\":1568:1869  Room memory room = Room({... */\n  swap1\n  pop\n    /* \"Hotel.sol\":1888:1893  rooms */\n  0x04\n    /* \"Hotel.sol\":1899:1903  room */\n  dup2\n    /* \"Hotel.sol\":1888:1904  rooms.push(room) */\n  swap1\n  dup1\n  0x01\n  dup2\n  sload\n  add\n  dup1\n  dup3\n  sstore\n  dup1\n  swap2\n  pop\n  pop\n  0x01\n  swap1\n  sub\n  swap1\n  0x00\n  mstore\n  keccak256(0x00, 0x20)\n  swap1\n  0x07\n  mul\n  add\n  0x00\n  swap1\n  swap2\n  swap1\n  swap2\n  swap1\n  swap2\n  pop\n  0x00\n  dup3\n  add\n  mload\n  dup2\n  0x00\n  add\n  sstore\n  0x20\n  dup3\n  add\n  mload\n  dup2\n  0x01\n  add\n  exp(0x0100, 0x00)\n  dup2\n  sload\n  dup2\n  0xff\n  mul\n  not\n  and\n  swap1\n  dup4\n  0x02\n  dup2\n  gt\n  iszero\n  tag_31\n  jumpi\n  tag_32\n  tag_11\n  jump\t// in\ntag_32:\ntag_31:\n  mul\n  or\n  swap1\n  sstore\n  pop\n  0x40\n  dup3\n  add\n  mload\n  dup2\n  0x02\n  add\n  sstore\n  0x60\n  dup3\n  add\n  mload\n  dup2\n  0x03\n  add\n  exp(0x0100, 0x00)\n  dup2\n  sload\n  dup2\n  0xff\n  mul\n  not\n  and\n  swap1\n  dup4\n  iszero\n  iszero\n  mul\n  or\n  swap1\n  sstore\n  pop\n  0x80\n  dup3\n  add\n  mload\n  dup2\n  0x04\n  add\n  sstore\n  0xa0\n  dup3\n  add\n  mload\n  dup2\n  0x05\n  add\n  sstore\n  0xc0\n  dup3\n  add\n  mload\n  dup2\n  0x06\n  add\n  sstore\n  pop\n  pop\n    /* \"Hotel.sol\":1550:1919  {... */\n  pop\n    /* \"Hotel.sol\":1151:1919  if (15 <= i && i < 25) {... */\ntag_26:\n    /* \"Hotel.sol\":753:1919  if (0 <= i && i < 15) {... */\ntag_17:\n    /* \"Hotel.sol\":734:737  i++ */\n  dup1\n  dup1\n  tag_33\n  swap1\n  tag_34\n  jump\t// in\ntag_33:\n  swap2\n  pop\n  pop\n    /* \"Hotel.sol\":713:1929  for (uint i=0; i<30; i++) {... */\n  jump(tag_4)\ntag_5:\n  pop\n    /* \"Hotel.sol\":57:3720  contract Hotel {... */\n  jump(tag_35)\n    /* \"#utility.yul\":7:187   */\ntag_11:\n    /* \"#utility.yul\":55:132   */\n  0x4e487b7100000000000000000000000000000000000000000000000000000000\n    /* \"#utility.yul\":52:53   */\n  0x00\n    /* \"#utility.yul\":45:133   */\n  mstore\n    /* \"#utility.yul\":152:156   */\n  0x21\n    /* \"#utility.yul\":149:150   */\n  0x04\n    /* \"#utility.yul\":142:157   */\n  mstore\n    /* \"#utility.yul\":176:180   */\n  0x24\n    /* \"#utility.yul\":173:174   */\n  0x00\n    /* \"#utility.yul\":166:181   */\n  revert\n    /* \"#utility.yul\":193:270   */\ntag_36:\n    /* \"#utility.yul\":230:237   */\n  0x00\n    /* \"#utility.yul\":259:264   */\n  dup2\n    /* \"#utility.yul\":248:264   */\n  swap1\n  pop\n    /* \"#utility.yul\":193:270   */\n  swap2\n  swap1\n  pop\n  jump\t// out\n    /* \"#utility.yul\":276:456   */\ntag_37:\n    /* \"#utility.yul\":324:401   */\n  0x4e487b7100000000000000000000000000000000000000000000000000000000\n    /* \"#utility.yul\":321:322   */\n  0x00\n    /* \"#utility.yul\":314:402   */\n  mstore\n    /* \"#utility.yul\":421:425   */\n  0x11\n    /* \"#utility.yul\":418:419   */\n  0x04\n    /* \"#utility.yul\":411:426   */\n  mstore\n    /* \"#utility.yul\":445:449   */\n  0x24\n    /* \"#utility.yul\":442:443   */\n  0x00\n    /* \"#utility.yul\":435:450   */\n  revert\n    /* \"#utility.yul\":462:767   */\ntag_13:\n    /* \"#utility.yul\":502:505   */\n  0x00\n    /* \"#utility.yul\":521:541   */\n  tag_43\n    /* \"#utility.yul\":539:540   */\n  dup3\n    /* \"#utility.yul\":521:541   */\n  tag_36\n  jump\t// in\ntag_43:\n    /* \"#utility.yul\":516:541   */\n  swap2\n  pop\n    /* \"#utility.yul\":555:575   */\n  tag_44\n    /* \"#utility.yul\":573:574   */\n  dup4\n    /* \"#utility.yul\":555:575   */\n  tag_36\n  jump\t// in\ntag_44:\n    /* \"#utility.yul\":550:575   */\n  swap3\n  pop\n    /* \"#utility.yul\":709:710   */\n  dup3\n    /* \"#utility.yul\":641:707   */\n  0xffffffffffffffffffffffffffffffffffffffffffffffffffffffffffffffff\n    /* \"#utility.yul\":637:711   */\n  sub\n    /* \"#utility.yul\":634:635   */\n  dup3\n    /* \"#utility.yul\":631:712   */\n  gt\n    /* \"#utility.yul\":628:735   */\n  iszero\n  tag_45\n  jumpi\n    /* \"#utility.yul\":715:733   */\n  tag_46\n  tag_37\n  jump\t// in\ntag_46:\n    /* \"#utility.yul\":628:735   */\ntag_45:\n    /* \"#utility.yul\":759:760   */\n  dup3\n    /* \"#utility.yul\":756:757   */\n  dup3\n    /* \"#utility.yul\":752:761   */\n  add\n    /* \"#utility.yul\":745:761   */\n  swap1\n  pop\n    /* \"#utility.yul\":462:767   */\n  swap3\n  swap2\n  pop\n  pop\n  jump\t// out\n    /* \"#utility.yul\":773:1006   */\ntag_34:\n    /* \"#utility.yul\":812:815   */\n  0x00\n    /* \"#utility.yul\":835:859   */\n  tag_48\n    /* \"#utility.yul\":853:858   */\n  dup3\n    /* \"#utility.yul\":835:859   */\n  tag_36\n  jump\t// in\ntag_48:\n    /* \"#utility.yul\":826:859   */\n  swap2\n  pop\n    /* \"#utility.yul\":881:947   */\n  0xffffffffffffffffffffffffffffffffffffffffffffffffffffffffffffffff\n    /* \"#utility.yul\":874:879   */\n  dup3\n    /* \"#utility.yul\":871:948   */\n  eq\n    /* \"#utility.yul\":868:971   */\n  iszero\n  tag_49\n  jumpi\n    /* \"#utility.yul\":951:969   */\n  tag_50\n  tag_37\n  jump\t// in\ntag_50:\n    /* \"#utility.yul\":868:971   */\ntag_49:\n    /* \"#utility.yul\":998:999   */\n  0x01\n    /* \"#utility.yul\":991:996   */\n  dup3\n    /* \"#utility.yul\":987:1000   */\n  add\n    /* \"#utility.yul\":980:1000   */\n  swap1\n  pop\n    /* \"#utility.yul\":773:1006   */\n  swap2\n  swap1\n  pop\n  jump\t// out\n    /* \"Hotel.sol\":57:3720  contract Hotel {... */\ntag_35:\n  dataSize(sub_0)\n  dup1\n  dataOffset(sub_0)\n  0x00\n  codecopy\n  0x00\n  return\nstop\n\nsub_0: assembly {\n        /* \"Hotel.sol\":57:3720  contract Hotel {... */\n      mstore(0x40, 0x80)\n      jumpi(tag_1, lt(calldatasize, 0x04))\n      shr(0xe0, calldataload(0x00))\n      dup1\n      0x6d8a74cb\n      gt\n      tag_11\n      jumpi\n      dup1\n      0x6d8a74cb\n      eq\n      tag_6\n      jumpi\n      dup1\n      0xc290d691\n      eq\n      tag_7\n      jumpi\n      dup1\n      0xccfb0182\n      eq\n      tag_8\n      jumpi\n      dup1\n      0xdab3a89f\n      eq\n      tag_9\n      jumpi\n      dup1\n      0xe8597493\n      eq\n      tag_10\n      jumpi\n      jump(tag_1)\n    tag_11:\n      dup1\n      0x1bae0ac8\n      eq\n      tag_2\n      jumpi\n      dup1\n      0x3ccfd60b\n      eq\n      tag_3\n      jumpi\n      dup1\n      0x4c9ba852\n      eq\n      tag_4\n      jumpi\n      dup1\n      0x5f49d3d8\n      eq\n      tag_5\n      jumpi\n    tag_1:\n      0x00\n      dup1\n      revert\n        /* \"Hotel.sol\":533:552  Room[] public rooms */\n    tag_2:\n      callvalue\n      dup1\n      iszero\n      tag_12\n      jumpi\n      0x00\n      dup1\n      revert\n    tag_12:\n      pop\n      tag_13\n      0x04\n      dup1\n      calldatasize\n      sub\n      dup2\n      add\n      swap1\n      tag_14\n      swap2\n      swap1\n      tag_15\n      jump\t// in\n    tag_14:\n      tag_16\n      jump\t// in\n    tag_13:\n      mload(0x40)\n      tag_17\n      swap8\n      swap7\n      swap6\n      swap5\n      swap4\n      swap3\n      swap2\n      swap1\n      tag_18\n      jump\t// in\n    tag_17:\n      mload(0x40)\n      dup1\n      swap2\n      sub\n      swap1\n      return\n        /* \"Hotel.sol\":3564:3718  function withdraw() public {... */\n    tag_3:\n      callvalue\n      dup1\n      iszero\n      tag_19\n      jumpi\n      0x00\n      dup1\n      revert\n    tag_19:\n      pop\n      tag_20\n      tag_21\n      jump\t// in\n    tag_20:\n      stop\n        /* \"Hotel.sol\":3008:3282  function checkout(uint index) external {... */\n    tag_4:\n      callvalue\n      dup1\n      iszero\n      tag_22\n      jumpi\n      0x00\n      dup1\n      revert\n    tag_22:\n      pop\n      tag_23\n      0x04\n      dup1\n      calldatasize\n      sub\n      dup2\n      add\n      swap1\n      tag_24\n      swap2\n      swap1\n      tag_15\n      jump\t// in\n    tag_24:\n      tag_25\n      jump\t// in\n    tag_23:\n      stop\n        /* \"Hotel.sol\":2682:3002  function bookRoom(uint index) external returns (uint roomNumber, uint roomKey) {... */\n    tag_5:\n      callvalue\n      dup1\n      iszero\n      tag_26\n      jumpi\n      0x00\n      dup1\n      revert\n    tag_26:\n      pop\n      tag_27\n      0x04\n      dup1\n      calldatasize\n      sub\n      dup2\n      add\n      swap1\n      tag_28\n      swap2\n      swap1\n      tag_15\n      jump\t// in\n    tag_28:\n      tag_29\n      jump\t// in\n    tag_27:\n      mload(0x40)\n      tag_30\n      swap3\n      swap2\n      swap1\n      tag_31\n      jump\t// in\n    tag_30:\n      mload(0x40)\n      dup1\n      swap2\n      sub\n      swap1\n      return\n        /* \"Hotel.sol\":2162:2582  function getRoom(uint index) external view returns (uint price, RoomType typeOfRoom, uint roomNumber, bool occupied, uint start, uint end, uint owing) {... */\n    tag_6:\n      callvalue\n      dup1\n      iszero\n      tag_32\n      jumpi\n      0x00\n      dup1\n      revert\n    tag_32:\n      pop\n      tag_33\n      0x04\n      dup1\n      calldatasize\n      sub\n      dup2\n      add\n      swap1\n      tag_34\n      swap2\n      swap1\n      tag_15\n      jump\t// in\n    tag_34:\n      tag_35\n      jump\t// in\n    tag_33:\n      mload(0x40)\n      tag_36\n      swap8\n      swap7\n      swap6\n      swap5\n      swap4\n      swap3\n      swap2\n      swap1\n      tag_18\n      jump\t// in\n    tag_36:\n      mload(0x40)\n      dup1\n      swap2\n      sub\n      swap1\n      return\n        /* \"Hotel.sol\":3288:3558  function pay(uint index) external payable {... */\n    tag_7:\n      tag_37\n      0x04\n      dup1\n      calldatasize\n      sub\n      dup2\n      add\n      swap1\n      tag_38\n      swap2\n      swap1\n      tag_15\n      jump\t// in\n    tag_38:\n      tag_39\n      jump\t// in\n    tag_37:\n      stop\n        /* \"Hotel.sol\":426:457  uint public numberOfDoubleRooms */\n    tag_8:\n      callvalue\n      dup1\n      iszero\n      tag_40\n      jumpi\n      0x00\n      dup1\n      revert\n    tag_40:\n      pop\n      tag_41\n      tag_42\n      jump\t// in\n    tag_41:\n      mload(0x40)\n      tag_43\n      swap2\n      swap1\n      tag_44\n      jump\t// in\n    tag_43:\n      mload(0x40)\n      dup1\n      swap2\n      sub\n      swap1\n      return\n        /* \"Hotel.sol\":354:385  uint public numberOfSingleRooms */\n    tag_9:\n      callvalue\n      dup1\n      iszero\n      tag_45\n      jumpi\n      0x00\n      dup1\n      revert\n    tag_45:\n      pop\n      tag_46\n      tag_47\n      jump\t// in\n    tag_46:\n      mload(0x40)\n      tag_48\n      swap2\n      swap1\n      tag_44\n      jump\t// in\n    tag_48:\n      mload(0x40)\n      dup1\n      swap2\n      sub\n      swap1\n      return\n        /* \"Hotel.sol\":497:527  uint public numberOfSuiteRooms */\n    tag_10:\n      callvalue\n      dup1\n      iszero\n      tag_49\n      jumpi\n      0x00\n      dup1\n      revert\n    tag_49:\n      pop\n      tag_50\n      tag_51\n      jump\t// in\n    tag_50:\n      mload(0x40)\n      tag_52\n      swap2\n      swap1\n      tag_44\n      jump\t// in\n    tag_52:\n      mload(0x40)\n      dup1\n      swap2\n      sub\n      swap1\n      return\n        /* \"Hotel.sol\":533:552  Room[] public rooms */\n    tag_16:\n      0x04\n      dup2\n      dup2\n      sload\n      dup2\n      lt\n      tag_53\n      jumpi\n      0x00\n      dup1\n      revert\n    tag_53:\n      swap1\n      0x00\n      mstore\n      keccak256(0x00, 0x20)\n      swap1\n      0x07\n      mul\n      add\n      0x00\n      swap2\n      pop\n      swap1\n      pop\n      dup1\n      0x00\n      add\n      sload\n      swap1\n      dup1\n      0x01\n      add\n      0x00\n      swap1\n      sload\n      swap1\n      0x0100\n      exp\n      swap1\n      div\n      0xff\n      and\n      swap1\n      dup1\n      0x02\n      add\n      sload\n      swap1\n      dup1\n      0x03\n      add\n      0x00\n      swap1\n      sload\n      swap1\n      0x0100\n      exp\n      swap1\n      div\n      0xff\n      and\n      swap1\n      dup1\n      0x04\n      add\n      sload\n      swap1\n      dup1\n      0x05\n      add\n      sload\n      swap1\n      dup1\n      0x06\n      add\n      sload\n      swap1\n      pop\n      dup8\n      jump\t// out\n        /* \"Hotel.sol\":3564:3718  function withdraw() public {... */\n    tag_21:\n        /* \"Hotel.sol\":3618:3628  msg.sender */\n      caller\n        /* \"Hotel.sol\":3609:3628  owner == msg.sender */\n      0xffffffffffffffffffffffffffffffffffffffff\n      and\n        /* \"Hotel.sol\":3609:3614  owner */\n      0x00\n      dup1\n      sload\n      swap1\n      0x0100\n      exp\n      swap1\n      div\n      0xffffffffffffffffffffffffffffffffffffffff\n      and\n        /* \"Hotel.sol\":3609:3628  owner == msg.sender */\n      0xffffffffffffffffffffffffffffffffffffffff\n      and\n      eq\n        /* \"Hotel.sol\":3601:3654  require(owner == msg.sender, \"You are not the owner\") */\n      tag_56\n      jumpi\n      mload(0x40)\n      0x08c379a000000000000000000000000000000000000000000000000000000000\n      dup2\n      mstore\n      0x04\n      add\n      tag_57\n      swap1\n      tag_58\n      jump\t// in\n    tag_57:\n      mload(0x40)\n      dup1\n      swap2\n      sub\n      swap1\n      revert\n    tag_56:\n        /* \"Hotel.sol\":3673:3678  owner */\n      0x00\n      dup1\n      sload\n      swap1\n      0x0100\n      exp\n      swap1\n      div\n      0xffffffffffffffffffffffffffffffffffffffff\n      and\n        /* \"Hotel.sol\":3665:3688  payable(owner).transfer */\n      0xffffffffffffffffffffffffffffffffffffffff\n      and\n        /* \"Hotel.sol\":3665:3711  payable(owner).transfer(address(this).balance) */\n      0x08fc\n        /* \"Hotel.sol\":3689:3710  address(this).balance */\n      selfbalance\n        /* \"Hotel.sol\":3665:3711  payable(owner).transfer(address(this).balance) */\n      swap1\n      dup2\n      iszero\n      mul\n      swap1\n      mload(0x40)\n      0x00\n      mload(0x40)\n      dup1\n      dup4\n      sub\n      dup2\n      dup6\n      dup9\n      dup9\n      call\n      swap4\n      pop\n      pop\n      pop\n      pop\n      iszero\n      dup1\n      iszero\n      tag_60\n      jumpi\n      returndatasize\n      0x00\n      dup1\n      returndatacopy\n      revert(0x00, returndatasize)\n    tag_60:\n      pop\n        /* \"Hotel.sol\":3564:3718  function withdraw() public {... */\n      jump\t// out\n        /* \"Hotel.sol\":3008:3282  function checkout(uint index) external {... */\n    tag_25:\n        /* \"Hotel.sol\":3076:3091  block.timestamp */\n      timestamp\n        /* \"Hotel.sol\":3057:3062  rooms */\n      0x04\n        /* \"Hotel.sol\":3063:3068  index */\n      dup3\n        /* \"Hotel.sol\":3057:3069  rooms[index] */\n      dup2\n      sload\n      dup2\n      lt\n      tag_62\n      jumpi\n      tag_63\n      tag_64\n      jump\t// in\n    tag_63:\n    tag_62:\n      swap1\n      0x00\n      mstore\n      keccak256(0x00, 0x20)\n      swap1\n      0x07\n      mul\n      add\n        /* \"Hotel.sol\":3057:3073  rooms[index].end */\n      0x05\n      add\n        /* \"Hotel.sol\":3057:3091  rooms[index].end = block.timestamp */\n      dup2\n      swap1\n      sstore\n      pop\n        /* \"Hotel.sol\":3102:3125  uint numberOfDaysStayed */\n      0x00\n        /* \"Hotel.sol\":3170:3176  1 days */\n      0x015180\n        /* \"Hotel.sol\":3148:3153  rooms */\n      0x04\n        /* \"Hotel.sol\":3154:3159  index */\n      dup4\n        /* \"Hotel.sol\":3148:3160  rooms[index] */\n      dup2\n      sload\n      dup2\n      lt\n      tag_66\n      jumpi\n      tag_67\n      tag_64\n      jump\t// in\n    tag_67:\n    tag_66:\n      swap1\n      0x00\n      mstore\n      keccak256(0x00, 0x20)\n      swap1\n      0x07\n      mul\n      add\n        /* \"Hotel.sol\":3148:3166  rooms[index].start */\n      0x04\n      add\n      sload\n        /* \"Hotel.sol\":3129:3134  rooms */\n      0x04\n        /* \"Hotel.sol\":3135:3140  index */\n      dup5\n        /* \"Hotel.sol\":3129:3141  rooms[index] */\n      dup2\n      sload\n      dup2\n      lt\n      tag_69\n      jumpi\n      tag_70\n      tag_64\n      jump\t// in\n    tag_70:\n    tag_69:\n      swap1\n      0x00\n      mstore\n      keccak256(0x00, 0x20)\n      swap1\n      0x07\n      mul\n      add\n        /* \"Hotel.sol\":3129:3145  rooms[index].end */\n      0x05\n      add\n      sload\n        /* \"Hotel.sol\":3129:3166  rooms[index].end - rooms[index].start */\n      tag_72\n      swap2\n      swap1\n      tag_73\n      jump\t// in\n    tag_72:\n        /* \"Hotel.sol\":3128:3176  (rooms[index].end - rooms[index].start) / 1 days */\n      tag_74\n      swap2\n      swap1\n      tag_75\n      jump\t// in\n    tag_74:\n        /* \"Hotel.sol\":3102:3176  uint numberOfDaysStayed = (rooms[index].end - rooms[index].start) / 1 days */\n      swap1\n      pop\n        /* \"Hotel.sol\":3186:3196  uint total */\n      0x00\n        /* \"Hotel.sol\":3220:3238  numberOfDaysStayed */\n      dup2\n        /* \"Hotel.sol\":3199:3204  rooms */\n      0x04\n        /* \"Hotel.sol\":3205:3210  index */\n      dup5\n        /* \"Hotel.sol\":3199:3211  rooms[index] */\n      dup2\n      sload\n      dup2\n      lt\n      tag_76\n      jumpi\n      tag_77\n      tag_64\n      jump\t// in\n    tag_77:\n    tag_76:\n      swap1\n      0x00\n      mstore\n      keccak256(0x00, 0x20)\n      swap1\n      0x07\n      mul\n      add\n        /* \"Hotel.sol\":3199:3217  rooms[index].price */\n      0x00\n      add\n      sload\n        /* \"Hotel.sol\":3199:3238  rooms[index].price * numberOfDaysStayed */\n      tag_79\n      swap2\n      swap1\n      tag_80\n      jump\t// in\n    tag_79:\n        /* \"Hotel.sol\":3186:3238  uint total = rooms[index].price * numberOfDaysStayed */\n      swap1\n      pop\n        /* \"Hotel.sol\":3270:3275  total */\n      dup1\n        /* \"Hotel.sol\":3249:3254  rooms */\n      0x04\n        /* \"Hotel.sol\":3255:3260  index */\n      dup5\n        /* \"Hotel.sol\":3249:3261  rooms[index] */\n      dup2\n      sload\n      dup2\n      lt\n      tag_81\n      jumpi\n      tag_82\n      tag_64\n      jump\t// in\n    tag_82:\n    tag_81:\n      swap1\n      0x00\n      mstore\n      keccak256(0x00, 0x20)\n      swap1\n      0x07\n      mul\n      add\n        /* \"Hotel.sol\":3249:3267  rooms[index].owing */\n      0x06\n      add\n        /* \"Hotel.sol\":3249:3275  rooms[index].owing = total */\n      dup2\n      swap1\n      sstore\n      pop\n        /* \"Hotel.sol\":3047:3282  {... */\n      pop\n      pop\n        /* \"Hotel.sol\":3008:3282  function checkout(uint index) external {... */\n      pop\n      jump\t// out\n        /* \"Hotel.sol\":2682:3002  function bookRoom(uint index) external returns (uint roomNumber, uint roomKey) {... */\n    tag_29:\n        /* \"Hotel.sol\":2730:2745  uint roomNumber */\n      0x00\n        /* \"Hotel.sol\":2747:2759  uint roomKey */\n      dup1\n        /* \"Hotel.sol\":2795:2799  true */\n      0x01\n        /* \"Hotel.sol\":2771:2776  rooms */\n      0x04\n        /* \"Hotel.sol\":2777:2782  index */\n      dup5\n        /* \"Hotel.sol\":2771:2783  rooms[index] */\n      dup2\n      sload\n      dup2\n      lt\n      tag_85\n      jumpi\n      tag_86\n      tag_64\n      jump\t// in\n    tag_86:\n    tag_85:\n      swap1\n      0x00\n      mstore\n      keccak256(0x00, 0x20)\n      swap1\n      0x07\n      mul\n      add\n        /* \"Hotel.sol\":2771:2792  rooms[index].occupied */\n      0x03\n      add\n      0x00\n        /* \"Hotel.sol\":2771:2799  rooms[index].occupied = true */\n      0x0100\n      exp\n      dup2\n      sload\n      dup2\n      0xff\n      mul\n      not\n      and\n      swap1\n      dup4\n      iszero\n      iszero\n      mul\n      or\n      swap1\n      sstore\n      pop\n        /* \"Hotel.sol\":2830:2845  block.timestamp */\n      timestamp\n        /* \"Hotel.sol\":2809:2814  rooms */\n      0x04\n        /* \"Hotel.sol\":2815:2820  index */\n      dup5\n        /* \"Hotel.sol\":2809:2821  rooms[index] */\n      dup2\n      sload\n      dup2\n      lt\n      tag_88\n      jumpi\n      tag_89\n      tag_64\n      jump\t// in\n    tag_89:\n    tag_88:\n      swap1\n      0x00\n      mstore\n      keccak256(0x00, 0x20)\n      swap1\n      0x07\n      mul\n      add\n        /* \"Hotel.sol\":2809:2827  rooms[index].start */\n      0x04\n      add\n        /* \"Hotel.sol\":2809:2845  rooms[index].start = block.timestamp */\n      dup2\n      swap1\n      sstore\n      pop\n        /* \"Hotel.sol\":2877:2878  1 */\n      0x01\n        /* \"Hotel.sol\":2869:2874  index */\n      dup4\n        /* \"Hotel.sol\":2869:2878  index + 1 */\n      tag_91\n      swap2\n      swap1\n      tag_92\n      jump\t// in\n    tag_91:\n        /* \"Hotel.sol\":2856:2878  roomNumber = index + 1 */\n      swap2\n      pop\n        /* \"Hotel.sol\":2930:2935  rooms */\n      0x04\n        /* \"Hotel.sol\":2936:2941  index */\n      dup4\n        /* \"Hotel.sol\":2930:2942  rooms[index] */\n      dup2\n      sload\n      dup2\n      lt\n      tag_93\n      jumpi\n      tag_94\n      tag_64\n      jump\t// in\n    tag_94:\n    tag_93:\n      swap1\n      0x00\n      mstore\n      keccak256(0x00, 0x20)\n      swap1\n      0x07\n      mul\n      add\n        /* \"Hotel.sol\":2930:2953  rooms[index].roomNumber */\n      0x02\n      add\n      sload\n        /* \"Hotel.sol\":2913:2954  abi.encodePacked(rooms[index].roomNumber) */\n      add(0x20, mload(0x40))\n      tag_96\n      swap2\n      swap1\n      tag_97\n      jump\t// in\n    tag_96:\n      mload(0x40)\n      0x20\n      dup2\n      dup4\n      sub\n      sub\n      dup2\n      mstore\n      swap1\n      0x40\n      mstore\n        /* \"Hotel.sol\":2903:2955  keccak256(abi.encodePacked(rooms[index].roomNumber)) */\n      dup1\n      mload\n      swap1\n      0x20\n      add\n      keccak256\n        /* \"Hotel.sol\":2898:2956  uint(keccak256(abi.encodePacked(rooms[index].roomNumber))) */\n      0x00\n      shr\n        /* \"Hotel.sol\":2888:2956  roomKey = uint(keccak256(abi.encodePacked(rooms[index].roomNumber))) */\n      swap1\n      pop\n        /* \"Hotel.sol\":2682:3002  function bookRoom(uint index) external returns (uint roomNumber, uint roomKey) {... */\n      swap2\n      pop\n      swap2\n      jump\t// out\n        /* \"Hotel.sol\":2162:2582  function getRoom(uint index) external view returns (uint price, RoomType typeOfRoom, uint roomNumber, bool occupied, uint start, uint end, uint owing) {... */\n    tag_35:\n        /* \"Hotel.sol\":2214:2224  uint price */\n      0x00\n        /* \"Hotel.sol\":2226:2245  RoomType typeOfRoom */\n      dup1\n        /* \"Hotel.sol\":2247:2262  uint roomNumber */\n      0x00\n        /* \"Hotel.sol\":2264:2277  bool occupied */\n      dup1\n        /* \"Hotel.sol\":2279:2289  uint start */\n      0x00\n        /* \"Hotel.sol\":2291:2299  uint end */\n      dup1\n        /* \"Hotel.sol\":2301:2311  uint owing */\n      0x00\n        /* \"Hotel.sol\":2344:2349  rooms */\n      0x04\n        /* \"Hotel.sol\":2350:2355  index */\n      dup9\n        /* \"Hotel.sol\":2344:2356  rooms[index] */\n      dup2\n      sload\n      dup2\n      lt\n      tag_99\n      jumpi\n      tag_100\n      tag_64\n      jump\t// in\n    tag_100:\n    tag_99:\n      swap1\n      0x00\n      mstore\n      keccak256(0x00, 0x20)\n      swap1\n      0x07\n      mul\n      add\n        /* \"Hotel.sol\":2344:2362  rooms[index].price */\n      0x00\n      add\n      sload\n        /* \"Hotel.sol\":2376:2381  rooms */\n      0x04\n        /* \"Hotel.sol\":2382:2387  index */\n      dup10\n        /* \"Hotel.sol\":2376:2388  rooms[index] */\n      dup2\n      sload\n      dup2\n      lt\n      tag_102\n      jumpi\n      tag_103\n      tag_64\n      jump\t// in\n    tag_103:\n    tag_102:\n      swap1\n      0x00\n      mstore\n      keccak256(0x00, 0x20)\n      swap1\n      0x07\n      mul\n      add\n        /* \"Hotel.sol\":2376:2399  rooms[index].typeOfRoom */\n      0x01\n      add\n      0x00\n      swap1\n      sload\n      swap1\n      0x0100\n      exp\n      swap1\n      div\n      0xff\n      and\n        /* \"Hotel.sol\":2413:2418  rooms */\n      0x04\n        /* \"Hotel.sol\":2419:2424  index */\n      dup11\n        /* \"Hotel.sol\":2413:2425  rooms[index] */\n      dup2\n      sload\n      dup2\n      lt\n      tag_105\n      jumpi\n      tag_106\n      tag_64\n      jump\t// in\n    tag_106:\n    tag_105:\n      swap1\n      0x00\n      mstore\n      keccak256(0x00, 0x20)\n      swap1\n      0x07\n      mul\n      add\n        /* \"Hotel.sol\":2413:2436  rooms[index].roomNumber */\n      0x02\n      add\n      sload\n        /* \"Hotel.sol\":2450:2455  rooms */\n      0x04\n        /* \"Hotel.sol\":2456:2461  index */\n      dup12\n        /* \"Hotel.sol\":2450:2462  rooms[index] */\n      dup2\n      sload\n      dup2\n      lt\n      tag_108\n      jumpi\n      tag_109\n      tag_64\n      jump\t// in\n    tag_109:\n    tag_108:\n      swap1\n      0x00\n      mstore\n      keccak256(0x00, 0x20)\n      swap1\n      0x07\n      mul\n      add\n        /* \"Hotel.sol\":2450:2471  rooms[index].occupied */\n      0x03\n      add\n      0x00\n      swap1\n      sload\n      swap1\n      0x0100\n      exp\n      swap1\n      div\n      0xff\n      and\n        /* \"Hotel.sol\":2485:2490  rooms */\n      0x04\n        /* \"Hotel.sol\":2491:2496  index */\n      dup13\n        /* \"Hotel.sol\":2485:2497  rooms[index] */\n      dup2\n      sload\n      dup2\n      lt\n      tag_111\n      jumpi\n      tag_112\n      tag_64\n      jump\t// in\n    tag_112:\n    tag_111:\n      swap1\n      0x00\n      mstore\n      keccak256(0x00, 0x20)\n      swap1\n      0x07\n      mul\n      add\n        /* \"Hotel.sol\":2485:2503  rooms[index].start */\n      0x04\n      add\n      sload\n        /* \"Hotel.sol\":2517:2522  rooms */\n      0x04\n        /* \"Hotel.sol\":2523:2528  index */\n      dup14\n        /* \"Hotel.sol\":2517:2529  rooms[index] */\n      dup2\n      sload\n      dup2\n      lt\n      tag_114\n      jumpi\n      tag_115\n      tag_64\n      jump\t// in\n    tag_115:\n    tag_114:\n      swap1\n      0x00\n      mstore\n      keccak256(0x00, 0x20)\n      swap1\n      0x07\n      mul\n      add\n        /* \"Hotel.sol\":2517:2533  rooms[index].end */\n      0x05\n      add\n      sload\n        /* \"Hotel.sol\":2547:2552  rooms */\n      0x04\n        /* \"Hotel.sol\":2553:2558  index */\n      dup15\n        /* \"Hotel.sol\":2547:2559  rooms[index] */\n      dup2\n      sload\n      dup2\n      lt\n      tag_117\n      jumpi\n      tag_118\n      tag_64\n      jump\t// in\n    tag_118:\n    tag_117:\n      swap1\n      0x00\n      mstore\n      keccak256(0x00, 0x20)\n      swap1\n      0x07\n      mul\n      add\n        /* \"Hotel.sol\":2547:2565  rooms[index].owing */\n      0x06\n      add\n      sload\n        /* \"Hotel.sol\":2323:2575  return (... */\n      swap7\n      pop\n      swap7\n      pop\n      swap7\n      pop\n      swap7\n      pop\n      swap7\n      pop\n      swap7\n      pop\n      swap7\n      pop\n        /* \"Hotel.sol\":2162:2582  function getRoom(uint index) external view returns (uint price, RoomType typeOfRoom, uint roomNumber, bool occupied, uint start, uint end, uint owing) {... */\n      swap2\n      swap4\n      swap6\n      swap8\n      swap1\n      swap3\n      swap5\n      swap7\n      pop\n      jump\t// out\n        /* \"Hotel.sol\":3288:3558  function pay(uint index) external payable {... */\n    tag_39:\n        /* \"Hotel.sol\":3361:3366  rooms */\n      0x04\n        /* \"Hotel.sol\":3367:3372  index */\n      dup2\n        /* \"Hotel.sol\":3361:3373  rooms[index] */\n      dup2\n      sload\n      dup2\n      lt\n      tag_121\n      jumpi\n      tag_122\n      tag_64\n      jump\t// in\n    tag_122:\n    tag_121:\n      swap1\n      0x00\n      mstore\n      keccak256(0x00, 0x20)\n      swap1\n      0x07\n      mul\n      add\n        /* \"Hotel.sol\":3361:3379  rooms[index].owing */\n      0x06\n      add\n      sload\n        /* \"Hotel.sol\":3348:3357  msg.value */\n      callvalue\n        /* \"Hotel.sol\":3348:3379  msg.value == rooms[index].owing */\n      eq\n        /* \"Hotel.sol\":3340:3418  require(msg.value == rooms[index].owing, \"You did not pay the correct amount\") */\n      tag_124\n      jumpi\n      mload(0x40)\n      0x08c379a000000000000000000000000000000000000000000000000000000000\n      dup2\n      mstore\n      0x04\n      add\n      tag_125\n      swap1\n      tag_126\n      jump\t// in\n    tag_125:\n      mload(0x40)\n      dup1\n      swap2\n      sub\n      swap1\n      revert\n    tag_124:\n        /* \"Hotel.sol\":3452:3457  false */\n      0x00\n        /* \"Hotel.sol\":3428:3433  rooms */\n      0x04\n        /* \"Hotel.sol\":3434:3439  index */\n      dup3\n        /* \"Hotel.sol\":3428:3440  rooms[index] */\n      dup2\n      sload\n      dup2\n      lt\n      tag_127\n      jumpi\n      tag_128\n      tag_64\n      jump\t// in\n    tag_128:\n    tag_127:\n      swap1\n      0x00\n      mstore\n      keccak256(0x00, 0x20)\n      swap1\n      0x07\n      mul\n      add\n        /* \"Hotel.sol\":3428:3449  rooms[index].occupied */\n      0x03\n      add\n      0x00\n        /* \"Hotel.sol\":3428:3457  rooms[index].occupied = false */\n      0x0100\n      exp\n      dup2\n      sload\n      dup2\n      0xff\n      mul\n      not\n      and\n      swap1\n      dup4\n      iszero\n      iszero\n      mul\n      or\n      swap1\n      sstore\n      pop\n        /* \"Hotel.sol\":3488:3489  0 */\n      0x00\n        /* \"Hotel.sol\":3467:3472  rooms */\n      0x04\n        /* \"Hotel.sol\":3473:3478  index */\n      dup3\n        /* \"Hotel.sol\":3467:3479  rooms[index] */\n      dup2\n      sload\n      dup2\n      lt\n      tag_130\n      jumpi\n      tag_131\n      tag_64\n      jump\t// in\n    tag_131:\n    tag_130:\n      swap1\n      0x00\n      mstore\n      keccak256(0x00, 0x20)\n      swap1\n      0x07\n      mul\n      add\n        /* \"Hotel.sol\":3467:3485  rooms[index].start */\n      0x04\n      add\n        /* \"Hotel.sol\":3467:3489  rooms[index].start = 0 */\n      dup2\n      swap1\n      sstore\n      pop\n        /* \"Hotel.sol\":3518:3519  0 */\n      0x00\n        /* \"Hotel.sol\":3499:3504  rooms */\n      0x04\n        /* \"Hotel.sol\":3505:3510  index */\n      dup3\n        /* \"Hotel.sol\":3499:3511  rooms[index] */\n      dup2\n      sload\n      dup2\n      lt\n      tag_133\n      jumpi\n      tag_134\n      tag_64\n      jump\t// in\n    tag_134:\n    tag_133:\n      swap1\n      0x00\n      mstore\n      keccak256(0x00, 0x20)\n      swap1\n      0x07\n      mul\n      add\n        /* \"Hotel.sol\":3499:3515  rooms[index].end */\n      0x05\n      add\n        /* \"Hotel.sol\":3499:3519  rooms[index].end = 0 */\n      dup2\n      swap1\n      sstore\n      pop\n        /* \"Hotel.sol\":3550:3551  0 */\n      0x00\n        /* \"Hotel.sol\":3529:3534  rooms */\n      0x04\n        /* \"Hotel.sol\":3535:3540  index */\n      dup3\n        /* \"Hotel.sol\":3529:3541  rooms[index] */\n      dup2\n      sload\n      dup2\n      lt\n      tag_136\n      jumpi\n      tag_137\n      tag_64\n      jump\t// in\n    tag_137:\n    tag_136:\n      swap1\n      0x00\n      mstore\n      keccak256(0x00, 0x20)\n      swap1\n      0x07\n      mul\n      add\n        /* \"Hotel.sol\":3529:3547  rooms[index].owing */\n      0x06\n      add\n        /* \"Hotel.sol\":3529:3551  rooms[index].owing = 0 */\n      dup2\n      swap1\n      sstore\n      pop\n        /* \"Hotel.sol\":3288:3558  function pay(uint index) external payable {... */\n      pop\n      jump\t// out\n        /* \"Hotel.sol\":426:457  uint public numberOfDoubleRooms */\n    tag_42:\n      sload(0x02)\n      dup2\n      jump\t// out\n        /* \"Hotel.sol\":354:385  uint public numberOfSingleRooms */\n    tag_47:\n      sload(0x01)\n      dup2\n      jump\t// out\n        /* \"Hotel.sol\":497:527  uint public numberOfSuiteRooms */\n    tag_51:\n      sload(0x03)\n      dup2\n      jump\t// out\n        /* \"#utility.yul\":88:205   */\n    tag_140:\n        /* \"#utility.yul\":197:198   */\n      0x00\n        /* \"#utility.yul\":194:195   */\n      dup1\n        /* \"#utility.yul\":187:199   */\n      revert\n        /* \"#utility.yul\":334:411   */\n    tag_142:\n        /* \"#utility.yul\":371:378   */\n      0x00\n        /* \"#utility.yul\":400:405   */\n      dup2\n        /* \"#utility.yul\":389:405   */\n      swap1\n      pop\n        /* \"#utility.yul\":334:411   */\n      swap2\n      swap1\n      pop\n      jump\t// out\n        /* \"#utility.yul\":417:539   */\n    tag_143:\n        /* \"#utility.yul\":490:514   */\n      tag_168\n        /* \"#utility.yul\":508:513   */\n      dup2\n        /* \"#utility.yul\":490:514   */\n      tag_142\n      jump\t// in\n    tag_168:\n        /* \"#utility.yul\":483:488   */\n      dup2\n        /* \"#utility.yul\":480:515   */\n      eq\n        /* \"#utility.yul\":470:533   */\n      tag_169\n      jumpi\n        /* \"#utility.yul\":529:530   */\n      0x00\n        /* \"#utility.yul\":526:527   */\n      dup1\n        /* \"#utility.yul\":519:531   */\n      revert\n        /* \"#utility.yul\":470:533   */\n    tag_169:\n        /* \"#utility.yul\":417:539   */\n      pop\n      jump\t// out\n        /* \"#utility.yul\":545:684   */\n    tag_144:\n        /* \"#utility.yul\":591:596   */\n      0x00\n        /* \"#utility.yul\":629:635   */\n      dup2\n        /* \"#utility.yul\":616:636   */\n      calldataload\n        /* \"#utility.yul\":607:636   */\n      swap1\n      pop\n        /* \"#utility.yul\":645:678   */\n      tag_171\n        /* \"#utility.yul\":672:677   */\n      dup2\n        /* \"#utility.yul\":645:678   */\n      tag_143\n      jump\t// in\n    tag_171:\n        /* \"#utility.yul\":545:684   */\n      swap3\n      swap2\n      pop\n      pop\n      jump\t// out\n        /* \"#utility.yul\":690:1019   */\n    tag_15:\n        /* \"#utility.yul\":749:755   */\n      0x00\n        /* \"#utility.yul\":798:800   */\n      0x20\n        /* \"#utility.yul\":786:795   */\n      dup3\n        /* \"#utility.yul\":777:784   */\n      dup5\n        /* \"#utility.yul\":773:796   */\n      sub\n        /* \"#utility.yul\":769:801   */\n      slt\n        /* \"#utility.yul\":766:885   */\n      iszero\n      tag_173\n      jumpi\n        /* \"#utility.yul\":804:883   */\n      tag_174\n      tag_140\n      jump\t// in\n    tag_174:\n        /* \"#utility.yul\":766:885   */\n    tag_173:\n        /* \"#utility.yul\":924:925   */\n      0x00\n        /* \"#utility.yul\":949:1002   */\n      tag_175\n        /* \"#utility.yul\":994:1001   */\n      dup5\n        /* \"#utility.yul\":985:991   */\n      dup3\n        /* \"#utility.yul\":974:983   */\n      dup6\n        /* \"#utility.yul\":970:992   */\n      add\n        /* \"#utility.yul\":949:1002   */\n      tag_144\n      jump\t// in\n    tag_175:\n        /* \"#utility.yul\":939:1002   */\n      swap2\n      pop\n        /* \"#utility.yul\":895:1012   */\n      pop\n        /* \"#utility.yul\":690:1019   */\n      swap3\n      swap2\n      pop\n      pop\n      jump\t// out\n        /* \"#utility.yul\":1025:1143   */\n    tag_145:\n        /* \"#utility.yul\":1112:1136   */\n      tag_177\n        /* \"#utility.yul\":1130:1135   */\n      dup2\n        /* \"#utility.yul\":1112:1136   */\n      tag_142\n      jump\t// in\n    tag_177:\n        /* \"#utility.yul\":1107:1110   */\n      dup3\n        /* \"#utility.yul\":1100:1137   */\n      mstore\n        /* \"#utility.yul\":1025:1143   */\n      pop\n      pop\n      jump\t// out\n        /* \"#utility.yul\":1149:1329   */\n    tag_146:\n        /* \"#utility.yul\":1197:1274   */\n      0x4e487b7100000000000000000000000000000000000000000000000000000000\n        /* \"#utility.yul\":1194:1195   */\n      0x00\n        /* \"#utility.yul\":1187:1275   */\n      mstore\n        /* \"#utility.yul\":1294:1298   */\n      0x21\n        /* \"#utility.yul\":1291:1292   */\n      0x04\n        /* \"#utility.yul\":1284:1299   */\n      mstore\n        /* \"#utility.yul\":1318:1322   */\n      0x24\n        /* \"#utility.yul\":1315:1316   */\n      0x00\n        /* \"#utility.yul\":1308:1323   */\n      revert\n        /* \"#utility.yul\":1335:1450   */\n    tag_147:\n        /* \"#utility.yul\":1418:1419   */\n      0x03\n        /* \"#utility.yul\":1411:1416   */\n      dup2\n        /* \"#utility.yul\":1408:1420   */\n      lt\n        /* \"#utility.yul\":1398:1444   */\n      tag_180\n      jumpi\n        /* \"#utility.yul\":1424:1442   */\n      tag_181\n      tag_146\n      jump\t// in\n    tag_181:\n        /* \"#utility.yul\":1398:1444   */\n    tag_180:\n        /* \"#utility.yul\":1335:1450   */\n      pop\n      jump\t// out\n        /* \"#utility.yul\":1456:1587   */\n    tag_148:\n        /* \"#utility.yul\":1503:1510   */\n      0x00\n        /* \"#utility.yul\":1532:1537   */\n      dup2\n        /* \"#utility.yul\":1521:1537   */\n      swap1\n      pop\n        /* \"#utility.yul\":1538:1581   */\n      tag_183\n        /* \"#utility.yul\":1575:1580   */\n      dup3\n        /* \"#utility.yul\":1538:1581   */\n      tag_147\n      jump\t// in\n    tag_183:\n        /* \"#utility.yul\":1456:1587   */\n      swap2\n      swap1\n      pop\n      jump\t// out\n        /* \"#utility.yul\":1593:1724   */\n    tag_149:\n        /* \"#utility.yul\":1651:1660   */\n      0x00\n        /* \"#utility.yul\":1684:1718   */\n      tag_185\n        /* \"#utility.yul\":1712:1717   */\n      dup3\n        /* \"#utility.yul\":1684:1718   */\n      tag_148\n      jump\t// in\n    tag_185:\n        /* \"#utility.yul\":1671:1718   */\n      swap1\n      pop\n        /* \"#utility.yul\":1593:1724   */\n      swap2\n      swap1\n      pop\n      jump\t// out\n        /* \"#utility.yul\":1730:1877   */\n    tag_150:\n        /* \"#utility.yul\":1825:1870   */\n      tag_187\n        /* \"#utility.yul\":1864:1869   */\n      dup2\n        /* \"#utility.yul\":1825:1870   */\n      tag_149\n      jump\t// in\n    tag_187:\n        /* \"#utility.yul\":1820:1823   */\n      dup3\n        /* \"#utility.yul\":1813:1871   */\n      mstore\n        /* \"#utility.yul\":1730:1877   */\n      pop\n      pop\n      jump\t// out\n        /* \"#utility.yul\":1883:1973   */\n    tag_151:\n        /* \"#utility.yul\":1917:1924   */\n      0x00\n        /* \"#utility.yul\":1960:1965   */\n      dup2\n        /* \"#utility.yul\":1953:1966   */\n      iszero\n        /* \"#utility.yul\":1946:1967   */\n      iszero\n        /* \"#utility.yul\":1935:1967   */\n      swap1\n      pop\n        /* \"#utility.yul\":1883:1973   */\n      swap2\n      swap1\n      pop\n      jump\t// out\n        /* \"#utility.yul\":1979:2088   */\n    tag_152:\n        /* \"#utility.yul\":2060:2081   */\n      tag_190\n        /* \"#utility.yul\":2075:2080   */\n      dup2\n        /* \"#utility.yul\":2060:2081   */\n      tag_151\n      jump\t// in\n    tag_190:\n        /* \"#utility.yul\":2055:2058   */\n      dup3\n        /* \"#utility.yul\":2048:2082   */\n      mstore\n        /* \"#utility.yul\":1979:2088   */\n      pop\n      pop\n      jump\t// out\n        /* \"#utility.yul\":2094:2984   */\n    tag_18:\n        /* \"#utility.yul\":2357:2361   */\n      0x00\n        /* \"#utility.yul\":2395:2398   */\n      0xe0\n        /* \"#utility.yul\":2384:2393   */\n      dup3\n        /* \"#utility.yul\":2380:2399   */\n      add\n        /* \"#utility.yul\":2372:2399   */\n      swap1\n      pop\n        /* \"#utility.yul\":2409:2480   */\n      tag_192\n        /* \"#utility.yul\":2477:2478   */\n      0x00\n        /* \"#utility.yul\":2466:2475   */\n      dup4\n        /* \"#utility.yul\":2462:2479   */\n      add\n        /* \"#utility.yul\":2453:2459   */\n      dup11\n        /* \"#utility.yul\":2409:2480   */\n      tag_145\n      jump\t// in\n    tag_192:\n        /* \"#utility.yul\":2490:2570   */\n      tag_193\n        /* \"#utility.yul\":2566:2568   */\n      0x20\n        /* \"#utility.yul\":2555:2564   */\n      dup4\n        /* \"#utility.yul\":2551:2569   */\n      add\n        /* \"#utility.yul\":2542:2548   */\n      dup10\n        /* \"#utility.yul\":2490:2570   */\n      tag_150\n      jump\t// in\n    tag_193:\n        /* \"#utility.yul\":2580:2652   */\n      tag_194\n        /* \"#utility.yul\":2648:2650   */\n      0x40\n        /* \"#utility.yul\":2637:2646   */\n      dup4\n        /* \"#utility.yul\":2633:2651   */\n      add\n        /* \"#utility.yul\":2624:2630   */\n      dup9\n        /* \"#utility.yul\":2580:2652   */\n      tag_145\n      jump\t// in\n    tag_194:\n        /* \"#utility.yul\":2662:2728   */\n      tag_195\n        /* \"#utility.yul\":2724:2726   */\n      0x60\n        /* \"#utility.yul\":2713:2722   */\n      dup4\n        /* \"#utility.yul\":2709:2727   */\n      add\n        /* \"#utility.yul\":2700:2706   */\n      dup8\n        /* \"#utility.yul\":2662:2728   */\n      tag_152\n      jump\t// in\n    tag_195:\n        /* \"#utility.yul\":2738:2811   */\n      tag_196\n        /* \"#utility.yul\":2806:2809   */\n      0x80\n        /* \"#utility.yul\":2795:2804   */\n      dup4\n        /* \"#utility.yul\":2791:2810   */\n      add\n        /* \"#utility.yul\":2782:2788   */\n      dup7\n        /* \"#utility.yul\":2738:2811   */\n      tag_145\n      jump\t// in\n    tag_196:\n        /* \"#utility.yul\":2821:2894   */\n      tag_197\n        /* \"#utility.yul\":2889:2892   */\n      0xa0\n        /* \"#utility.yul\":2878:2887   */\n      dup4\n        /* \"#utility.yul\":2874:2893   */\n      add\n        /* \"#utility.yul\":2865:2871   */\n      dup6\n        /* \"#utility.yul\":2821:2894   */\n      tag_145\n      jump\t// in\n    tag_197:\n        /* \"#utility.yul\":2904:2977   */\n      tag_198\n        /* \"#utility.yul\":2972:2975   */\n      0xc0\n        /* \"#utility.yul\":2961:2970   */\n      dup4\n        /* \"#utility.yul\":2957:2976   */\n      add\n        /* \"#utility.yul\":2948:2954   */\n      dup5\n        /* \"#utility.yul\":2904:2977   */\n      tag_145\n      jump\t// in\n    tag_198:\n        /* \"#utility.yul\":2094:2984   */\n      swap9\n      swap8\n      pop\n      pop\n      pop\n      pop\n      pop\n      pop\n      pop\n      pop\n      jump\t// out\n        /* \"#utility.yul\":2990:3322   */\n    tag_31:\n        /* \"#utility.yul\":3111:3115   */\n      0x00\n        /* \"#utility.yul\":3149:3151   */\n      0x40\n        /* \"#utility.yul\":3138:3147   */\n      dup3\n        /* \"#utility.yul\":3134:3152   */\n      add\n        /* \"#utility.yul\":3126:3152   */\n      swap1\n      pop\n        /* \"#utility.yul\":3162:3233   */\n      tag_200\n        /* \"#utility.yul\":3230:3231   */\n      0x00\n        /* \"#utility.yul\":3219:3228   */\n      dup4\n        /* \"#utility.yul\":3215:3232   */\n      add\n        /* \"#utility.yul\":3206:3212   */\n      dup6\n        /* \"#utility.yul\":3162:3233   */\n      tag_145\n      jump\t// in\n    tag_200:\n        /* \"#utility.yul\":3243:3315   */\n      tag_201\n        /* \"#utility.yul\":3311:3313   */\n      0x20\n        /* \"#utility.yul\":3300:3309   */\n      dup4\n        /* \"#utility.yul\":3296:3314   */\n      add\n        /* \"#utility.yul\":3287:3293   */\n      dup5\n        /* \"#utility.yul\":3243:3315   */\n      tag_145\n      jump\t// in\n    tag_201:\n        /* \"#utility.yul\":2990:3322   */\n      swap4\n      swap3\n      pop\n      pop\n      pop\n      jump\t// out\n        /* \"#utility.yul\":3328:3550   */\n    tag_44:\n        /* \"#utility.yul\":3421:3425   */\n      0x00\n        /* \"#utility.yul\":3459:3461   */\n      0x20\n        /* \"#utility.yul\":3448:3457   */\n      dup3\n        /* \"#utility.yul\":3444:3462   */\n      add\n        /* \"#utility.yul\":3436:3462   */\n      swap1\n      pop\n        /* \"#utility.yul\":3472:3543   */\n      tag_203\n        /* \"#utility.yul\":3540:3541   */\n      0x00\n        /* \"#utility.yul\":3529:3538   */\n      dup4\n        /* \"#utility.yul\":3525:3542   */\n      add\n        /* \"#utility.yul\":3516:3522   */\n      dup5\n        /* \"#utility.yul\":3472:3543   */\n      tag_145\n      jump\t// in\n    tag_203:\n        /* \"#utility.yul\":3328:3550   */\n      swap3\n      swap2\n      pop\n      pop\n      jump\t// out\n        /* \"#utility.yul\":3556:3725   */\n    tag_153:\n        /* \"#utility.yul\":3640:3651   */\n      0x00\n        /* \"#utility.yul\":3674:3680   */\n      dup3\n        /* \"#utility.yul\":3669:3672   */\n      dup3\n        /* \"#utility.yul\":3662:3681   */\n      mstore\n        /* \"#utility.yul\":3714:3718   */\n      0x20\n        /* \"#utility.yul\":3709:3712   */\n      dup3\n        /* \"#utility.yul\":3705:3719   */\n      add\n        /* \"#utility.yul\":3690:3719   */\n      swap1\n      pop\n        /* \"#utility.yul\":3556:3725   */\n      swap3\n      swap2\n      pop\n      pop\n      jump\t// out\n        /* \"#utility.yul\":3731:3902   */\n    tag_154:\n        /* \"#utility.yul\":3871:3894   */\n      0x596f7520617265206e6f7420746865206f776e65720000000000000000000000\n        /* \"#utility.yul\":3867:3868   */\n      0x00\n        /* \"#utility.yul\":3859:3865   */\n      dup3\n        /* \"#utility.yul\":3855:3869   */\n      add\n        /* \"#utility.yul\":3848:3895   */\n      mstore\n        /* \"#utility.yul\":3731:3902   */\n      pop\n      jump\t// out\n        /* \"#utility.yul\":3908:4274   */\n    tag_155:\n        /* \"#utility.yul\":4050:4053   */\n      0x00\n        /* \"#utility.yul\":4071:4138   */\n      tag_207\n        /* \"#utility.yul\":4135:4137   */\n      0x15\n        /* \"#utility.yul\":4130:4133   */\n      dup4\n        /* \"#utility.yul\":4071:4138   */\n      tag_153\n      jump\t// in\n    tag_207:\n        /* \"#utility.yul\":4064:4138   */\n      swap2\n      pop\n        /* \"#utility.yul\":4147:4240   */\n      tag_208\n        /* \"#utility.yul\":4236:4239   */\n      dup3\n        /* \"#utility.yul\":4147:4240   */\n      tag_154\n      jump\t// in\n    tag_208:\n        /* \"#utility.yul\":4265:4267   */\n      0x20\n        /* \"#utility.yul\":4260:4263   */\n      dup3\n        /* \"#utility.yul\":4256:4268   */\n      add\n        /* \"#utility.yul\":4249:4268   */\n      swap1\n      pop\n        /* \"#utility.yul\":3908:4274   */\n      swap2\n      swap1\n      pop\n      jump\t// out\n        /* \"#utility.yul\":4280:4699   */\n    tag_58:\n        /* \"#utility.yul\":4446:4450   */\n      0x00\n        /* \"#utility.yul\":4484:4486   */\n      0x20\n        /* \"#utility.yul\":4473:4482   */\n      dup3\n        /* \"#utility.yul\":4469:4487   */\n      add\n        /* \"#utility.yul\":4461:4487   */\n      swap1\n      pop\n        /* \"#utility.yul\":4533:4542   */\n      dup2\n        /* \"#utility.yul\":4527:4531   */\n      dup2\n        /* \"#utility.yul\":4523:4543   */\n      sub\n        /* \"#utility.yul\":4519:4520   */\n      0x00\n        /* \"#utility.yul\":4508:4517   */\n      dup4\n        /* \"#utility.yul\":4504:4521   */\n      add\n        /* \"#utility.yul\":4497:4544   */\n      mstore\n        /* \"#utility.yul\":4561:4692   */\n      tag_210\n        /* \"#utility.yul\":4687:4691   */\n      dup2\n        /* \"#utility.yul\":4561:4692   */\n      tag_155\n      jump\t// in\n    tag_210:\n        /* \"#utility.yul\":4553:4692   */\n      swap1\n      pop\n        /* \"#utility.yul\":4280:4699   */\n      swap2\n      swap1\n      pop\n      jump\t// out\n        /* \"#utility.yul\":4705:4885   */\n    tag_64:\n        /* \"#utility.yul\":4753:4830   */\n      0x4e487b7100000000000000000000000000000000000000000000000000000000\n        /* \"#utility.yul\":4750:4751   */\n      0x00\n        /* \"#utility.yul\":4743:4831   */\n      mstore\n        /* \"#utility.yul\":4850:4854   */\n      0x32\n        /* \"#utility.yul\":4847:4848   */\n      0x04\n        /* \"#utility.yul\":4840:4855   */\n      mstore\n        /* \"#utility.yul\":4874:4878   */\n      0x24\n        /* \"#utility.yul\":4871:4872   */\n      0x00\n        /* \"#utility.yul\":4864:4879   */\n      revert\n        /* \"#utility.yul\":4891:5071   */\n    tag_156:\n        /* \"#utility.yul\":4939:5016   */\n      0x4e487b7100000000000000000000000000000000000000000000000000000000\n        /* \"#utility.yul\":4936:4937   */\n      0x00\n        /* \"#utility.yul\":4929:5017   */\n      mstore\n        /* \"#utility.yul\":5036:5040   */\n      0x11\n        /* \"#utility.yul\":5033:5034   */\n      0x04\n        /* \"#utility.yul\":5026:5041   */\n      mstore\n        /* \"#utility.yul\":5060:5064   */\n      0x24\n        /* \"#utility.yul\":5057:5058   */\n      0x00\n        /* \"#utility.yul\":5050:5065   */\n      revert\n        /* \"#utility.yul\":5077:5268   */\n    tag_73:\n        /* \"#utility.yul\":5117:5121   */\n      0x00\n        /* \"#utility.yul\":5137:5157   */\n      tag_214\n        /* \"#utility.yul\":5155:5156   */\n      dup3\n        /* \"#utility.yul\":5137:5157   */\n      tag_142\n      jump\t// in\n    tag_214:\n        /* \"#utility.yul\":5132:5157   */\n      swap2\n      pop\n        /* \"#utility.yul\":5171:5191   */\n      tag_215\n        /* \"#utility.yul\":5189:5190   */\n      dup4\n        /* \"#utility.yul\":5171:5191   */\n      tag_142\n      jump\t// in\n    tag_215:\n        /* \"#utility.yul\":5166:5191   */\n      swap3\n      pop\n        /* \"#utility.yul\":5210:5211   */\n      dup3\n        /* \"#utility.yul\":5207:5208   */\n      dup3\n        /* \"#utility.yul\":5204:5212   */\n      lt\n        /* \"#utility.yul\":5201:5235   */\n      iszero\n      tag_216\n      jumpi\n        /* \"#utility.yul\":5215:5233   */\n      tag_217\n      tag_156\n      jump\t// in\n    tag_217:\n        /* \"#utility.yul\":5201:5235   */\n    tag_216:\n        /* \"#utility.yul\":5260:5261   */\n      dup3\n        /* \"#utility.yul\":5257:5258   */\n      dup3\n        /* \"#utility.yul\":5253:5262   */\n      sub\n        /* \"#utility.yul\":5245:5262   */\n      swap1\n      pop\n        /* \"#utility.yul\":5077:5268   */\n      swap3\n      swap2\n      pop\n      pop\n      jump\t// out\n        /* \"#utility.yul\":5274:5454   */\n    tag_157:\n        /* \"#utility.yul\":5322:5399   */\n      0x4e487b7100000000000000000000000000000000000000000000000000000000\n        /* \"#utility.yul\":5319:5320   */\n      0x00\n        /* \"#utility.yul\":5312:5400   */\n      mstore\n        /* \"#utility.yul\":5419:5423   */\n      0x12\n        /* \"#utility.yul\":5416:5417   */\n      0x04\n        /* \"#utility.yul\":5409:5424   */\n      mstore\n        /* \"#utility.yul\":5443:5447   */\n      0x24\n        /* \"#utility.yul\":5440:5441   */\n      0x00\n        /* \"#utility.yul\":5433:5448   */\n      revert\n        /* \"#utility.yul\":5460:5645   */\n    tag_75:\n        /* \"#utility.yul\":5500:5501   */\n      0x00\n        /* \"#utility.yul\":5517:5537   */\n      tag_220\n        /* \"#utility.yul\":5535:5536   */\n      dup3\n        /* \"#utility.yul\":5517:5537   */\n      tag_142\n      jump\t// in\n    tag_220:\n        /* \"#utility.yul\":5512:5537   */\n      swap2\n      pop\n        /* \"#utility.yul\":5551:5571   */\n      tag_221\n        /* \"#utility.yul\":5569:5570   */\n      dup4\n        /* \"#utility.yul\":5551:5571   */\n      tag_142\n      jump\t// in\n    tag_221:\n        /* \"#utility.yul\":5546:5571   */\n      swap3\n      pop\n        /* \"#utility.yul\":5590:5591   */\n      dup3\n        /* \"#utility.yul\":5580:5615   */\n      tag_222\n      jumpi\n        /* \"#utility.yul\":5595:5613   */\n      tag_223\n      tag_157\n      jump\t// in\n    tag_223:\n        /* \"#utility.yul\":5580:5615   */\n    tag_222:\n        /* \"#utility.yul\":5637:5638   */\n      dup3\n        /* \"#utility.yul\":5634:5635   */\n      dup3\n        /* \"#utility.yul\":5630:5639   */\n      div\n        /* \"#utility.yul\":5625:5639   */\n      swap1\n      pop\n        /* \"#utility.yul\":5460:5645   */\n      swap3\n      swap2\n      pop\n      pop\n      jump\t// out\n        /* \"#utility.yul\":5651:5999   */\n    tag_80:\n        /* \"#utility.yul\":5691:5698   */\n      0x00\n        /* \"#utility.yul\":5714:5734   */\n      tag_225\n        /* \"#utility.yul\":5732:5733   */\n      dup3\n        /* \"#utility.yul\":5714:5734   */\n      tag_142\n      jump\t// in\n    tag_225:\n        /* \"#utility.yul\":5709:5734   */\n      swap2\n      pop\n        /* \"#utility.yul\":5748:5768   */\n      tag_226\n        /* \"#utility.yul\":5766:5767   */\n      dup4\n        /* \"#utility.yul\":5748:5768   */\n      tag_142\n      jump\t// in\n    tag_226:\n        /* \"#utility.yul\":5743:5768   */\n      swap3\n      pop\n        /* \"#utility.yul\":5936:5937   */\n      dup2\n        /* \"#utility.yul\":5868:5934   */\n      0xffffffffffffffffffffffffffffffffffffffffffffffffffffffffffffffff\n        /* \"#utility.yul\":5864:5938   */\n      div\n        /* \"#utility.yul\":5861:5862   */\n      dup4\n        /* \"#utility.yul\":5858:5939   */\n      gt\n        /* \"#utility.yul\":5853:5854   */\n      dup3\n        /* \"#utility.yul\":5846:5855   */\n      iszero\n        /* \"#utility.yul\":5839:5856   */\n      iszero\n        /* \"#utility.yul\":5835:5940   */\n      and\n        /* \"#utility.yul\":5832:5963   */\n      iszero\n      tag_227\n      jumpi\n        /* \"#utility.yul\":5943:5961   */\n      tag_228\n      tag_156\n      jump\t// in\n    tag_228:\n        /* \"#utility.yul\":5832:5963   */\n    tag_227:\n        /* \"#utility.yul\":5991:5992   */\n      dup3\n        /* \"#utility.yul\":5988:5989   */\n      dup3\n        /* \"#utility.yul\":5984:5993   */\n      mul\n        /* \"#utility.yul\":5973:5993   */\n      swap1\n      pop\n        /* \"#utility.yul\":5651:5999   */\n      swap3\n      swap2\n      pop\n      pop\n      jump\t// out\n        /* \"#utility.yul\":6005:6310   */\n    tag_92:\n        /* \"#utility.yul\":6045:6048   */\n      0x00\n        /* \"#utility.yul\":6064:6084   */\n      tag_230\n        /* \"#utility.yul\":6082:6083   */\n      dup3\n        /* \"#utility.yul\":6064:6084   */\n      tag_142\n      jump\t// in\n    tag_230:\n        /* \"#utility.yul\":6059:6084   */\n      swap2\n      pop\n        /* \"#utility.yul\":6098:6118   */\n      tag_231\n        /* \"#utility.yul\":6116:6117   */\n      dup4\n        /* \"#utility.yul\":6098:6118   */\n      tag_142\n      jump\t// in\n    tag_231:\n        /* \"#utility.yul\":6093:6118   */\n      swap3\n      pop\n        /* \"#utility.yul\":6252:6253   */\n      dup3\n        /* \"#utility.yul\":6184:6250   */\n      0xffffffffffffffffffffffffffffffffffffffffffffffffffffffffffffffff\n        /* \"#utility.yul\":6180:6254   */\n      sub\n        /* \"#utility.yul\":6177:6178   */\n      dup3\n        /* \"#utility.yul\":6174:6255   */\n      gt\n        /* \"#utility.yul\":6171:6278   */\n      iszero\n      tag_232\n      jumpi\n        /* \"#utility.yul\":6258:6276   */\n      tag_233\n      tag_156\n      jump\t// in\n    tag_233:\n        /* \"#utility.yul\":6171:6278   */\n    tag_232:\n        /* \"#utility.yul\":6302:6303   */\n      dup3\n        /* \"#utility.yul\":6299:6300   */\n      dup3\n        /* \"#utility.yul\":6295:6304   */\n      add\n        /* \"#utility.yul\":6288:6304   */\n      swap1\n      pop\n        /* \"#utility.yul\":6005:6310   */\n      swap3\n      swap2\n      pop\n      pop\n      jump\t// out\n        /* \"#utility.yul\":6316:6395   */\n    tag_158:\n        /* \"#utility.yul\":6355:6362   */\n      0x00\n        /* \"#utility.yul\":6384:6389   */\n      dup2\n        /* \"#utility.yul\":6373:6389   */\n      swap1\n      pop\n        /* \"#utility.yul\":6316:6395   */\n      swap2\n      swap1\n      pop\n      jump\t// out\n        /* \"#utility.yul\":6401:6558   */\n    tag_159:\n        /* \"#utility.yul\":6506:6551   */\n      tag_236\n        /* \"#utility.yul\":6526:6550   */\n      tag_237\n        /* \"#utility.yul\":6544:6549   */\n      dup3\n        /* \"#utility.yul\":6526:6550   */\n      tag_142\n      jump\t// in\n    tag_237:\n        /* \"#utility.yul\":6506:6551   */\n      tag_158\n      jump\t// in\n    tag_236:\n        /* \"#utility.yul\":6501:6504   */\n      dup3\n        /* \"#utility.yul\":6494:6552   */\n      mstore\n        /* \"#utility.yul\":6401:6558   */\n      pop\n      pop\n      jump\t// out\n        /* \"#utility.yul\":6564:6820   */\n    tag_97:\n        /* \"#utility.yul\":6676:6679   */\n      0x00\n        /* \"#utility.yul\":6691:6766   */\n      tag_239\n        /* \"#utility.yul\":6762:6765   */\n      dup3\n        /* \"#utility.yul\":6753:6759   */\n      dup5\n        /* \"#utility.yul\":6691:6766   */\n      tag_159\n      jump\t// in\n    tag_239:\n        /* \"#utility.yul\":6791:6793   */\n      0x20\n        /* \"#utility.yul\":6786:6789   */\n      dup3\n        /* \"#utility.yul\":6782:6794   */\n      add\n        /* \"#utility.yul\":6775:6794   */\n      swap2\n      pop\n        /* \"#utility.yul\":6811:6814   */\n      dup2\n        /* \"#utility.yul\":6804:6814   */\n      swap1\n      pop\n        /* \"#utility.yul\":6564:6820   */\n      swap3\n      swap2\n      pop\n      pop\n      jump\t// out\n        /* \"#utility.yul\":6826:7047   */\n    tag_160:\n        /* \"#utility.yul\":6966:7000   */\n      0x596f7520646964206e6f74207061792074686520636f727265637420616d6f75\n        /* \"#utility.yul\":6962:6963   */\n      0x00\n        /* \"#utility.yul\":6954:6960   */\n      dup3\n        /* \"#utility.yul\":6950:6964   */\n      add\n        /* \"#utility.yul\":6943:7001   */\n      mstore\n        /* \"#utility.yul\":7035:7039   */\n      0x6e74000000000000000000000000000000000000000000000000000000000000\n        /* \"#utility.yul\":7030:7032   */\n      0x20\n        /* \"#utility.yul\":7022:7028   */\n      dup3\n        /* \"#utility.yul\":7018:7033   */\n      add\n        /* \"#utility.yul\":7011:7040   */\n      mstore\n        /* \"#utility.yul\":6826:7047   */\n      pop\n      jump\t// out\n        /* \"#utility.yul\":7053:7419   */\n    tag_161:\n        /* \"#utility.yul\":7195:7198   */\n      0x00\n        /* \"#utility.yul\":7216:7283   */\n      tag_242\n        /* \"#utility.yul\":7280:7282   */\n      0x22\n        /* \"#utility.yul\":7275:7278   */\n      dup4\n        /* \"#utility.yul\":7216:7283   */\n      tag_153\n      jump\t// in\n    tag_242:\n        /* \"#utility.yul\":7209:7283   */\n      swap2\n      pop\n        /* \"#utility.yul\":7292:7385   */\n      tag_243\n        /* \"#utility.yul\":7381:7384   */\n      dup3\n        /* \"#utility.yul\":7292:7385   */\n      tag_160\n      jump\t// in\n    tag_243:\n        /* \"#utility.yul\":7410:7412   */\n      0x40\n        /* \"#utility.yul\":7405:7408   */\n      dup3\n        /* \"#utility.yul\":7401:7413   */\n      add\n        /* \"#utility.yul\":7394:7413   */\n      swap1\n      pop\n        /* \"#utility.yul\":7053:7419   */\n      swap2\n      swap1\n      pop\n      jump\t// out\n        /* \"#utility.yul\":7425:7844   */\n    tag_126:\n        /* \"#utility.yul\":7591:7595   */\n      0x00\n        /* \"#utility.yul\":7629:7631   */\n      0x20\n        /* \"#utility.yul\":7618:7627   */\n      dup3\n        /* \"#utility.yul\":7614:7632   */\n      add\n        /* \"#utility.yul\":7606:7632   */\n      swap1\n      pop\n        /* \"#utility.yul\":7678:7687   */\n      dup2\n        /* \"#utility.yul\":7672:7676   */\n      dup2\n        /* \"#utility.yul\":7668:7688   */\n      sub\n        /* \"#utility.yul\":7664:7665   */\n      0x00\n        /* \"#utility.yul\":7653:7662   */\n      dup4\n        /* \"#utility.yul\":7649:7666   */\n      add\n        /* \"#utility.yul\":7642:7689   */\n      mstore\n        /* \"#utility.yul\":7706:7837   */\n      tag_245\n        /* \"#utility.yul\":7832:7836   */\n      dup2\n        /* \"#utility.yul\":7706:7837   */\n      tag_161\n      jump\t// in\n    tag_245:\n        /* \"#utility.yul\":7698:7837   */\n      swap1\n      pop\n        /* \"#utility.yul\":7425:7844   */\n      swap2\n      swap1\n      pop\n      jump\t// out\n\n    auxdata: 0xa2646970667358221220e07ec618560fcd3bd64e1ed808b3fb3636ab1b30085089994c2f8e9582ac803364736f6c634300080a0033\n}\n","bytecode":{"linkReferences":{},"object":"60806040523480156200001157600080fd5b50336000806101000a81548173ffffffffffffffffffffffffffffffffffffffff021916908373ffffffffffffffffffffffffffffffffffffffff160217905550600f600181905550600a600281905550600560038190555060005b601e8110156200041e5780600011158015620000895750600f81105b15620001b15760006040518060e0016040528066470de4df820000815260200160006002811115620000c057620000bf62000425565b5b8152602001600184620000d491906200048d565b815260200160001515815260200160008152602001600081526020016000815250905060048190806001815401808255809150506001900390600052602060002090600702016000909190919091506000820151816000015560208201518160010160006101000a81548160ff021916908360028111156200015b576200015a62000425565b5b02179055506040820151816002015560608201518160030160006101000a81548160ff0219169083151502179055506080820151816004015560a0820151816005015560c0820151816006015550505062000408565b80600f11158015620001c35750601981105b15620002eb5760006040518060e00160405280668e1bc9bf040000815260200160016002811115620001fa57620001f962000425565b5b81526020016001846200020e91906200048d565b815260200160001515815260200160008152602001600081526020016000815250905060048190806001815401808255809150506001900390600052602060002090600702016000909190919091506000820151816000015560208201518160010160006101000a81548160ff0219169083600281111562000295576200029462000425565b5b02179055506040820151816002015560608201518160030160006101000a81548160ff0219169083151502179055506080820151816004015560a0820151816005015560c0820151816006015550505062000407565b60006040518060e0016040528066d529ae9e86000081526020016002808111156200031b576200031a62000425565b5b81526020016001846200032f91906200048d565b815260200160001515815260200160008152602001600081526020016000815250905060048190806001815401808255809150506001900390600052602060002090600702016000909190919091506000820151816000015560208201518160010160006101000a81548160ff02191690836002811115620003b657620003b562000425565b5b02179055506040820151816002015560608201518160030160006101000a81548160ff0219169083151502179055506080820151816004015560a0820151816005015560c082015181600601555050505b5b80806200041590620004ea565b9150506200006d565b5062000538565b7f4e487b7100000000000000000000000000000000000000000000000000000000600052602160045260246000fd5b6000819050919050565b7f4e487b7100000000000000000000000000000000000000000000000000000000600052601160045260246000fd5b60006200049a8262000454565b9150620004a78362000454565b9250827fffffffffffffffffffffffffffffffffffffffffffffffffffffffffffffffff03821115620004df57620004de6200045e565b5b828201905092915050565b6000620004f78262000454565b91507fffffffffffffffffffffffffffffffffffffffffffffffffffffffffffffffff8214156200052d576200052c6200045e565b5b600182019050919050565b610cb780620005486000396000f3fe6080604052600436106100865760003560e01c80636d8a74cb116100595780636d8a74cb1461014c578063c290d6911461018f578063ccfb0182146101ab578063dab3a89f146101d6578063e85974931461020157610086565b80631bae0ac81461008b5780633ccfd60b146100ce5780634c9ba852146100e55780635f49d3d81461010e575b600080fd5b34801561009757600080fd5b506100b260048036038101906100ad9190610813565b61022c565b6040516100c597969594939291906108e1565b60405180910390f35b3480156100da57600080fd5b506100e3610298565b005b3480156100f157600080fd5b5061010c60048036038101906101079190610813565b61038f565b005b34801561011a57600080fd5b5061013560048036038101906101309190610813565b610485565b604051610143929190610950565b60405180910390f35b34801561015857600080fd5b50610173600480360381019061016e9190610813565b610555565b60405161018697969594939291906108e1565b60405180910390f35b6101a960048036038101906101a49190610813565b61069d565b005b3480156101b757600080fd5b506101c06107c6565b6040516101cd9190610979565b60405180910390f35b3480156101e257600080fd5b506101eb6107cc565b6040516101f89190610979565b60405180910390f35b34801561020d57600080fd5b506102166107d2565b6040516102239190610979565b60405180910390f35b6004818154811061023c57600080fd5b90600052602060002090600702016000915090508060000154908060010160009054906101000a900460ff16908060020154908060030160009054906101000a900460ff16908060040154908060050154908060060154905087565b3373ffffffffffffffffffffffffffffffffffffffff1660008054906101000a900473ffffffffffffffffffffffffffffffffffffffff1673ffffffffffffffffffffffffffffffffffffffff1614610326576040517f08c379a000000000000000000000000000000000000000000000000000000000815260040161031d906109f1565b60405180910390fd5b60008054906101000a900473ffffffffffffffffffffffffffffffffffffffff1673ffffffffffffffffffffffffffffffffffffffff166108fc479081150290604051600060405180830381858888f1935050505015801561038c573d6000803e3d6000fd5b50565b42600482815481106103a4576103a3610a11565b5b906000526020600020906007020160050181905550600062015180600483815481106103d3576103d2610a11565b5b906000526020600020906007020160040154600484815481106103f9576103f8610a11565b5b9060005260206000209060070201600501546104159190610a6f565b61041f9190610ad2565b90506000816004848154811061043857610437610a11565b5b9060005260206000209060070201600001546104549190610b03565b9050806004848154811061046b5761046a610a11565b5b906000526020600020906007020160060181905550505050565b60008060016004848154811061049e5761049d610a11565b5b906000526020600020906007020160030160006101000a81548160ff02191690831515021790555042600484815481106104db576104da610a11565b5b9060005260206000209060070201600401819055506001836104fd9190610b5d565b91506004838154811061051357610512610a11565b5b9060005260206000209060070201600201546040516020016105359190610bd4565b6040516020818303038152906040528051906020012060001c9050915091565b60008060008060008060006004888154811061057457610573610a11565b5b9060005260206000209060070201600001546004898154811061059a57610599610a11565b5b906000526020600020906007020160010160009054906101000a900460ff1660048a815481106105cd576105cc610a11565b5b90600052602060002090600702016002015460048b815481106105f3576105f2610a11565b5b906000526020600020906007020160030160009054906101000a900460ff1660048c8154811061062657610625610a11565b5b90600052602060002090600702016004015460048d8154811061064c5761064b610a11565b5b90600052602060002090600702016005015460048e8154811061067257610671610a11565b5b9060005260206000209060070201600601549650965096509650965096509650919395979092949650565b600481815481106106b1576106b0610a11565b5b9060005260206000209060070201600601543414610704576040517f08c379a00000000000000000000000000000000000000000000000000000000081526004016106fb90610c61565b60405180910390fd5b60006004828154811061071a57610719610a11565b5b906000526020600020906007020160030160006101000a81548160ff02191690831515021790555060006004828154811061075857610757610a11565b5b90600052602060002090600702016004018190555060006004828154811061078357610782610a11565b5b9060005260206000209060070201600501819055506000600482815481106107ae576107ad610a11565b5b90600052602060002090600702016006018190555050565b60025481565b60015481565b60035481565b600080fd5b6000819050919050565b6107f0816107dd565b81146107fb57600080fd5b50565b60008135905061080d816107e7565b92915050565b600060208284031215610829576108286107d8565b5b6000610837848285016107fe565b91505092915050565b610849816107dd565b82525050565b7f4e487b7100000000000000000000000000000000000000000000000000000000600052602160045260246000fd5b6003811061088f5761088e61084f565b5b50565b60008190506108a08261087e565b919050565b60006108b082610892565b9050919050565b6108c0816108a5565b82525050565b60008115159050919050565b6108db816108c6565b82525050565b600060e0820190506108f6600083018a610840565b61090360208301896108b7565b6109106040830188610840565b61091d60608301876108d2565b61092a6080830186610840565b61093760a0830185610840565b61094460c0830184610840565b98975050505050505050565b60006040820190506109656000830185610840565b6109726020830184610840565b9392505050565b600060208201905061098e6000830184610840565b92915050565b600082825260208201905092915050565b7f596f7520617265206e6f7420746865206f776e65720000000000000000000000600082015250565b60006109db601583610994565b91506109e6826109a5565b602082019050919050565b60006020820190508181036000830152610a0a816109ce565b9050919050565b7f4e487b7100000000000000000000000000000000000000000000000000000000600052603260045260246000fd5b7f4e487b7100000000000000000000000000000000000000000000000000000000600052601160045260246000fd5b6000610a7a826107dd565b9150610a85836107dd565b925082821015610a9857610a97610a40565b5b828203905092915050565b7f4e487b7100000000000000000000000000000000000000000000000000000000600052601260045260246000fd5b6000610add826107dd565b9150610ae8836107dd565b925082610af857610af7610aa3565b5b828204905092915050565b6000610b0e826107dd565b9150610b19836107dd565b9250817fffffffffffffffffffffffffffffffffffffffffffffffffffffffffffffffff0483118215151615610b5257610b51610a40565b5b828202905092915050565b6000610b68826107dd565b9150610b73836107dd565b9250827fffffffffffffffffffffffffffffffffffffffffffffffffffffffffffffffff03821115610ba857610ba7610a40565b5b828201905092915050565b6000819050919050565b610bce610bc9826107dd565b610bb3565b82525050565b6000610be08284610bbd565b60208201915081905092915050565b7f596f7520646964206e6f74207061792074686520636f727265637420616d6f7560008201527f6e74000000000000000000000000000000000000000000000000000000000000602082015250565b6000610c4b602283610994565b9150610c5682610bef565b604082019050919050565b60006020820190508181036000830152610c7a81610c3e565b905091905056fea2646970667358221220e07ec618560fcd3bd64e1ed808b3fb3636ab1b30085089994c2f8e9582ac803364736f6c634300080a0033","opcodes":"PUSH1 0x80 PUSH1 0x40 MSTORE CALLVALUE DUP1 ISZERO PUSH3 0x11 JUMPI PUSH1 0x0 DUP1 REVERT JUMPDEST POP CALLER PUSH1 0x0 DUP1 PUSH2 0x100 EXP DUP2 SLOAD DUP2 PUSH20 0xFFFFFFFFFFFFFFFFFFFFFFFFFFFFFFFFFFFFFFFF MUL NOT AND SWAP1 DUP4 PUSH20 0xFFFFFFFFFFFFFFFFFFFFFFFFFFFFFFFFFFFFFFFF AND MUL OR SWAP1 SSTORE POP PUSH1 0xF PUSH1 0x1 DUP2 SWAP1 SSTORE POP PUSH1 0xA PUSH1 0x2 DUP2 SWAP1 SSTORE POP PUSH1 0x5 PUSH1 0x3 DUP2 SWAP1 SSTORE POP PUSH1 0x0 JUMPDEST PUSH1 0x1E DUP2 LT ISZERO PUSH3 0x41E JUMPI DUP1 PUSH1 0x0 GT ISZERO DUP1 ISZERO PUSH3 0x89 JUMPI POP PUSH1 0xF DUP2 LT JUMPDEST ISZERO PUSH3 0x1B1 JUMPI PUSH1 0x0 PUSH1 0x40 MLOAD DUP1 PUSH1 0xE0 ADD PUSH1 0x40 MSTORE DUP1 PUSH7 0x470DE4DF820000 DUP2 MSTORE PUSH1 0x20 ADD PUSH1 0x0 PUSH1 0x2 DUP2 GT ISZERO PUSH3 0xC0 JUMPI PUSH3 0xBF PUSH3 0x425 JUMP JUMPDEST JUMPDEST DUP2 MSTORE PUSH1 0x20 ADD PUSH1 0x1 DUP5 PUSH3 0xD4 SWAP2 SWAP1 PUSH3 0x48D JUMP JUMPDEST DUP2 MSTORE PUSH1 0x20 ADD PUSH1 0x0 ISZERO ISZERO DUP2 MSTORE PUSH1 0x20 ADD PUSH1 0x0 DUP2 MSTORE PUSH1 0x20 ADD PUSH1 0x0 DUP2 MSTORE PUSH1 0x20 ADD PUSH1 0x0 DUP2 MSTORE POP SWAP1 POP PUSH1 0x4 DUP2 SWAP1 DUP1 PUSH1 0x1 DUP2 SLOAD ADD DUP1 DUP3 SSTORE DUP1 SWAP2 POP POP PUSH1 0x1 SWAP1 SUB SWAP1 PUSH1 0x0 MSTORE PUSH1 0x20 PUSH1 0x0 KECCAK256 SWAP1 PUSH1 0x7 MUL ADD PUSH1 0x0 SWAP1 SWAP2 SWAP1 SWAP2 SWAP1 SWAP2 POP PUSH1 0x0 DUP3 ADD MLOAD DUP2 PUSH1 0x0 ADD SSTORE PUSH1 0x20 DUP3 ADD MLOAD DUP2 PUSH1 0x1 ADD PUSH1 0x0 PUSH2 0x100 EXP DUP2 SLOAD DUP2 PUSH1 0xFF MUL NOT AND SWAP1 DUP4 PUSH1 0x2 DUP2 GT ISZERO PUSH3 0x15B JUMPI PUSH3 0x15A PUSH3 0x425 JUMP JUMPDEST JUMPDEST MUL OR SWAP1 SSTORE POP PUSH1 0x40 DUP3 ADD MLOAD DUP2 PUSH1 0x2 ADD SSTORE PUSH1 0x60 DUP3 ADD MLOAD DUP2 PUSH1 0x3 ADD PUSH1 0x0 PUSH2 0x100 EXP DUP2 SLOAD DUP2 PUSH1 0xFF MUL NOT AND SWAP1 DUP4 ISZERO ISZERO MUL OR SWAP1 SSTORE POP PUSH1 0x80 DUP3 ADD MLOAD DUP2 PUSH1 0x4 ADD SSTORE PUSH1 0xA0 DUP3 ADD MLOAD DUP2 PUSH1 0x5 ADD SSTORE PUSH1 0xC0 DUP3 ADD MLOAD DUP2 PUSH1 0x6 ADD SSTORE POP POP POP PUSH3 0x408 JUMP JUMPDEST DUP1 PUSH1 0xF GT ISZERO DUP1 ISZERO PUSH3 0x1C3 JUMPI POP PUSH1 0x19 DUP2 LT JUMPDEST ISZERO PUSH3 0x2EB JUMPI PUSH1 0x0 PUSH1 0x40 MLOAD DUP1 PUSH1 0xE0 ADD PUSH1 0x40 MSTORE DUP1 PUSH7 0x8E1BC9BF040000 DUP2 MSTORE PUSH1 0x20 ADD PUSH1 0x1 PUSH1 0x2 DUP2 GT ISZERO PUSH3 0x1FA JUMPI PUSH3 0x1F9 PUSH3 0x425 JUMP JUMPDEST JUMPDEST DUP2 MSTORE PUSH1 0x20 ADD PUSH1 0x1 DUP5 PUSH3 0x20E SWAP2 SWAP1 PUSH3 0x48D JUMP JUMPDEST DUP2 MSTORE PUSH1 0x20 ADD PUSH1 0x0 ISZERO ISZERO DUP2 MSTORE PUSH1 0x20 ADD PUSH1 0x0 DUP2 MSTORE PUSH1 0x20 ADD PUSH1 0x0 DUP2 MSTORE PUSH1 0x20 ADD PUSH1 0x0 DUP2 MSTORE POP SWAP1 POP PUSH1 0x4 DUP2 SWAP1 DUP1 PUSH1 0x1 DUP2 SLOAD ADD DUP1 DUP3 SSTORE DUP1 SWAP2 POP POP PUSH1 0x1 SWAP1 SUB SWAP1 PUSH1 0x0 MSTORE PUSH1 0x20 PUSH1 0x0 KECCAK256 SWAP1 PUSH1 0x7 MUL ADD PUSH1 0x0 SWAP1 SWAP2 SWAP1 SWAP2 SWAP1 SWAP2 POP PUSH1 0x0 DUP3 ADD MLOAD DUP2 PUSH1 0x0 ADD SSTORE PUSH1 0x20 DUP3 ADD MLOAD DUP2 PUSH1 0x1 ADD PUSH1 0x0 PUSH2 0x100 EXP DUP2 SLOAD DUP2 PUSH1 0xFF MUL NOT AND SWAP1 DUP4 PUSH1 0x2 DUP2 GT ISZERO PUSH3 0x295 JUMPI PUSH3 0x294 PUSH3 0x425 JUMP JUMPDEST JUMPDEST MUL OR SWAP1 SSTORE POP PUSH1 0x40 DUP3 ADD MLOAD DUP2 PUSH1 0x2 ADD SSTORE PUSH1 0x60 DUP3 ADD MLOAD DUP2 PUSH1 0x3 ADD PUSH1 0x0 PUSH2 0x100 EXP DUP2 SLOAD DUP2 PUSH1 0xFF MUL NOT AND SWAP1 DUP4 ISZERO ISZERO MUL OR SWAP1 SSTORE POP PUSH1 0x80 DUP3 ADD MLOAD DUP2 PUSH1 0x4 ADD SSTORE PUSH1 0xA0 DUP3 ADD MLOAD DUP2 PUSH1 0x5 ADD SSTORE PUSH1 0xC0 DUP3 ADD MLOAD DUP2 PUSH1 0x6 ADD SSTORE POP POP POP PUSH3 0x407 JUMP JUMPDEST PUSH1 0x0 PUSH1 0x40 MLOAD DUP1 PUSH1 0xE0 ADD PUSH1 0x40 MSTORE DUP1 PUSH7 0xD529AE9E860000 DUP2 MSTORE PUSH1 0x20 ADD PUSH1 0x2 DUP1 DUP2 GT ISZERO PUSH3 0x31B JUMPI PUSH3 0x31A PUSH3 0x425 JUMP JUMPDEST JUMPDEST DUP2 MSTORE PUSH1 0x20 ADD PUSH1 0x1 DUP5 PUSH3 0x32F SWAP2 SWAP1 PUSH3 0x48D JUMP JUMPDEST DUP2 MSTORE PUSH1 0x20 ADD PUSH1 0x0 ISZERO ISZERO DUP2 MSTORE PUSH1 0x20 ADD PUSH1 0x0 DUP2 MSTORE PUSH1 0x20 ADD PUSH1 0x0 DUP2 MSTORE PUSH1 0x20 ADD PUSH1 0x0 DUP2 MSTORE POP SWAP1 POP PUSH1 0x4 DUP2 SWAP1 DUP1 PUSH1 0x1 DUP2 SLOAD ADD DUP1 DUP3 SSTORE DUP1 SWAP2 POP POP PUSH1 0x1 SWAP1 SUB SWAP1 PUSH1 0x0 MSTORE PUSH1 0x20 PUSH1 0x0 KECCAK256 SWAP1 PUSH1 0x7 MUL ADD PUSH1 0x0 SWAP1 SWAP2 SWAP1 SWAP2 SWAP1 SWAP2 POP PUSH1 0x0 DUP3 ADD MLOAD DUP2 PUSH1 0x0 ADD SSTORE PUSH1 0x20 DUP3 ADD MLOAD DUP2 PUSH1 0x1 ADD PUSH1 0x0 PUSH2 0x100 EXP DUP2 SLOAD DUP2 PUSH1 0xFF MUL NOT AND SWAP1 DUP4 PUSH1 0x2 DUP2 GT ISZERO PUSH3 0x3B6 JUMPI PUSH3 0x3B5 PUSH3 0x425 JUMP JUMPDEST JUMPDEST MUL OR SWAP1 SSTORE POP PUSH1 0x40 DUP3 ADD MLOAD DUP2 PUSH1 0x2 ADD SSTORE PUSH1 0x60 DUP3 ADD MLOAD DUP2 PUSH1 0x3 ADD PUSH1 0x0 PUSH2 0x100 EXP DUP2 SLOAD DUP2 PUSH1 0xFF MUL NOT AND SWAP1 DUP4 ISZERO ISZERO MUL OR SWAP1 SSTORE POP PUSH1 0x80 DUP3 ADD MLOAD DUP2 PUSH1 0x4 ADD SSTORE PUSH1 0xA0 DUP3 ADD MLOAD DUP2 PUSH1 0x5 ADD SSTORE PUSH1 0xC0 DUP3 ADD MLOAD DUP2 PUSH1 0x6 ADD SSTORE POP POP POP JUMPDEST JUMPDEST DUP1 DUP1 PUSH3 0x415 SWAP1 PUSH3 0x4EA JUMP JUMPDEST SWAP2 POP POP PUSH3 0x6D JUMP JUMPDEST POP PUSH3 0x538 JUMP JUMPDEST PUSH32 0x4E487B7100000000000000000000000000000000000000000000000000000000 PUSH1 0x0 MSTORE PUSH1 0x21 PUSH1 0x4 MSTORE PUSH1 0x24 PUSH1 0x0 REVERT JUMPDEST PUSH1 0x0 DUP2 SWAP1 POP SWAP2 SWAP1 POP JUMP JUMPDEST PUSH32 0x4E487B7100000000000000000000000000000000000000000000000000000000 PUSH1 0x0 MSTORE PUSH1 0x11 PUSH1 0x4 MSTORE PUSH1 0x24 PUSH1 0x0 REVERT JUMPDEST PUSH1 0x0 PUSH3 0x49A DUP3 PUSH3 0x454 JUMP JUMPDEST SWAP2 POP PUSH3 0x4A7 DUP4 PUSH3 0x454 JUMP JUMPDEST SWAP3 POP DUP3 PUSH32 0xFFFFFFFFFFFFFFFFFFFFFFFFFFFFFFFFFFFFFFFFFFFFFFFFFFFFFFFFFFFFFFFF SUB DUP3 GT ISZERO PUSH3 0x4DF JUMPI PUSH3 0x4DE PUSH3 0x45E JUMP JUMPDEST JUMPDEST DUP3 DUP3 ADD SWAP1 POP SWAP3 SWAP2 POP POP JUMP JUMPDEST PUSH1 0x0 PUSH3 0x4F7 DUP3 PUSH3 0x454 JUMP JUMPDEST SWAP2 POP PUSH32 0xFFFFFFFFFFFFFFFFFFFFFFFFFFFFFFFFFFFFFFFFFFFFFFFFFFFFFFFFFFFFFFFF DUP3 EQ ISZERO PUSH3 0x52D JUMPI PUSH3 0x52C PUSH3 0x45E JUMP JUMPDEST JUMPDEST PUSH1 0x1 DUP3 ADD SWAP1 POP SWAP2 SWAP1 POP JUMP JUMPDEST PUSH2 0xCB7 DUP1 PUSH3 0x548 PUSH1 0x0 CODECOPY PUSH1 0x0 RETURN INVALID PUSH1 0x80 PUSH1 0x40 MSTORE PUSH1 0x4 CALLDATASIZE LT PUSH2 0x86 JUMPI PUSH1 0x0 CALLDATALOAD PUSH1 0xE0 SHR DUP1 PUSH4 0x6D8A74CB GT PUSH2 0x59 JUMPI DUP1 PUSH4 0x6D8A74CB EQ PUSH2 0x14C JUMPI DUP1 PUSH4 0xC290D691 EQ PUSH2 0x18F JUMPI DUP1 PUSH4 0xCCFB0182 EQ PUSH2 0x1AB JUMPI DUP1 PUSH4 0xDAB3A89F EQ PUSH2 0x1D6 JUMPI DUP1 PUSH4 0xE8597493 EQ PUSH2 0x201 JUMPI PUSH2 0x86 JUMP JUMPDEST DUP1 PUSH4 0x1BAE0AC8 EQ PUSH2 0x8B JUMPI DUP1 PUSH4 0x3CCFD60B EQ PUSH2 0xCE JUMPI DUP1 PUSH4 0x4C9BA852 EQ PUSH2 0xE5 JUMPI DUP1 PUSH4 0x5F49D3D8 EQ PUSH2 0x10E JUMPI JUMPDEST PUSH1 0x0 DUP1 REVERT JUMPDEST CALLVALUE DUP1 ISZERO PUSH2 0x97 JUMPI PUSH1 0x0 DUP1 REVERT JUMPDEST POP PUSH2 0xB2 PUSH1 0x4 DUP1 CALLDATASIZE SUB DUP2 ADD SWAP1 PUSH2 0xAD SWAP2 SWAP1 PUSH2 0x813 JUMP JUMPDEST PUSH2 0x22C JUMP JUMPDEST PUSH1 0x40 MLOAD PUSH2 0xC5 SWAP8 SWAP7 SWAP6 SWAP5 SWAP4 SWAP3 SWAP2 SWAP1 PUSH2 0x8E1 JUMP JUMPDEST PUSH1 0x40 MLOAD DUP1 SWAP2 SUB SWAP1 RETURN JUMPDEST CALLVALUE DUP1 ISZERO PUSH2 0xDA JUMPI PUSH1 0x0 DUP1 REVERT JUMPDEST POP PUSH2 0xE3 PUSH2 0x298 JUMP JUMPDEST STOP JUMPDEST CALLVALUE DUP1 ISZERO PUSH2 0xF1 JUMPI PUSH1 0x0 DUP1 REVERT JUMPDEST POP PUSH2 0x10C PUSH1 0x4 DUP1 CALLDATASIZE SUB DUP2 ADD SWAP1 PUSH2 0x107 SWAP2 SWAP1 PUSH2 0x813 JUMP JUMPDEST PUSH2 0x38F JUMP JUMPDEST STOP JUMPDEST CALLVALUE DUP1 ISZERO PUSH2 0x11A JUMPI PUSH1 0x0 DUP1 REVERT JUMPDEST POP PUSH2 0x135 PUSH1 0x4 DUP1 CALLDATASIZE SUB DUP2 ADD SWAP1 PUSH2 0x130 SWAP2 SWAP1 PUSH2 0x813 JUMP JUMPDEST PUSH2 0x485 JUMP JUMPDEST PUSH1 0x40 MLOAD PUSH2 0x143 SWAP3 SWAP2 SWAP1 PUSH2 0x950 JUMP JUMPDEST PUSH1 0x40 MLOAD DUP1 SWAP2 SUB SWAP1 RETURN JUMPDEST CALLVALUE DUP1 ISZERO PUSH2 0x158 JUMPI PUSH1 0x0 DUP1 REVERT JUMPDEST POP PUSH2 0x173 PUSH1 0x4 DUP1 CALLDATASIZE SUB DUP2 ADD SWAP1 PUSH2 0x16E SWAP2 SWAP1 PUSH2 0x813 JUMP JUMPDEST PUSH2 0x555 JUMP JUMPDEST PUSH1 0x40 MLOAD PUSH2 0x186 SWAP8 SWAP7 SWAP6 SWAP5 SWAP4 SWAP3 SWAP2 SWAP1 PUSH2 0x8E1 JUMP JUMPDEST PUSH1 0x40 MLOAD DUP1 SWAP2 SUB SWAP1 RETURN JUMPDEST PUSH2 0x1A9 PUSH1 0x4 DUP1 CALLDATASIZE SUB DUP2 ADD SWAP1 PUSH2 0x1A4 SWAP2 SWAP1 PUSH2 0x813 JUMP JUMPDEST PUSH2 0x69D JUMP JUMPDEST STOP JUMPDEST CALLVALUE DUP1 ISZERO PUSH2 0x1B7 JUMPI PUSH1 0x0 DUP1 REVERT JUMPDEST POP PUSH2 0x1C0 PUSH2 0x7C6 JUMP JUMPDEST PUSH1 0x40 MLOAD PUSH2 0x1CD SWAP2 SWAP1 PUSH2 0x979 JUMP JUMPDEST PUSH1 0x40 MLOAD DUP1 SWAP2 SUB SWAP1 RETURN JUMPDEST CALLVALUE DUP1 ISZERO PUSH2 0x1E2 JUMPI PUSH1 0x0 DUP1 REVERT JUMPDEST POP PUSH2 0x1EB PUSH2 0x7CC JUMP JUMPDEST PUSH1 0x40 MLOAD PUSH2 0x1F8 SWAP2 SWAP1 PUSH2 0x979 JUMP JUMPDEST PUSH1 0x40 MLOAD DUP1 SWAP2 SUB SWAP1 RETURN JUMPDEST CALLVALUE DUP1 ISZERO PUSH2 0x20D JUMPI PUSH1 0x0 DUP1 REVERT JUMPDEST POP PUSH2 0x216 PUSH2 0x7D2 JUMP JUMPDEST PUSH1 0x40 MLOAD PUSH2 0x223 SWAP2 SWAP1 PUSH2 0x979 JUMP JUMPDEST PUSH1 0x40 MLOAD DUP1 SWAP2 SUB SWAP1 RETURN JUMPDEST PUSH1 0x4 DUP2 DUP2 SLOAD DUP2 LT PUSH2 0x23C JUMPI PUSH1 0x0 DUP1 REVERT JUMPDEST SWAP1 PUSH1 0x0 MSTORE PUSH1 0x20 PUSH1 0x0 KECCAK256 SWAP1 PUSH1 0x7 MUL ADD PUSH1 0x0 SWAP2 POP SWAP1 POP DUP1 PUSH1 0x0 ADD SLOAD SWAP1 DUP1 PUSH1 0x1 ADD PUSH1 0x0 SWAP1 SLOAD SWAP1 PUSH2 0x100 EXP SWAP1 DIV PUSH1 0xFF AND SWAP1 DUP1 PUSH1 0x2 ADD SLOAD SWAP1 DUP1 PUSH1 0x3 ADD PUSH1 0x0 SWAP1 SLOAD SWAP1 PUSH2 0x100 EXP SWAP1 DIV PUSH1 0xFF AND SWAP1 DUP1 PUSH1 0x4 ADD SLOAD SWAP1 DUP1 PUSH1 0x5 ADD SLOAD SWAP1 DUP1 PUSH1 0x6 ADD SLOAD SWAP1 POP DUP8 JUMP JUMPDEST CALLER PUSH20 0xFFFFFFFFFFFFFFFFFFFFFFFFFFFFFFFFFFFFFFFF AND PUSH1 0x0 DUP1 SLOAD SWAP1 PUSH2 0x100 EXP SWAP1 DIV PUSH20 0xFFFFFFFFFFFFFFFFFFFFFFFFFFFFFFFFFFFFFFFF AND PUSH20 0xFFFFFFFFFFFFFFFFFFFFFFFFFFFFFFFFFFFFFFFF AND EQ PUSH2 0x326 JUMPI PUSH1 0x40 MLOAD PUSH32 0x8C379A000000000000000000000000000000000000000000000000000000000 DUP2 MSTORE PUSH1 0x4 ADD PUSH2 0x31D SWAP1 PUSH2 0x9F1 JUMP JUMPDEST PUSH1 0x40 MLOAD DUP1 SWAP2 SUB SWAP1 REVERT JUMPDEST PUSH1 0x0 DUP1 SLOAD SWAP1 PUSH2 0x100 EXP SWAP1 DIV PUSH20 0xFFFFFFFFFFFFFFFFFFFFFFFFFFFFFFFFFFFFFFFF AND PUSH20 0xFFFFFFFFFFFFFFFFFFFFFFFFFFFFFFFFFFFFFFFF AND PUSH2 0x8FC SELFBALANCE SWAP1 DUP2 ISZERO MUL SWAP1 PUSH1 0x40 MLOAD PUSH1 0x0 PUSH1 0x40 MLOAD DUP1 DUP4 SUB DUP2 DUP6 DUP9 DUP9 CALL SWAP4 POP POP POP POP ISZERO DUP1 ISZERO PUSH2 0x38C JUMPI RETURNDATASIZE PUSH1 0x0 DUP1 RETURNDATACOPY RETURNDATASIZE PUSH1 0x0 REVERT JUMPDEST POP JUMP JUMPDEST TIMESTAMP PUSH1 0x4 DUP3 DUP2 SLOAD DUP2 LT PUSH2 0x3A4 JUMPI PUSH2 0x3A3 PUSH2 0xA11 JUMP JUMPDEST JUMPDEST SWAP1 PUSH1 0x0 MSTORE PUSH1 0x20 PUSH1 0x0 KECCAK256 SWAP1 PUSH1 0x7 MUL ADD PUSH1 0x5 ADD DUP2 SWAP1 SSTORE POP PUSH1 0x0 PUSH3 0x15180 PUSH1 0x4 DUP4 DUP2 SLOAD DUP2 LT PUSH2 0x3D3 JUMPI PUSH2 0x3D2 PUSH2 0xA11 JUMP JUMPDEST JUMPDEST SWAP1 PUSH1 0x0 MSTORE PUSH1 0x20 PUSH1 0x0 KECCAK256 SWAP1 PUSH1 0x7 MUL ADD PUSH1 0x4 ADD SLOAD PUSH1 0x4 DUP5 DUP2 SLOAD DUP2 LT PUSH2 0x3F9 JUMPI PUSH2 0x3F8 PUSH2 0xA11 JUMP JUMPDEST JUMPDEST SWAP1 PUSH1 0x0 MSTORE PUSH1 0x20 PUSH1 0x0 KECCAK256 SWAP1 PUSH1 0x7 MUL ADD PUSH1 0x5 ADD SLOAD PUSH2 0x415 SWAP2 SWAP1 PUSH2 0xA6F JUMP JUMPDEST PUSH2 0x41F SWAP2 SWAP1 PUSH2 0xAD2 JUMP JUMPDEST SWAP1 POP PUSH1 0x0 DUP2 PUSH1 0x4 DUP5 DUP2 SLOAD DUP2 LT PUSH2 0x438 JUMPI PUSH2 0x437 PUSH2 0xA11 JUMP JUMPDEST JUMPDEST SWAP1 PUSH1 0x0 MSTORE PUSH1 0x20 PUSH1 0x0 KECCAK256 SWAP1 PUSH1 0x7 MUL ADD PUSH1 0x0 ADD SLOAD PUSH2 0x454 SWAP2 SWAP1 PUSH2 0xB03 JUMP JUMPDEST SWAP1 POP DUP1 PUSH1 0x4 DUP5 DUP2 SLOAD DUP2 LT PUSH2 0x46B JUMPI PUSH2 0x46A PUSH2 0xA11 JUMP JUMPDEST JUMPDEST SWAP1 PUSH1 0x0 MSTORE PUSH1 0x20 PUSH1 0x0 KECCAK256 SWAP1 PUSH1 0x7 MUL ADD PUSH1 0x6 ADD DUP2 SWAP1 SSTORE POP POP POP POP JUMP JUMPDEST PUSH1 0x0 DUP1 PUSH1 0x1 PUSH1 0x4 DUP5 DUP2 SLOAD DUP2 LT PUSH2 0x49E JUMPI PUSH2 0x49D PUSH2 0xA11 JUMP JUMPDEST JUMPDEST SWAP1 PUSH1 0x0 MSTORE PUSH1 0x20 PUSH1 0x0 KECCAK256 SWAP1 PUSH1 0x7 MUL ADD PUSH1 0x3 ADD PUSH1 0x0 PUSH2 0x100 EXP DUP2 SLOAD DUP2 PUSH1 0xFF MUL NOT AND SWAP1 DUP4 ISZERO ISZERO MUL OR SWAP1 SSTORE POP TIMESTAMP PUSH1 0x4 DUP5 DUP2 SLOAD DUP2 LT PUSH2 0x4DB JUMPI PUSH2 0x4DA PUSH2 0xA11 JUMP JUMPDEST JUMPDEST SWAP1 PUSH1 0x0 MSTORE PUSH1 0x20 PUSH1 0x0 KECCAK256 SWAP1 PUSH1 0x7 MUL ADD PUSH1 0x4 ADD DUP2 SWAP1 SSTORE POP PUSH1 0x1 DUP4 PUSH2 0x4FD SWAP2 SWAP1 PUSH2 0xB5D JUMP JUMPDEST SWAP2 POP PUSH1 0x4 DUP4 DUP2 SLOAD DUP2 LT PUSH2 0x513 JUMPI PUSH2 0x512 PUSH2 0xA11 JUMP JUMPDEST JUMPDEST SWAP1 PUSH1 0x0 MSTORE PUSH1 0x20 PUSH1 0x0 KECCAK256 SWAP1 PUSH1 0x7 MUL ADD PUSH1 0x2 ADD SLOAD PUSH1 0x40 MLOAD PUSH1 0x20 ADD PUSH2 0x535 SWAP2 SWAP1 PUSH2 0xBD4 JUMP JUMPDEST PUSH1 0x40 MLOAD PUSH1 0x20 DUP2 DUP4 SUB SUB DUP2 MSTORE SWAP1 PUSH1 0x40 MSTORE DUP1 MLOAD SWAP1 PUSH1 0x20 ADD KECCAK256 PUSH1 0x0 SHR SWAP1 POP SWAP2 POP SWAP2 JUMP JUMPDEST PUSH1 0x0 DUP1 PUSH1 0x0 DUP1 PUSH1 0x0 DUP1 PUSH1 0x0 PUSH1 0x4 DUP9 DUP2 SLOAD DUP2 LT PUSH2 0x574 JUMPI PUSH2 0x573 PUSH2 0xA11 JUMP JUMPDEST JUMPDEST SWAP1 PUSH1 0x0 MSTORE PUSH1 0x20 PUSH1 0x0 KECCAK256 SWAP1 PUSH1 0x7 MUL ADD PUSH1 0x0 ADD SLOAD PUSH1 0x4 DUP10 DUP2 SLOAD DUP2 LT PUSH2 0x59A JUMPI PUSH2 0x599 PUSH2 0xA11 JUMP JUMPDEST JUMPDEST SWAP1 PUSH1 0x0 MSTORE PUSH1 0x20 PUSH1 0x0 KECCAK256 SWAP1 PUSH1 0x7 MUL ADD PUSH1 0x1 ADD PUSH1 0x0 SWAP1 SLOAD SWAP1 PUSH2 0x100 EXP SWAP1 DIV PUSH1 0xFF AND PUSH1 0x4 DUP11 DUP2 SLOAD DUP2 LT PUSH2 0x5CD JUMPI PUSH2 0x5CC PUSH2 0xA11 JUMP JUMPDEST JUMPDEST SWAP1 PUSH1 0x0 MSTORE PUSH1 0x20 PUSH1 0x0 KECCAK256 SWAP1 PUSH1 0x7 MUL ADD PUSH1 0x2 ADD SLOAD PUSH1 0x4 DUP12 DUP2 SLOAD DUP2 LT PUSH2 0x5F3 JUMPI PUSH2 0x5F2 PUSH2 0xA11 JUMP JUMPDEST JUMPDEST SWAP1 PUSH1 0x0 MSTORE PUSH1 0x20 PUSH1 0x0 KECCAK256 SWAP1 PUSH1 0x7 MUL ADD PUSH1 0x3 ADD PUSH1 0x0 SWAP1 SLOAD SWAP1 PUSH2 0x100 EXP SWAP1 DIV PUSH1 0xFF AND PUSH1 0x4 DUP13 DUP2 SLOAD DUP2 LT PUSH2 0x626 JUMPI PUSH2 0x625 PUSH2 0xA11 JUMP JUMPDEST JUMPDEST SWAP1 PUSH1 0x0 MSTORE PUSH1 0x20 PUSH1 0x0 KECCAK256 SWAP1 PUSH1 0x7 MUL ADD PUSH1 0x4 ADD SLOAD PUSH1 0x4 DUP14 DUP2 SLOAD DUP2 LT PUSH2 0x64C JUMPI PUSH2 0x64B PUSH2 0xA11 JUMP JUMPDEST JUMPDEST SWAP1 PUSH1 0x0 MSTORE PUSH1 0x20 PUSH1 0x0 KECCAK256 SWAP1 PUSH1 0x7 MUL ADD PUSH1 0x5 ADD SLOAD PUSH1 0x4 DUP15 DUP2 SLOAD DUP2 LT PUSH2 0x672 JUMPI PUSH2 0x671 PUSH2 0xA11 JUMP JUMPDEST JUMPDEST SWAP1 PUSH1 0x0 MSTORE PUSH1 0x20 PUSH1 0x0 KECCAK256 SWAP1 PUSH1 0x7 MUL ADD PUSH1 0x6 ADD SLOAD SWAP7 POP SWAP7 POP SWAP7 POP SWAP7 POP SWAP7 POP SWAP7 POP SWAP7 POP SWAP2 SWAP4 SWAP6 SWAP8 SWAP1 SWAP3 SWAP5 SWAP7 POP JUMP JUMPDEST PUSH1 0x4 DUP2 DUP2 SLOAD DUP2 LT PUSH2 0x6B1 JUMPI PUSH2 0x6B0 PUSH2 0xA11 JUMP JUMPDEST JUMPDEST SWAP1 PUSH1 0x0 MSTORE PUSH1 0x20 PUSH1 0x0 KECCAK256 SWAP1 PUSH1 0x7 MUL ADD PUSH1 0x6 ADD SLOAD CALLVALUE EQ PUSH2 0x704 JUMPI PUSH1 0x40 MLOAD PUSH32 0x8C379A000000000000000000000000000000000000000000000000000000000 DUP2 MSTORE PUSH1 0x4 ADD PUSH2 0x6FB SWAP1 PUSH2 0xC61 JUMP JUMPDEST PUSH1 0x40 MLOAD DUP1 SWAP2 SUB SWAP1 REVERT JUMPDEST PUSH1 0x0 PUSH1 0x4 DUP3 DUP2 SLOAD DUP2 LT PUSH2 0x71A JUMPI PUSH2 0x719 PUSH2 0xA11 JUMP JUMPDEST JUMPDEST SWAP1 PUSH1 0x0 MSTORE PUSH1 0x20 PUSH1 0x0 KECCAK256 SWAP1 PUSH1 0x7 MUL ADD PUSH1 0x3 ADD PUSH1 0x0 PUSH2 0x100 EXP DUP2 SLOAD DUP2 PUSH1 0xFF MUL NOT AND SWAP1 DUP4 ISZERO ISZERO MUL OR SWAP1 SSTORE POP PUSH1 0x0 PUSH1 0x4 DUP3 DUP2 SLOAD DUP2 LT PUSH2 0x758 JUMPI PUSH2 0x757 PUSH2 0xA11 JUMP JUMPDEST JUMPDEST SWAP1 PUSH1 0x0 MSTORE PUSH1 0x20 PUSH1 0x0 KECCAK256 SWAP1 PUSH1 0x7 MUL ADD PUSH1 0x4 ADD DUP2 SWAP1 SSTORE POP PUSH1 0x0 PUSH1 0x4 DUP3 DUP2 SLOAD DUP2 LT PUSH2 0x783 JUMPI PUSH2 0x782 PUSH2 0xA11 JUMP JUMPDEST JUMPDEST SWAP1 PUSH1 0x0 MSTORE PUSH1 0x20 PUSH1 0x0 KECCAK256 SWAP1 PUSH1 0x7 MUL ADD PUSH1 0x5 ADD DUP2 SWAP1 SSTORE POP PUSH1 0x0 PUSH1 0x4 DUP3 DUP2 SLOAD DUP2 LT PUSH2 0x7AE JUMPI PUSH2 0x7AD PUSH2 0xA11 JUMP JUMPDEST JUMPDEST SWAP1 PUSH1 0x0 MSTORE PUSH1 0x20 PUSH1 0x0 KECCAK256 SWAP1 PUSH1 0x7 MUL ADD PUSH1 0x6 ADD DUP2 SWAP1 SSTORE POP POP JUMP JUMPDEST PUSH1 0x2 SLOAD DUP2 JUMP JUMPDEST PUSH1 0x1 SLOAD DUP2 JUMP JUMPDEST PUSH1 0x3 SLOAD DUP2 JUMP JUMPDEST PUSH1 0x0 DUP1 REVERT JUMPDEST PUSH1 0x0 DUP2 SWAP1 POP SWAP2 SWAP1 POP JUMP JUMPDEST PUSH2 0x7F0 DUP2 PUSH2 0x7DD JUMP JUMPDEST DUP2 EQ PUSH2 0x7FB JUMPI PUSH1 0x0 DUP1 REVERT JUMPDEST POP JUMP JUMPDEST PUSH1 0x0 DUP2 CALLDATALOAD SWAP1 POP PUSH2 0x80D DUP2 PUSH2 0x7E7 JUMP JUMPDEST SWAP3 SWAP2 POP POP JUMP JUMPDEST PUSH1 0x0 PUSH1 0x20 DUP3 DUP5 SUB SLT ISZERO PUSH2 0x829 JUMPI PUSH2 0x828 PUSH2 0x7D8 JUMP JUMPDEST JUMPDEST PUSH1 0x0 PUSH2 0x837 DUP5 DUP3 DUP6 ADD PUSH2 0x7FE JUMP JUMPDEST SWAP2 POP POP SWAP3 SWAP2 POP POP JUMP JUMPDEST PUSH2 0x849 DUP2 PUSH2 0x7DD JUMP JUMPDEST DUP3 MSTORE POP POP JUMP JUMPDEST PUSH32 0x4E487B7100000000000000000000000000000000000000000000000000000000 PUSH1 0x0 MSTORE PUSH1 0x21 PUSH1 0x4 MSTORE PUSH1 0x24 PUSH1 0x0 REVERT JUMPDEST PUSH1 0x3 DUP2 LT PUSH2 0x88F JUMPI PUSH2 0x88E PUSH2 0x84F JUMP JUMPDEST JUMPDEST POP JUMP JUMPDEST PUSH1 0x0 DUP2 SWAP1 POP PUSH2 0x8A0 DUP3 PUSH2 0x87E JUMP JUMPDEST SWAP2 SWAP1 POP JUMP JUMPDEST PUSH1 0x0 PUSH2 0x8B0 DUP3 PUSH2 0x892 JUMP JUMPDEST SWAP1 POP SWAP2 SWAP1 POP JUMP JUMPDEST PUSH2 0x8C0 DUP2 PUSH2 0x8A5 JUMP JUMPDEST DUP3 MSTORE POP POP JUMP JUMPDEST PUSH1 0x0 DUP2 ISZERO ISZERO SWAP1 POP SWAP2 SWAP1 POP JUMP JUMPDEST PUSH2 0x8DB DUP2 PUSH2 0x8C6 JUMP JUMPDEST DUP3 MSTORE POP POP JUMP JUMPDEST PUSH1 0x0 PUSH1 0xE0 DUP3 ADD SWAP1 POP PUSH2 0x8F6 PUSH1 0x0 DUP4 ADD DUP11 PUSH2 0x840 JUMP JUMPDEST PUSH2 0x903 PUSH1 0x20 DUP4 ADD DUP10 PUSH2 0x8B7 JUMP JUMPDEST PUSH2 0x910 PUSH1 0x40 DUP4 ADD DUP9 PUSH2 0x840 JUMP JUMPDEST PUSH2 0x91D PUSH1 0x60 DUP4 ADD DUP8 PUSH2 0x8D2 JUMP JUMPDEST PUSH2 0x92A PUSH1 0x80 DUP4 ADD DUP7 PUSH2 0x840 JUMP JUMPDEST PUSH2 0x937 PUSH1 0xA0 DUP4 ADD DUP6 PUSH2 0x840 JUMP JUMPDEST PUSH2 0x944 PUSH1 0xC0 DUP4 ADD DUP5 PUSH2 0x840 JUMP JUMPDEST SWAP9 SWAP8 POP POP POP POP POP POP POP POP JUMP JUMPDEST PUSH1 0x0 PUSH1 0x40 DUP3 ADD SWAP1 POP PUSH2 0x965 PUSH1 0x0 DUP4 ADD DUP6 PUSH2 0x840 JUMP JUMPDEST PUSH2 0x972 PUSH1 0x20 DUP4 ADD DUP5 PUSH2 0x840 JUMP JUMPDEST SWAP4 SWAP3 POP POP POP JUMP JUMPDEST PUSH1 0x0 PUSH1 0x20 DUP3 ADD SWAP1 POP PUSH2 0x98E PUSH1 0x0 DUP4 ADD DUP5 PUSH2 0x840 JUMP JUMPDEST SWAP3 SWAP2 POP POP JUMP JUMPDEST PUSH1 0x0 DUP3 DUP3 MSTORE PUSH1 0x20 DUP3 ADD SWAP1 POP SWAP3 SWAP2 POP POP JUMP JUMPDEST PUSH32 0x596F7520617265206E6F7420746865206F776E65720000000000000000000000 PUSH1 0x0 DUP3 ADD MSTORE POP JUMP JUMPDEST PUSH1 0x0 PUSH2 0x9DB PUSH1 0x15 DUP4 PUSH2 0x994 JUMP JUMPDEST SWAP2 POP PUSH2 0x9E6 DUP3 PUSH2 0x9A5 JUMP JUMPDEST PUSH1 0x20 DUP3 ADD SWAP1 POP SWAP2 SWAP1 POP JUMP JUMPDEST PUSH1 0x0 PUSH1 0x20 DUP3 ADD SWAP1 POP DUP2 DUP2 SUB PUSH1 0x0 DUP4 ADD MSTORE PUSH2 0xA0A DUP2 PUSH2 0x9CE JUMP JUMPDEST SWAP1 POP SWAP2 SWAP1 POP JUMP JUMPDEST PUSH32 0x4E487B7100000000000000000000000000000000000000000000000000000000 PUSH1 0x0 MSTORE PUSH1 0x32 PUSH1 0x4 MSTORE PUSH1 0x24 PUSH1 0x0 REVERT JUMPDEST PUSH32 0x4E487B7100000000000000000000000000000000000000000000000000000000 PUSH1 0x0 MSTORE PUSH1 0x11 PUSH1 0x4 MSTORE PUSH1 0x24 PUSH1 0x0 REVERT JUMPDEST PUSH1 0x0 PUSH2 0xA7A DUP3 PUSH2 0x7DD JUMP JUMPDEST SWAP2 POP PUSH2 0xA85 DUP4 PUSH2 0x7DD JUMP JUMPDEST SWAP3 POP DUP3 DUP3 LT ISZERO PUSH2 0xA98 JUMPI PUSH2 0xA97 PUSH2 0xA40 JUMP JUMPDEST JUMPDEST DUP3 DUP3 SUB SWAP1 POP SWAP3 SWAP2 POP POP JUMP JUMPDEST PUSH32 0x4E487B7100000000000000000000000000000000000000000000000000000000 PUSH1 0x0 MSTORE PUSH1 0x12 PUSH1 0x4 MSTORE PUSH1 0x24 PUSH1 0x0 REVERT JUMPDEST PUSH1 0x0 PUSH2 0xADD DUP3 PUSH2 0x7DD JUMP JUMPDEST SWAP2 POP PUSH2 0xAE8 DUP4 PUSH2 0x7DD JUMP JUMPDEST SWAP3 POP DUP3 PUSH2 0xAF8 JUMPI PUSH2 0xAF7 PUSH2 0xAA3 JUMP JUMPDEST JUMPDEST DUP3 DUP3 DIV SWAP1 POP SWAP3 SWAP2 POP POP JUMP JUMPDEST PUSH1 0x0 PUSH2 0xB0E DUP3 PUSH2 0x7DD JUMP JUMPDEST SWAP2 POP PUSH2 0xB19 DUP4 PUSH2 0x7DD JUMP JUMPDEST SWAP3 POP DUP2 PUSH32 0xFFFFFFFFFFFFFFFFFFFFFFFFFFFFFFFFFFFFFFFFFFFFFFFFFFFFFFFFFFFFFFFF DIV DUP4 GT DUP3 ISZERO ISZERO AND ISZERO PUSH2 0xB52 JUMPI PUSH2 0xB51 PUSH2 0xA40 JUMP JUMPDEST JUMPDEST DUP3 DUP3 MUL SWAP1 POP SWAP3 SWAP2 POP POP JUMP JUMPDEST PUSH1 0x0 PUSH2 0xB68 DUP3 PUSH2 0x7DD JUMP JUMPDEST SWAP2 POP PUSH2 0xB73 DUP4 PUSH2 0x7DD JUMP JUMPDEST SWAP3 POP DUP3 PUSH32 0xFFFFFFFFFFFFFFFFFFFFFFFFFFFFFFFFFFFFFFFFFFFFFFFFFFFFFFFFFFFFFFFF SUB DUP3 GT ISZERO PUSH2 0xBA8 JUMPI PUSH2 0xBA7 PUSH2 0xA40 JUMP JUMPDEST JUMPDEST DUP3 DUP3 ADD SWAP1 POP SWAP3 SWAP2 POP POP JUMP JUMPDEST PUSH1 0x0 DUP2 SWAP1 POP SWAP2 SWAP1 POP JUMP JUMPDEST PUSH2 0xBCE PUSH2 0xBC9 DUP3 PUSH2 0x7DD JUMP JUMPDEST PUSH2 0xBB3 JUMP JUMPDEST DUP3 MSTORE POP POP JUMP JUMPDEST PUSH1 0x0 PUSH2 0xBE0 DUP3 DUP5 PUSH2 0xBBD JUMP JUMPDEST PUSH1 0x20 DUP3 ADD SWAP2 POP DUP2 SWAP1 POP SWAP3 SWAP2 POP POP JUMP JUMPDEST PUSH32 0x596F7520646964206E6F74207061792074686520636F727265637420616D6F75 PUSH1 0x0 DUP3 ADD MSTORE PUSH32 0x6E74000000000000000000000000000000000000000000000000000000000000 PUSH1 0x20 DUP3 ADD MSTORE POP JUMP JUMPDEST PUSH1 0x0 PUSH2 0xC4B PUSH1 0x22 DUP4 PUSH2 0x994 JUMP JUMPDEST SWAP2 POP PUSH2 0xC56 DUP3 PUSH2 0xBEF JUMP JUMPDEST PUSH1 0x40 DUP3 ADD SWAP1 POP SWAP2 SWAP1 POP JUMP JUMPDEST PUSH1 0x0 PUSH1 0x20 DUP3 ADD SWAP1 POP DUP2 DUP2 SUB PUSH1 0x0 DUP4 ADD MSTORE PUSH2 0xC7A DUP2 PUSH2 0xC3E JUMP JUMPDEST SWAP1 POP SWAP2 SWAP1 POP JUMP INVALID LOG2 PUSH5 0x6970667358 0x22 SLT KECCAK256 0xE0 PUSH31 0xC618560FCD3BD64E1ED808B3FB3636AB1B30085089994C2F8E9582AC803364 PUSH20 0x6F6C634300080A00330000000000000000000000 "},"gasEstimates":{"creation":{"codeDepositCost":"651000","executionCost":"infinite","totalCost":"infinite"},"external":{"bookRoom(uint256)":"infinite","checkout(uint256)":"infinite","getRoom(uint256)":"infinite","numberOfDoubleRooms()":"2473","numberOfSingleRooms()":"2495","numberOfSuiteRooms()":"2517","pay(uint256)":"52820","rooms(uint256)":"infinite","withdraw()":"infinite"}},"methodIdentifiers":{"bookRoom(uint256)":"5f49d3d8","checkout(uint256)":"4c9ba852","getRoom(uint256)":"6d8a74cb","numberOfDoubleRooms()":"ccfb0182","numberOfSingleRooms()":"dab3a89f","numberOfSuiteRooms()":"e8597493","pay(uint256)":"c290d691","rooms(uint256)":"1bae0ac8","withdraw()":"3ccfd60b"}},"storageLayout":{"storage":[{"astId":3,"contract":"Hotel.sol:Hotel","label":"owner","offset":0,"slot":"0","type":"t_address"},{"astId":25,"contract":"Hotel.sol:Hotel","label":"numberOfSingleRooms","offset":0,"slot":"1","type":"t_uint256"},{"astId":27,"contract":"Hotel.sol:Hotel","label":"numberOfDoubleRooms","offset":0,"slot":"2","type":"t_uint256"},{"astId":29,"contract":"Hotel.sol:Hotel","label":"numberOfSuiteRooms","offset":0,"slot":"3","type":"t_uint256"},{"astId":33,"contract":"Hotel.sol:Hotel","label":"rooms","offset":0,"slot":"4","type":"t_array(t_struct(Room)23_storage)dyn_storage"}],"types":{"t_address":{"encoding":"inplace","label":"address","numberOfBytes":"20"},"t_array(t_struct(Room)23_storage)dyn_storage":{"base":"t_struct(Room)23_storage","encoding":"dynamic_array","label":"struct Hotel.Room[]","numberOfBytes":"32"},"t_bool":{"encoding":"inplace","label":"bool","numberOfBytes":"1"},"t_enum(RoomType)7":{"encoding":"inplace","label":"enum Hotel.RoomType","numberOfBytes":"1"},"t_struct(Room)23_storage":{"encoding":"inplace","label":"struct Hotel.Room","members":[{"astId":9,"contract":"Hotel.sol:Hotel","label":"price","offset":0,"slot":"0","type":"t_uint256"},{"astId":12,"contract":"Hotel.sol:Hotel","label":"typeOfRoom","offset":0,"slot":"1","type":"t_enum(RoomType)7"},{"astId":14,"contract":"Hotel.sol:Hotel","label":"roomNumber","offset":0,"slot":"2","type":"t_uint256"},{"astId":16,"contract":"Hotel.sol:Hotel","label":"occupied","offset":0,"slot":"3","type":"t_bool"},{"astId":18,"contract":"Hotel.sol:Hotel","label":"start","offset":0,"slot":"4","type":"t_uint256"},{"astId":20,"contract":"Hotel.sol:Hotel","label":"end","offset":0,"slot":"5","type":"t_uint256"},{"astId":22,"contract":"Hotel.sol:Hotel","label":"owing","offset":0,"slot":"6","type":"t_uint256"}],"numberOfBytes":"224"},"t_uint256":{"encoding":"inplace","label":"uint256","numberOfBytes":"32"}}},"userdoc":{"kind":"user","methods":{},"version":1}}